{
  "contractName": "ERC721Connector",
  "abi": [
    {
      "inputs": [
        {
          "internalType": "string",
          "name": "name",
          "type": "string"
        },
        {
          "internalType": "string",
          "name": "symbol",
          "type": "string"
        }
      ],
      "stateMutability": "nonpayable",
      "type": "constructor"
    },
    {
      "anonymous": false,
      "inputs": [
        {
          "indexed": true,
          "internalType": "address",
          "name": "_owner",
          "type": "address"
        },
        {
          "indexed": true,
          "internalType": "address",
          "name": "_approved",
          "type": "address"
        },
        {
          "indexed": true,
          "internalType": "uint256",
          "name": "_tokenId",
          "type": "uint256"
        }
      ],
      "name": "Approval",
      "type": "event"
    },
    {
      "anonymous": false,
      "inputs": [
        {
          "indexed": true,
          "internalType": "address",
          "name": "_from",
          "type": "address"
        },
        {
          "indexed": true,
          "internalType": "address",
          "name": "_to",
          "type": "address"
        },
        {
          "indexed": true,
          "internalType": "uint256",
          "name": "_tokenId",
          "type": "uint256"
        }
      ],
      "name": "Transfer",
      "type": "event"
    },
    {
      "inputs": [
        {
          "internalType": "address",
          "name": "_to",
          "type": "address"
        },
        {
          "internalType": "uint256",
          "name": "_tokenId",
          "type": "uint256"
        }
      ],
      "name": "approve",
      "outputs": [],
      "stateMutability": "nonpayable",
      "type": "function"
    },
    {
      "inputs": [
        {
          "internalType": "address",
          "name": "owner",
          "type": "address"
        }
      ],
      "name": "balanceOf",
      "outputs": [
        {
          "internalType": "uint256",
          "name": "",
          "type": "uint256"
        }
      ],
      "stateMutability": "view",
      "type": "function"
    },
    {
      "inputs": [],
      "name": "calcFngerPrint",
      "outputs": [
        {
          "internalType": "bytes4",
          "name": "",
          "type": "bytes4"
        }
      ],
      "stateMutability": "view",
      "type": "function"
    },
    {
      "inputs": [
        {
          "internalType": "uint256",
          "name": "tokenId",
          "type": "uint256"
        }
      ],
      "name": "getApproved",
      "outputs": [
        {
          "internalType": "address",
          "name": "",
          "type": "address"
        }
      ],
      "stateMutability": "view",
      "type": "function"
    },
    {
      "inputs": [],
      "name": "name",
      "outputs": [
        {
          "internalType": "string",
          "name": "",
          "type": "string"
        }
      ],
      "stateMutability": "view",
      "type": "function"
    },
    {
      "inputs": [
        {
          "internalType": "uint256",
          "name": "_tokenId",
          "type": "uint256"
        }
      ],
      "name": "ownerOf",
      "outputs": [
        {
          "internalType": "address",
          "name": "",
          "type": "address"
        }
      ],
      "stateMutability": "view",
      "type": "function"
    },
    {
      "inputs": [
        {
          "internalType": "bytes4",
          "name": "interfaceId",
          "type": "bytes4"
        }
      ],
      "name": "supportsInterface",
      "outputs": [
        {
          "internalType": "bool",
          "name": "",
          "type": "bool"
        }
      ],
      "stateMutability": "view",
      "type": "function"
    },
    {
      "inputs": [],
      "name": "symbol",
      "outputs": [
        {
          "internalType": "string",
          "name": "",
          "type": "string"
        }
      ],
      "stateMutability": "view",
      "type": "function"
    },
    {
      "inputs": [
        {
          "internalType": "uint256",
          "name": "index",
          "type": "uint256"
        }
      ],
      "name": "tokenByIndex",
      "outputs": [
        {
          "internalType": "uint256",
          "name": "",
          "type": "uint256"
        }
      ],
      "stateMutability": "view",
      "type": "function"
    },
    {
      "inputs": [
        {
          "internalType": "address",
          "name": "owner",
          "type": "address"
        },
        {
          "internalType": "uint256",
          "name": "index",
          "type": "uint256"
        }
      ],
      "name": "tokenOfOwnerByIndex",
      "outputs": [
        {
          "internalType": "uint256",
          "name": "",
          "type": "uint256"
        }
      ],
      "stateMutability": "view",
      "type": "function"
    },
    {
      "inputs": [],
      "name": "totalSupply",
      "outputs": [
        {
          "internalType": "uint256",
          "name": "",
          "type": "uint256"
        }
      ],
      "stateMutability": "view",
      "type": "function"
    },
    {
      "inputs": [
        {
          "internalType": "address",
          "name": "_from",
          "type": "address"
        },
        {
          "internalType": "address",
          "name": "_to",
          "type": "address"
        },
        {
          "internalType": "uint256",
          "name": "_tokenId",
          "type": "uint256"
        }
      ],
      "name": "transferFrom",
      "outputs": [],
      "stateMutability": "nonpayable",
      "type": "function"
    }
  ],
  "bytecode": "0x60806040523480156200001157600080fd5b5060405162001cfa38038062001cfa8339818101604052810190620000379190620003dd565b81816200006a7f01ffc9a7a5cef8baa21ed3c5c0d7e23accb804b619e9333b597f47a0d84076e2620001e360201b60201c565b620000bd7f13b182f4c0e5b2efbac0efe6cf6d756c8b89f4b79c5707a043ed9ea740574ee97f7feaf19471f34a12a7eaf32d5f3090aa2260ea8624dc8a138e74e0bf0f62307618620001e360201b60201c565b8160019080519060200190620000d5929190620002bb565b508060029080519060200190620000ee929190620002bb565b505050620001667f22c82707ba960a14c7592ffb6b8cfaa073fed0048a84cc7fa41f6b5bd8e7f2e47f3badcb5a85b80057802393c7c7dceb45dd1112972dd740244d4ce934995b91227f17e9ebaeee75627a247eb8aa75aa3ec44d7e3de40936ecd1d156c5fa582962b11818620001e360201b60201c565b620001db7f8230223f691b981717299fae9549350a0d894555723531f02108b1f522c1a7977f6da5e1284143cdd2d15038a59bde3be031250f00291d64494c12d967b3a4e0c37fc53637662700e6c65104059db8bba34439e0c32483ab7c34e3ccae52c73954951818620001e360201b60201c565b50506200061c565b63ffffffff60e01b817bffffffffffffffffffffffffffffffffffffffffffffffffffffffff191614156200024f576040517f08c379a00000000000000000000000000000000000000000000000000000000081526004016200024690620004b8565b60405180910390fd5b6001600080837bffffffffffffffffffffffffffffffffffffffffffffffffffffffff19167bffffffffffffffffffffffffffffffffffffffffffffffffffffffff1916815260200190815260200160002060006101000a81548160ff02191690831515021790555050565b828054620002c99062000588565b90600052602060002090601f016020900481019282620002ed576000855562000339565b82601f106200030857805160ff191683800117855562000339565b8280016001018555821562000339579182015b82811115620003385782518255916020019190600101906200031b565b5b5090506200034891906200034c565b5090565b5b80821115620003675760008160009055506001016200034d565b5090565b6000620003826200037c846200050e565b620004da565b9050828152602081018484840111156200039b57600080fd5b620003a884828562000552565b509392505050565b600082601f830112620003c257600080fd5b8151620003d48482602086016200036b565b91505092915050565b60008060408385031215620003f157600080fd5b600083015167ffffffffffffffff8111156200040c57600080fd5b6200041a85828601620003b0565b925050602083015167ffffffffffffffff8111156200043857600080fd5b6200044685828601620003b0565b9150509250929050565b60006200045f60218362000541565b91507f4552524f52202d204552433136353a20496e76616c696420496e74657266616360008301527f65000000000000000000000000000000000000000000000000000000000000006020830152604082019050919050565b60006020820190508181036000830152620004d38162000450565b9050919050565b6000604051905081810181811067ffffffffffffffff82111715620005045762000503620005ed565b5b8060405250919050565b600067ffffffffffffffff8211156200052c576200052b620005ed565b5b601f19601f8301169050602081019050919050565b600082825260208201905092915050565b60005b838110156200057257808201518184015260208101905062000555565b8381111562000582576000848401525b50505050565b60006002820490506001821680620005a157607f821691505b60208210811415620005b857620005b7620005be565b5b50919050565b7f4e487b7100000000000000000000000000000000000000000000000000000000600052602260045260246000fd5b7f4e487b7100000000000000000000000000000000000000000000000000000000600052604160045260246000fd5b6116ce806200062c6000396000f3fe608060405234801561001057600080fd5b50600436106100b45760003560e01c80632f745c59116100715780632f745c591461018d5780634f6ccce7146101bd5780635464a4a6146101ed5780636352211e1461020b57806370a082311461023b57806395d89b411461026b576100b4565b806301ffc9a7146100b957806306fdde03146100e9578063081812fc14610107578063095ea7b31461013757806318160ddd1461015357806323b872dd14610171575b600080fd5b6100d360048036038101906100ce9190610e6c565b610289565b6040516100e091906112b2565b60405180910390f35b6100f16102f0565b6040516100fe91906112e8565b60405180910390f35b610121600480360381019061011c9190610e95565b610382565b60405161012e9190611297565b60405180910390f35b610151600480360381019061014c9190610e30565b6103bf565b005b61015b61055b565b604051610168919061144a565b60405180910390f35b61018b60048036038101906101869190610de1565b610568565b005b6101a760048036038101906101a29190610e30565b6105c1565b6040516101b4919061144a565b60405180910390f35b6101d760048036038101906101d29190610e95565b610697565b6040516101e4919061144a565b60405180910390f35b6101f561072e565b60405161020291906112cd565b60405180910390f35b61022560048036038101906102209190610e95565b610756565b6040516102329190611297565b60405180910390f35b61025560048036038101906102509190610db8565b610808565b604051610262919061144a565b60405180910390f35b6102736108c7565b60405161028091906112e8565b60405180910390f35b6000806000837bffffffffffffffffffffffffffffffffffffffffffffffffffffffff19167bffffffffffffffffffffffffffffffffffffffffffffffffffffffff1916815260200190815260200160002060009054906101000a900460ff169050919050565b6060600180546102ff906115b2565b80601f016020809104026020016040519081016040528092919081815260200182805461032b906115b2565b80156103785780601f1061034d57610100808354040283529160200191610378565b820191906000526020600020905b81548152906001019060200180831161035b57829003601f168201915b5050505050905090565b60006005600083815260200190815260200160002060009054906101000a900473ffffffffffffffffffffffffffffffffffffffff169050919050565b60006103ca82610756565b90508073ffffffffffffffffffffffffffffffffffffffff168373ffffffffffffffffffffffffffffffffffffffff16141561043b576040517f08c379a00000000000000000000000000000000000000000000000000000000081526004016104329061132a565b60405180910390fd5b8073ffffffffffffffffffffffffffffffffffffffff163373ffffffffffffffffffffffffffffffffffffffff16146104a9576040517f08c379a00000000000000000000000000000000000000000000000000000000081526004016104a0906113ca565b60405180910390fd5b826005600084815260200190815260200160002060006101000a81548173ffffffffffffffffffffffffffffffffffffffff021916908373ffffffffffffffffffffffffffffffffffffffff160217905550818373ffffffffffffffffffffffffffffffffffffffff168273ffffffffffffffffffffffffffffffffffffffff167f8c5be1e5ebec7d5bd14f71427d1e84f3dd0314c0f7b2291e5b200ac8c7c3b92560405160405180910390a4505050565b6000600680549050905090565b6105723382610959565b6105b1576040517f08c379a00000000000000000000000000000000000000000000000000000000081526004016105a8906113ea565b60405180910390fd5b6105bc838383610a26565b505050565b60006105cc83610808565b821061060d576040517f08c379a00000000000000000000000000000000000000000000000000000000081526004016106049061140a565b60405180910390fd5b600760008473ffffffffffffffffffffffffffffffffffffffff1673ffffffffffffffffffffffffffffffffffffffff1681526020019081526020016000208281548110610684577f4e487b7100000000000000000000000000000000000000000000000000000000600052603260045260246000fd5b9060005260206000200154905092915050565b60006106a161055b565b82106106e2576040517f08c379a00000000000000000000000000000000000000000000000000000000081526004016106d99061142a565b60405180910390fd5b6006828154811061071c577f4e487b7100000000000000000000000000000000000000000000000000000000600052603260045260246000fd5b90600052602060002001549050919050565b60007f01ffc9a7a5cef8baa21ed3c5c0d7e23accb804b619e9333b597f47a0d84076e2905090565b6000806003600084815260200190815260200160002060009054906101000a900473ffffffffffffffffffffffffffffffffffffffff169050600073ffffffffffffffffffffffffffffffffffffffff168173ffffffffffffffffffffffffffffffffffffffff1614156107ff576040517f08c379a00000000000000000000000000000000000000000000000000000000081526004016107f69061130a565b60405180910390fd5b80915050919050565b60008073ffffffffffffffffffffffffffffffffffffffff168273ffffffffffffffffffffffffffffffffffffffff161415610879576040517f08c379a00000000000000000000000000000000000000000000000000000000081526004016108709061130a565b60405180910390fd5b6108c0600460008473ffffffffffffffffffffffffffffffffffffffff1673ffffffffffffffffffffffffffffffffffffffff168152602001908152602001600020610c4e565b9050919050565b6060600280546108d6906115b2565b80601f0160208091040260200160405190810160405280929190818152602001828054610902906115b2565b801561094f5780601f106109245761010080835404028352916020019161094f565b820191906000526020600020905b81548152906001019060200180831161093257829003601f168201915b5050505050905090565b600061096482610c5c565b6109a3576040517f08c379a000000000000000000000000000000000000000000000000000000000815260040161099a9061136a565b60405180910390fd5b60006109ae83610756565b90508073ffffffffffffffffffffffffffffffffffffffff168473ffffffffffffffffffffffffffffffffffffffff161480610a1d57508373ffffffffffffffffffffffffffffffffffffffff16610a0584610382565b73ffffffffffffffffffffffffffffffffffffffff16145b91505092915050565b600073ffffffffffffffffffffffffffffffffffffffff168273ffffffffffffffffffffffffffffffffffffffff161415610a96576040517f08c379a0000000000000000000000000000000000000000000000000000000008152600401610a8d9061134a565b60405180910390fd5b8273ffffffffffffffffffffffffffffffffffffffff16610ab682610756565b73ffffffffffffffffffffffffffffffffffffffff1614610b0c576040517f08c379a0000000000000000000000000000000000000000000000000000000008152600401610b039061138a565b60405180910390fd5b816003600083815260200190815260200160002060006101000a81548173ffffffffffffffffffffffffffffffffffffffff021916908373ffffffffffffffffffffffffffffffffffffffff160217905550610ba5600460008573ffffffffffffffffffffffffffffffffffffffff1673ffffffffffffffffffffffffffffffffffffffff168152602001908152602001600020610cce565b50610bed600460008473ffffffffffffffffffffffffffffffffffffffff1673ffffffffffffffffffffffffffffffffffffffff168152602001908152602001600020610cf6565b50808273ffffffffffffffffffffffffffffffffffffffff168473ffffffffffffffffffffffffffffffffffffffff167fddf252ad1be2c89b69c2b068fc378daa952ba7f163c4a11628f55a4df523b3ef60405160405180910390a4505050565b600081600001549050919050565b6000806003600084815260200190815260200160002060009054906101000a900473ffffffffffffffffffffffffffffffffffffffff169050600073ffffffffffffffffffffffffffffffffffffffff168173ffffffffffffffffffffffffffffffffffffffff161415915050919050565b6000610ce860018360000154610d1a90919063ffffffff16565b826000018190559050919050565b60006001826000016000828254610d0d9190611481565b9250508190559050919050565b600082821115610d5f576040517f08c379a0000000000000000000000000000000000000000000000000000000008152600401610d56906113aa565b60405180910390fd5b60008284610d6d91906114d7565b90508091505092915050565b600081359050610d8881611653565b92915050565b600081359050610d9d8161166a565b92915050565b600081359050610db281611681565b92915050565b600060208284031215610dca57600080fd5b6000610dd884828501610d79565b91505092915050565b600080600060608486031215610df657600080fd5b6000610e0486828701610d79565b9350506020610e1586828701610d79565b9250506040610e2686828701610da3565b9150509250925092565b60008060408385031215610e4357600080fd5b6000610e5185828601610d79565b9250506020610e6285828601610da3565b9150509250929050565b600060208284031215610e7e57600080fd5b6000610e8c84828501610d8e565b91505092915050565b600060208284031215610ea757600080fd5b6000610eb584828501610da3565b91505092915050565b610ec78161150b565b82525050565b610ed68161151d565b82525050565b610ee581611529565b82525050565b6000610ef682611465565b610f008185611470565b9350610f1081856020860161157f565b610f1981611642565b840191505092915050565b6000610f31602083611470565b91507f6f776e657220717565727920666f72206e6f6e2d65786974737420746f6b656e6000830152602082019050919050565b6000610f71602183611470565b91507f4552524f52202d20617070726f76616c20746f2063757272656e74206f776e6560008301527f72000000000000000000000000000000000000000000000000000000000000006020830152604082019050919050565b6000610fd7602c83611470565b91507f4552524f52202d204552433732313a207472616e7366657220746f207468652060008301527f7a65726f206164647265737300000000000000000000000000000000000000006020830152604082019050919050565b600061103d601c83611470565b91507f4552433732312c20746f6b656e20646f6573206e6f74206578697374000000006000830152602082019050919050565b600061107d604483611470565b91507f4552524f52202d204552433732313a20547279696e6720746f207472616e736660008301527f6572206120746f6b656e20746865206164647265737320646f6573206e6f742060208301527f6f776e21000000000000000000000000000000000000000000000000000000006040830152606082019050919050565b6000611109601f83611470565b91507f536166654d6174683a20537562737472616374696f6e204f766572666c6f77006000830152602082019050919050565b6000611149602783611470565b91507f4552524f52202d2043757272656e742063616c6c6572206973206e6f7420746860008301527f65206f776e6572000000000000000000000000000000000000000000000000006020830152604082019050919050565b60006111af604083611470565b91507f4552524f52202d204552433732313a20617070726f76652063616c6c6572206960008301527f73206e6f74206f776e6572206e6f7220617070726f76656420666f7220616c6c6020830152604082019050919050565b6000611215601c83611470565b91507f6f776e657220696e646578206973206f7574206f6620626f756e6473000000006000830152602082019050919050565b6000611255601d83611470565b91507f676c6f62616c20696e646578206973206f7574206f6620626f756e64730000006000830152602082019050919050565b61129181611575565b82525050565b60006020820190506112ac6000830184610ebe565b92915050565b60006020820190506112c76000830184610ecd565b92915050565b60006020820190506112e26000830184610edc565b92915050565b600060208201905081810360008301526113028184610eeb565b905092915050565b6000602082019050818103600083015261132381610f24565b9050919050565b6000602082019050818103600083015261134381610f64565b9050919050565b6000602082019050818103600083015261136381610fca565b9050919050565b6000602082019050818103600083015261138381611030565b9050919050565b600060208201905081810360008301526113a381611070565b9050919050565b600060208201905081810360008301526113c3816110fc565b9050919050565b600060208201905081810360008301526113e38161113c565b9050919050565b60006020820190508181036000830152611403816111a2565b9050919050565b6000602082019050818103600083015261142381611208565b9050919050565b6000602082019050818103600083015261144381611248565b9050919050565b600060208201905061145f6000830184611288565b92915050565b600081519050919050565b600082825260208201905092915050565b600061148c82611575565b915061149783611575565b9250827fffffffffffffffffffffffffffffffffffffffffffffffffffffffffffffffff038211156114cc576114cb6115e4565b5b828201905092915050565b60006114e282611575565b91506114ed83611575565b925082821015611500576114ff6115e4565b5b828203905092915050565b600061151682611555565b9050919050565b60008115159050919050565b60007fffffffff0000000000000000000000000000000000000000000000000000000082169050919050565b600073ffffffffffffffffffffffffffffffffffffffff82169050919050565b6000819050919050565b60005b8381101561159d578082015181840152602081019050611582565b838111156115ac576000848401525b50505050565b600060028204905060018216806115ca57607f821691505b602082108114156115de576115dd611613565b5b50919050565b7f4e487b7100000000000000000000000000000000000000000000000000000000600052601160045260246000fd5b7f4e487b7100000000000000000000000000000000000000000000000000000000600052602260045260246000fd5b6000601f19601f8301169050919050565b61165c8161150b565b811461166757600080fd5b50565b61167381611529565b811461167e57600080fd5b50565b61168a81611575565b811461169557600080fd5b5056fea26469706673582212201d1159317d36ef4c97b69e12639ef936c6600eb5a35e0f9e315834eb3f8d6b3f64736f6c63430008000033",
  "immutableReferences": {},
  "source": "// SPDX-License-Identifier: MIT\npragma solidity >=0.8.0;\n\nimport './ERC721Metadata.sol';\nimport './ERC721Enumerable.sol';\n\ncontract ERC721Connector is ERC721Metadata, ERC721Enumerable {\n\n      constructor (string memory name, string memory symbol) ERC721Metadata (name, symbol) {\n\n      }\n}",
  "sourcePath": "/Users/harukikondo/git/NFT-MarketplaceApp/src/contracts/ERC721Connector.sol",
  "compiler": {
    "name": "solc",
    "version": "0.8.0+commit.c7dfd78e.Emscripten.clang"
  },
  "schemaVersion": "3.4.3",
  "updatedAt": "2022-04-25T15:19:13.548Z",
  "devdoc": {
    "kind": "dev",
    "methods": {},
    "version": 1
  },
  "userdoc": {
    "kind": "user",
    "methods": {},
    "version": 1
  }
}