{
  "contractName": "ERC721Connector",
  "abi": [
    {
      "inputs": [
        {
          "internalType": "string",
          "name": "name",
          "type": "string"
        },
        {
          "internalType": "string",
          "name": "symbol",
          "type": "string"
        }
      ],
      "stateMutability": "nonpayable",
      "type": "constructor"
    },
    {
      "anonymous": false,
      "inputs": [
        {
          "indexed": true,
          "internalType": "address",
          "name": "from",
          "type": "address"
        },
        {
          "indexed": true,
          "internalType": "address",
          "name": "to",
          "type": "address"
        },
        {
          "indexed": true,
          "internalType": "uint256",
          "name": "tokenId",
          "type": "uint256"
        }
      ],
      "name": "Transfer",
      "type": "event"
    },
    {
      "inputs": [
        {
          "internalType": "address",
          "name": "owner",
          "type": "address"
        }
      ],
      "name": "balanceOf",
      "outputs": [
        {
          "internalType": "uint256",
          "name": "",
          "type": "uint256"
        }
      ],
      "stateMutability": "view",
      "type": "function"
    },
    {
      "inputs": [],
      "name": "name",
      "outputs": [
        {
          "internalType": "string",
          "name": "",
          "type": "string"
        }
      ],
      "stateMutability": "view",
      "type": "function"
    },
    {
      "inputs": [
        {
          "internalType": "uint256",
          "name": "_tokenId",
          "type": "uint256"
        }
      ],
      "name": "ownerOf",
      "outputs": [
        {
          "internalType": "address",
          "name": "",
          "type": "address"
        }
      ],
      "stateMutability": "view",
      "type": "function"
    },
    {
      "inputs": [],
      "name": "symbol",
      "outputs": [
        {
          "internalType": "string",
          "name": "",
          "type": "string"
        }
      ],
      "stateMutability": "view",
      "type": "function"
    },
    {
      "inputs": [
        {
          "internalType": "uint256",
          "name": "index",
          "type": "uint256"
        }
      ],
      "name": "tokenByIndex",
      "outputs": [
        {
          "internalType": "uint256",
          "name": "",
          "type": "uint256"
        }
      ],
      "stateMutability": "view",
      "type": "function"
    },
    {
      "inputs": [
        {
          "internalType": "address",
          "name": "owner",
          "type": "address"
        },
        {
          "internalType": "uint256",
          "name": "index",
          "type": "uint256"
        }
      ],
      "name": "tokenOfOwnerByIndex",
      "outputs": [
        {
          "internalType": "uint256",
          "name": "",
          "type": "uint256"
        }
      ],
      "stateMutability": "view",
      "type": "function"
    },
    {
      "inputs": [],
      "name": "totalSupply",
      "outputs": [
        {
          "internalType": "uint256",
          "name": "",
          "type": "uint256"
        }
      ],
      "stateMutability": "view",
      "type": "function"
    },
    {
      "inputs": [
        {
          "internalType": "address",
          "name": "_from",
          "type": "address"
        },
        {
          "internalType": "address",
          "name": "_to",
          "type": "address"
        },
        {
          "internalType": "uint256",
          "name": "_tokenId",
          "type": "uint256"
        }
      ],
      "name": "transferFrom",
      "outputs": [],
      "stateMutability": "nonpayable",
      "type": "function"
    }
  ],
  "bytecode": "0x60806040523480156200001157600080fd5b506040516200118e3803806200118e833981810160405281019062000037919062000197565b818181600090805190602001906200005192919062000075565b5080600190805190602001906200006a92919062000075565b50505050506200033b565b8280546200008390620002a7565b90600052602060002090601f016020900481019282620000a75760008555620000f3565b82601f10620000c257805160ff1916838001178555620000f3565b82800160010185558215620000f3579182015b82811115620000f2578251825591602001919060010190620000d5565b5b50905062000102919062000106565b5090565b5b808211156200012157600081600090555060010162000107565b5090565b60006200013c62000136846200023e565b6200020a565b9050828152602081018484840111156200015557600080fd5b6200016284828562000271565b509392505050565b600082601f8301126200017c57600080fd5b81516200018e84826020860162000125565b91505092915050565b60008060408385031215620001ab57600080fd5b600083015167ffffffffffffffff811115620001c657600080fd5b620001d4858286016200016a565b925050602083015167ffffffffffffffff811115620001f257600080fd5b62000200858286016200016a565b9150509250929050565b6000604051905081810181811067ffffffffffffffff821117156200023457620002336200030c565b5b8060405250919050565b600067ffffffffffffffff8211156200025c576200025b6200030c565b5b601f19601f8301169050602081019050919050565b60005b838110156200029157808201518184015260208101905062000274565b83811115620002a1576000848401525b50505050565b60006002820490506001821680620002c057607f821691505b60208210811415620002d757620002d6620002dd565b5b50919050565b7f4e487b7100000000000000000000000000000000000000000000000000000000600052602260045260246000fd5b7f4e487b7100000000000000000000000000000000000000000000000000000000600052604160045260246000fd5b610e43806200034b6000396000f3fe608060405234801561001057600080fd5b50600436106100885760003560e01c80634f6ccce71161005b5780634f6ccce7146101155780636352211e1461014557806370a082311461017557806395d89b41146101a557610088565b806306fdde031461008d57806318160ddd146100ab57806323b872dd146100c95780632f745c59146100e5575b600080fd5b6100956101c3565b6040516100a29190610b4c565b60405180910390f35b6100b3610255565b6040516100c09190610c0e565b60405180910390f35b6100e360048036038101906100de9190610874565b610262565b005b6100ff60048036038101906100fa91906108c3565b610272565b60405161010c9190610c0e565b60405180910390f35b61012f600480360381019061012a91906108ff565b610348565b60405161013c9190610c0e565b60405180910390f35b61015f600480360381019061015a91906108ff565b6103df565b60405161016c9190610b31565b60405180910390f35b61018f600480360381019061018a919061084b565b610491565b60405161019c9190610c0e565b60405180910390f35b6101ad610549565b6040516101ba9190610b4c565b60405180910390f35b6060600080546101d290610d3e565b80601f01602080910402602001604051908101604052809291908181526020018280546101fe90610d3e565b801561024b5780601f106102205761010080835404028352916020019161024b565b820191906000526020600020905b81548152906001019060200180831161022e57829003601f168201915b5050505050905090565b6000600580549050905090565b61026d8383836105db565b505050565b600061027d83610491565b82106102be576040517f08c379a00000000000000000000000000000000000000000000000000000000081526004016102b590610bce565b60405180910390fd5b600660008473ffffffffffffffffffffffffffffffffffffffff1673ffffffffffffffffffffffffffffffffffffffff1681526020019081526020016000208281548110610335577f4e487b7100000000000000000000000000000000000000000000000000000000600052603260045260246000fd5b9060005260206000200154905092915050565b6000610352610255565b8210610393576040517f08c379a000000000000000000000000000000000000000000000000000000000815260040161038a90610bee565b60405180910390fd5b600582815481106103cd577f4e487b7100000000000000000000000000000000000000000000000000000000600052603260045260246000fd5b90600052602060002001549050919050565b6000806002600084815260200190815260200160002060009054906101000a900473ffffffffffffffffffffffffffffffffffffffff169050600073ffffffffffffffffffffffffffffffffffffffff168173ffffffffffffffffffffffffffffffffffffffff161415610488576040517f08c379a000000000000000000000000000000000000000000000000000000000815260040161047f90610b6e565b60405180910390fd5b80915050919050565b60008073ffffffffffffffffffffffffffffffffffffffff168273ffffffffffffffffffffffffffffffffffffffff161415610502576040517f08c379a00000000000000000000000000000000000000000000000000000000081526004016104f990610b6e565b60405180910390fd5b600360008373ffffffffffffffffffffffffffffffffffffffff1673ffffffffffffffffffffffffffffffffffffffff168152602001908152602001600020549050919050565b60606001805461055890610d3e565b80601f016020809104026020016040519081016040528092919081815260200182805461058490610d3e565b80156105d15780601f106105a6576101008083540402835291602001916105d1565b820191906000526020600020905b8154815290600101906020018083116105b457829003601f168201915b5050505050905090565b600073ffffffffffffffffffffffffffffffffffffffff168273ffffffffffffffffffffffffffffffffffffffff16141561064b576040517f08c379a000000000000000000000000000000000000000000000000000000000815260040161064290610b8e565b60405180910390fd5b8273ffffffffffffffffffffffffffffffffffffffff1661066b826103df565b73ffffffffffffffffffffffffffffffffffffffff16146106c1576040517f08c379a00000000000000000000000000000000000000000000000000000000081526004016106b890610bae565b60405180910390fd5b816002600083815260200190815260200160002060006101000a81548173ffffffffffffffffffffffffffffffffffffffff021916908373ffffffffffffffffffffffffffffffffffffffff1602179055506001600360008573ffffffffffffffffffffffffffffffffffffffff1673ffffffffffffffffffffffffffffffffffffffff16815260200190815260200160002060008282546107639190610c9b565b925050819055506001600360008473ffffffffffffffffffffffffffffffffffffffff1673ffffffffffffffffffffffffffffffffffffffff16815260200190815260200160002060008282546107ba9190610c45565b92505081905550808273ffffffffffffffffffffffffffffffffffffffff168473ffffffffffffffffffffffffffffffffffffffff167fddf252ad1be2c89b69c2b068fc378daa952ba7f163c4a11628f55a4df523b3ef60405160405180910390a4505050565b60008135905061083081610ddf565b92915050565b60008135905061084581610df6565b92915050565b60006020828403121561085d57600080fd5b600061086b84828501610821565b91505092915050565b60008060006060848603121561088957600080fd5b600061089786828701610821565b93505060206108a886828701610821565b92505060406108b986828701610836565b9150509250925092565b600080604083850312156108d657600080fd5b60006108e485828601610821565b92505060206108f585828601610836565b9150509250929050565b60006020828403121561091157600080fd5b600061091f84828501610836565b91505092915050565b61093181610ccf565b82525050565b600061094282610c29565b61094c8185610c34565b935061095c818560208601610d0b565b61096581610dce565b840191505092915050565b600061097d602083610c34565b91507f6f776e657220717565727920666f72206e6f6e2d65786974737420746f6b656e6000830152602082019050919050565b60006109bd602c83610c34565b91507f4552524f52202d204552433732313a207472616e7366657220746f207468652060008301527f7a65726f206164647265737300000000000000000000000000000000000000006020830152604082019050919050565b6000610a23604483610c34565b91507f4552524f52202d204552433732313a20547279696e6720746f207472616e736660008301527f6572206120746f6b656e20746865206164647265737320646f6573206e6f742060208301527f6f776e21000000000000000000000000000000000000000000000000000000006040830152606082019050919050565b6000610aaf601c83610c34565b91507f6f776e657220696e646578206973206f7574206f6620626f756e6473000000006000830152602082019050919050565b6000610aef601d83610c34565b91507f676c6f62616c20696e646578206973206f7574206f6620626f756e64730000006000830152602082019050919050565b610b2b81610d01565b82525050565b6000602082019050610b466000830184610928565b92915050565b60006020820190508181036000830152610b668184610937565b905092915050565b60006020820190508181036000830152610b8781610970565b9050919050565b60006020820190508181036000830152610ba7816109b0565b9050919050565b60006020820190508181036000830152610bc781610a16565b9050919050565b60006020820190508181036000830152610be781610aa2565b9050919050565b60006020820190508181036000830152610c0781610ae2565b9050919050565b6000602082019050610c236000830184610b22565b92915050565b600081519050919050565b600082825260208201905092915050565b6000610c5082610d01565b9150610c5b83610d01565b9250827fffffffffffffffffffffffffffffffffffffffffffffffffffffffffffffffff03821115610c9057610c8f610d70565b5b828201905092915050565b6000610ca682610d01565b9150610cb183610d01565b925082821015610cc457610cc3610d70565b5b828203905092915050565b6000610cda82610ce1565b9050919050565b600073ffffffffffffffffffffffffffffffffffffffff82169050919050565b6000819050919050565b60005b83811015610d29578082015181840152602081019050610d0e565b83811115610d38576000848401525b50505050565b60006002820490506001821680610d5657607f821691505b60208210811415610d6a57610d69610d9f565b5b50919050565b7f4e487b7100000000000000000000000000000000000000000000000000000000600052601160045260246000fd5b7f4e487b7100000000000000000000000000000000000000000000000000000000600052602260045260246000fd5b6000601f19601f8301169050919050565b610de881610ccf565b8114610df357600080fd5b50565b610dff81610d01565b8114610e0a57600080fd5b5056fea2646970667358221220069adb861d1ba18a0d4e99c781187cb008e115998497fce700e91a0b981e808764736f6c63430008000033",
  "immutableReferences": {},
  "source": "// SPDX-License-Identifier: MIT\npragma solidity >=0.8.0;\n\nimport './ERC721Metadata.sol';\nimport './ERC721Enumerable.sol';\n\ncontract ERC721Connector is ERC721Metadata, ERC721Enumerable {\n\n      constructor (string memory name, string memory symbol) ERC721Metadata (name, symbol) {\n\n      }\n}",
  "sourcePath": "/Users/harukikondo/git/NFT-MarketplaceApp/src/contracts/ERC721Connector.sol",
  "compiler": {
    "name": "solc",
    "version": "0.8.0+commit.c7dfd78e.Emscripten.clang"
  },
  "schemaVersion": "3.4.3",
  "updatedAt": "2022-04-23T05:32:06.151Z",
  "devdoc": {
    "kind": "dev",
    "methods": {},
    "version": 1
  },
  "userdoc": {
    "kind": "user",
    "methods": {},
    "version": 1
  }
}