{
  "contractName": "ERC721",
  "abi": [
    {
      "anonymous": false,
      "inputs": [
        {
          "indexed": true,
          "internalType": "address",
          "name": "from",
          "type": "address"
        },
        {
          "indexed": true,
          "internalType": "address",
          "name": "to",
          "type": "address"
        },
        {
          "indexed": true,
          "internalType": "uint256",
          "name": "tokenId",
          "type": "uint256"
        }
      ],
      "name": "Transfer",
      "type": "event"
    },
    {
      "inputs": [
        {
          "internalType": "address",
          "name": "_from",
          "type": "address"
        },
        {
          "internalType": "address",
          "name": "_to",
          "type": "address"
        },
        {
          "internalType": "uint256",
          "name": "_tokenId",
          "type": "uint256"
        }
      ],
      "name": "transferFrom",
      "outputs": [],
      "stateMutability": "nonpayable",
      "type": "function"
    },
    {
      "inputs": [
        {
          "internalType": "address",
          "name": "owner",
          "type": "address"
        }
      ],
      "name": "balanceOf",
      "outputs": [
        {
          "internalType": "uint256",
          "name": "",
          "type": "uint256"
        }
      ],
      "stateMutability": "view",
      "type": "function"
    },
    {
      "inputs": [
        {
          "internalType": "uint256",
          "name": "_tokenId",
          "type": "uint256"
        }
      ],
      "name": "ownerOf",
      "outputs": [
        {
          "internalType": "address",
          "name": "",
          "type": "address"
        }
      ],
      "stateMutability": "view",
      "type": "function"
    }
  ],
  "bytecode": "0x608060405234801561001057600080fd5b50610899806100206000396000f3fe608060405234801561001057600080fd5b50600436106100415760003560e01c806323b872dd146100465780636352211e1461006257806370a0823114610092575b600080fd5b610060600480360381019061005b91906104d1565b6100c2565b005b61007c60048036038101906100779190610520565b6100d2565b6040516100899190610699565b60405180910390f35b6100ac60048036038101906100a791906104a8565b610183565b6040516100b99190610714565b60405180910390f35b6100cd83838361023b565b505050565b60008060008084815260200190815260200160002060009054906101000a900473ffffffffffffffffffffffffffffffffffffffff169050600073ffffffffffffffffffffffffffffffffffffffff168173ffffffffffffffffffffffffffffffffffffffff16141561017a576040517f08c379a0000000000000000000000000000000000000000000000000000000008152600401610171906106b4565b60405180910390fd5b80915050919050565b60008073ffffffffffffffffffffffffffffffffffffffff168273ffffffffffffffffffffffffffffffffffffffff1614156101f4576040517f08c379a00000000000000000000000000000000000000000000000000000000081526004016101eb906106b4565b60405180910390fd5b600160008373ffffffffffffffffffffffffffffffffffffffff1673ffffffffffffffffffffffffffffffffffffffff168152602001908152602001600020549050919050565b600073ffffffffffffffffffffffffffffffffffffffff168273ffffffffffffffffffffffffffffffffffffffff1614156102ab576040517f08c379a00000000000000000000000000000000000000000000000000000000081526004016102a2906106d4565b60405180910390fd5b8273ffffffffffffffffffffffffffffffffffffffff166102cb826100d2565b73ffffffffffffffffffffffffffffffffffffffff1614610321576040517f08c379a0000000000000000000000000000000000000000000000000000000008152600401610318906106f4565b60405180910390fd5b8160008083815260200190815260200160002060006101000a81548173ffffffffffffffffffffffffffffffffffffffff021916908373ffffffffffffffffffffffffffffffffffffffff16021790555060018060008573ffffffffffffffffffffffffffffffffffffffff1673ffffffffffffffffffffffffffffffffffffffff16815260200190815260200160002060008282546103c19190610796565b9250508190555060018060008473ffffffffffffffffffffffffffffffffffffffff1673ffffffffffffffffffffffffffffffffffffffff16815260200190815260200160002060008282546104179190610740565b92505081905550808273ffffffffffffffffffffffffffffffffffffffff168473ffffffffffffffffffffffffffffffffffffffff167fddf252ad1be2c89b69c2b068fc378daa952ba7f163c4a11628f55a4df523b3ef60405160405180910390a4505050565b60008135905061048d81610835565b92915050565b6000813590506104a28161084c565b92915050565b6000602082840312156104ba57600080fd5b60006104c88482850161047e565b91505092915050565b6000806000606084860312156104e657600080fd5b60006104f48682870161047e565b93505060206105058682870161047e565b925050604061051686828701610493565b9150509250925092565b60006020828403121561053257600080fd5b600061054084828501610493565b91505092915050565b610552816107ca565b82525050565b600061056560208361072f565b91507f6f776e657220717565727920666f72206e6f6e2d65786974737420746f6b656e6000830152602082019050919050565b60006105a5602c8361072f565b91507f4552524f52202d204552433732313a207472616e7366657220746f207468652060008301527f7a65726f206164647265737300000000000000000000000000000000000000006020830152604082019050919050565b600061060b60448361072f565b91507f4552524f52202d204552433732313a20547279696e6720746f207472616e736660008301527f6572206120746f6b656e20746865206164647265737320646f6573206e6f742060208301527f6f776e21000000000000000000000000000000000000000000000000000000006040830152606082019050919050565b610693816107fc565b82525050565b60006020820190506106ae6000830184610549565b92915050565b600060208201905081810360008301526106cd81610558565b9050919050565b600060208201905081810360008301526106ed81610598565b9050919050565b6000602082019050818103600083015261070d816105fe565b9050919050565b6000602082019050610729600083018461068a565b92915050565b600082825260208201905092915050565b600061074b826107fc565b9150610756836107fc565b9250827fffffffffffffffffffffffffffffffffffffffffffffffffffffffffffffffff0382111561078b5761078a610806565b5b828201905092915050565b60006107a1826107fc565b91506107ac836107fc565b9250828210156107bf576107be610806565b5b828203905092915050565b60006107d5826107dc565b9050919050565b600073ffffffffffffffffffffffffffffffffffffffff82169050919050565b6000819050919050565b7f4e487b7100000000000000000000000000000000000000000000000000000000600052601160045260246000fd5b61083e816107ca565b811461084957600080fd5b50565b610855816107fc565b811461086057600080fd5b5056fea26469706673582212202cf6b183125a34c89cdcae7f9642ba99430c60bf92236b0420c70f1a2c4d9b5b64736f6c63430008000033",
  "immutableReferences": {},
  "source": "// SPDX-License-Identifier: MIT\npragma solidity >=0.8.0;\n\ncontract ERC721 {\n      // event\n      event Transfer(address indexed from, address indexed to, uint256 indexed tokenId);\n\n      // ID\n      mapping(uint256 => address) private _tokenOwner;\n      // NFT\n      mapping(address => uint256) private _OwnedTokensCount;\n      // ID\n      mapping(uint256 => address) private _tokenApprovals;\n\n      function _mint(address to, uint256 tokenId) internal virtual {\n            require( to != address(0), 'ERC721: minting to the zero address');\n            require(!_exists(tokenId), 'ERC721, token aleady minted');\n\n            _tokenOwner[tokenId] = to;\n            _OwnedTokensCount[to] += 1;\n            \n            emit Transfer(address(0), to, tokenId);\n      }\n\n      // NFT()\n      function _transferFrom(address _from, address _to, uint256 _tokenId) internal {\n            require( _to != address(0), 'ERROR - ERC721: transfer to the zero address');\n            require(ownerOf(_tokenId) == _from, 'ERROR - ERC721: Trying to transfer a token the address does not own!');\n\n            _tokenOwner[_tokenId] = _to;\n            _OwnedTokensCount[_from] -= 1;\n            _OwnedTokensCount[_to] += 1;\n\n            emit Transfer(_from, _to, _tokenId);\n      }\n\n      function transferFrom(address _from, address _to, uint256 _tokenId) public {\n            _transferFrom(_from, _to, _tokenId);\n      }\n\n      function balanceOf(address owner) public view returns(uint256) {\n            require( owner != address(0), 'owner query for non-exitst token');\n            return _OwnedTokensCount[owner];\n      }\n\n      function ownerOf(uint256 _tokenId) public view returns (address) {\n            address owner = _tokenOwner[_tokenId];\n            require( owner != address(0), 'owner query for non-exitst token');\n            return owner;\n      }\n\n      function _exists(uint256 tokenId) internal view returns(bool) {\n            address owner = _tokenOwner[tokenId];\n            return owner != address(0);\n      }\n}",
  "sourcePath": "/Users/harukikondo/git/NFT-MarketplaceApp/src/contracts/ERC721.sol",
  "compiler": {
    "name": "solc",
    "version": "0.8.0+commit.c7dfd78e.Emscripten.clang"
  },
  "schemaVersion": "3.4.3",
  "updatedAt": "2022-04-23T05:32:06.147Z",
  "devdoc": {
    "kind": "dev",
    "methods": {},
    "version": 1
  },
  "userdoc": {
    "kind": "user",
    "methods": {},
    "version": 1
  }
}