{
  "contractName": "ERC721Enumerable",
  "abi": [
    {
      "anonymous": false,
      "inputs": [
        {
          "indexed": true,
          "internalType": "address",
          "name": "from",
          "type": "address"
        },
        {
          "indexed": true,
          "internalType": "address",
          "name": "to",
          "type": "address"
        },
        {
          "indexed": true,
          "internalType": "uint256",
          "name": "tokenId",
          "type": "uint256"
        }
      ],
      "name": "Transfer",
      "type": "event"
    },
    {
      "inputs": [
        {
          "internalType": "address",
          "name": "owner",
          "type": "address"
        }
      ],
      "name": "balanceOf",
      "outputs": [
        {
          "internalType": "uint256",
          "name": "",
          "type": "uint256"
        }
      ],
      "stateMutability": "view",
      "type": "function"
    },
    {
      "inputs": [
        {
          "internalType": "uint256",
          "name": "_tokenId",
          "type": "uint256"
        }
      ],
      "name": "ownerOf",
      "outputs": [
        {
          "internalType": "address",
          "name": "",
          "type": "address"
        }
      ],
      "stateMutability": "view",
      "type": "function"
    },
    {
      "inputs": [
        {
          "internalType": "address",
          "name": "_from",
          "type": "address"
        },
        {
          "internalType": "address",
          "name": "_to",
          "type": "address"
        },
        {
          "internalType": "uint256",
          "name": "_tokenId",
          "type": "uint256"
        }
      ],
      "name": "transferFrom",
      "outputs": [],
      "stateMutability": "nonpayable",
      "type": "function"
    },
    {
      "inputs": [],
      "name": "totalSupply",
      "outputs": [
        {
          "internalType": "uint256",
          "name": "",
          "type": "uint256"
        }
      ],
      "stateMutability": "view",
      "type": "function"
    },
    {
      "inputs": [
        {
          "internalType": "uint256",
          "name": "index",
          "type": "uint256"
        }
      ],
      "name": "tokenByIndex",
      "outputs": [
        {
          "internalType": "uint256",
          "name": "",
          "type": "uint256"
        }
      ],
      "stateMutability": "view",
      "type": "function"
    },
    {
      "inputs": [
        {
          "internalType": "address",
          "name": "owner",
          "type": "address"
        },
        {
          "internalType": "uint256",
          "name": "index",
          "type": "uint256"
        }
      ],
      "name": "tokenOfOwnerByIndex",
      "outputs": [
        {
          "internalType": "uint256",
          "name": "",
          "type": "uint256"
        }
      ],
      "stateMutability": "view",
      "type": "function"
    }
  ],
  "bytecode": "0x608060405234801561001057600080fd5b50610bae806100206000396000f3fe608060405234801561001057600080fd5b50600436106100625760003560e01c806318160ddd1461006757806323b872dd146100855780632f745c59146100a15780634f6ccce7146100d15780636352211e1461010157806370a0823114610131575b600080fd5b61006f610161565b60405161007c9190610a29565b60405180910390f35b61009f600480360381019061009a91906106ea565b61016e565b005b6100bb60048036038101906100b69190610739565b61017e565b6040516100c89190610a29565b60405180910390f35b6100eb60048036038101906100e69190610775565b610254565b6040516100f89190610a29565b60405180910390f35b61011b60048036038101906101169190610775565b6102eb565b604051610128919061096e565b60405180910390f35b61014b600480360381019061014691906106c1565b61039c565b6040516101589190610a29565b60405180910390f35b6000600380549050905090565b610179838383610454565b505050565b60006101898361039c565b82106101ca576040517f08c379a00000000000000000000000000000000000000000000000000000000081526004016101c1906109e9565b60405180910390fd5b600460008473ffffffffffffffffffffffffffffffffffffffff1673ffffffffffffffffffffffffffffffffffffffff1681526020019081526020016000208281548110610241577f4e487b7100000000000000000000000000000000000000000000000000000000600052603260045260246000fd5b9060005260206000200154905092915050565b600061025e610161565b821061029f576040517f08c379a000000000000000000000000000000000000000000000000000000000815260040161029690610a09565b60405180910390fd5b600382815481106102d9577f4e487b7100000000000000000000000000000000000000000000000000000000600052603260045260246000fd5b90600052602060002001549050919050565b60008060008084815260200190815260200160002060009054906101000a900473ffffffffffffffffffffffffffffffffffffffff169050600073ffffffffffffffffffffffffffffffffffffffff168173ffffffffffffffffffffffffffffffffffffffff161415610393576040517f08c379a000000000000000000000000000000000000000000000000000000000815260040161038a90610989565b60405180910390fd5b80915050919050565b60008073ffffffffffffffffffffffffffffffffffffffff168273ffffffffffffffffffffffffffffffffffffffff16141561040d576040517f08c379a000000000000000000000000000000000000000000000000000000000815260040161040490610989565b60405180910390fd5b600160008373ffffffffffffffffffffffffffffffffffffffff1673ffffffffffffffffffffffffffffffffffffffff168152602001908152602001600020549050919050565b600073ffffffffffffffffffffffffffffffffffffffff168273ffffffffffffffffffffffffffffffffffffffff1614156104c4576040517f08c379a00000000000000000000000000000000000000000000000000000000081526004016104bb906109a9565b60405180910390fd5b8273ffffffffffffffffffffffffffffffffffffffff166104e4826102eb565b73ffffffffffffffffffffffffffffffffffffffff161461053a576040517f08c379a0000000000000000000000000000000000000000000000000000000008152600401610531906109c9565b60405180910390fd5b8160008083815260200190815260200160002060006101000a81548173ffffffffffffffffffffffffffffffffffffffff021916908373ffffffffffffffffffffffffffffffffffffffff16021790555060018060008573ffffffffffffffffffffffffffffffffffffffff1673ffffffffffffffffffffffffffffffffffffffff16815260200190815260200160002060008282546105da9190610aab565b9250508190555060018060008473ffffffffffffffffffffffffffffffffffffffff1673ffffffffffffffffffffffffffffffffffffffff16815260200190815260200160002060008282546106309190610a55565b92505081905550808273ffffffffffffffffffffffffffffffffffffffff168473ffffffffffffffffffffffffffffffffffffffff167fddf252ad1be2c89b69c2b068fc378daa952ba7f163c4a11628f55a4df523b3ef60405160405180910390a4505050565b6000813590506106a681610b4a565b92915050565b6000813590506106bb81610b61565b92915050565b6000602082840312156106d357600080fd5b60006106e184828501610697565b91505092915050565b6000806000606084860312156106ff57600080fd5b600061070d86828701610697565b935050602061071e86828701610697565b925050604061072f868287016106ac565b9150509250925092565b6000806040838503121561074c57600080fd5b600061075a85828601610697565b925050602061076b858286016106ac565b9150509250929050565b60006020828403121561078757600080fd5b6000610795848285016106ac565b91505092915050565b6107a781610adf565b82525050565b60006107ba602083610a44565b91507f6f776e657220717565727920666f72206e6f6e2d65786974737420746f6b656e6000830152602082019050919050565b60006107fa602c83610a44565b91507f4552524f52202d204552433732313a207472616e7366657220746f207468652060008301527f7a65726f206164647265737300000000000000000000000000000000000000006020830152604082019050919050565b6000610860604483610a44565b91507f4552524f52202d204552433732313a20547279696e6720746f207472616e736660008301527f6572206120746f6b656e20746865206164647265737320646f6573206e6f742060208301527f6f776e21000000000000000000000000000000000000000000000000000000006040830152606082019050919050565b60006108ec601c83610a44565b91507f6f776e657220696e646578206973206f7574206f6620626f756e6473000000006000830152602082019050919050565b600061092c601d83610a44565b91507f676c6f62616c20696e646578206973206f7574206f6620626f756e64730000006000830152602082019050919050565b61096881610b11565b82525050565b6000602082019050610983600083018461079e565b92915050565b600060208201905081810360008301526109a2816107ad565b9050919050565b600060208201905081810360008301526109c2816107ed565b9050919050565b600060208201905081810360008301526109e281610853565b9050919050565b60006020820190508181036000830152610a02816108df565b9050919050565b60006020820190508181036000830152610a228161091f565b9050919050565b6000602082019050610a3e600083018461095f565b92915050565b600082825260208201905092915050565b6000610a6082610b11565b9150610a6b83610b11565b9250827fffffffffffffffffffffffffffffffffffffffffffffffffffffffffffffffff03821115610aa057610a9f610b1b565b5b828201905092915050565b6000610ab682610b11565b9150610ac183610b11565b925082821015610ad457610ad3610b1b565b5b828203905092915050565b6000610aea82610af1565b9050919050565b600073ffffffffffffffffffffffffffffffffffffffff82169050919050565b6000819050919050565b7f4e487b7100000000000000000000000000000000000000000000000000000000600052601160045260246000fd5b610b5381610adf565b8114610b5e57600080fd5b50565b610b6a81610b11565b8114610b7557600080fd5b5056fea26469706673582212205e56a854f9c275be33bdfc2cb8a4949f52dbd1658d1eddab50a41ac5bb1382f064736f6c63430008000033",
  "immutableReferences": {},
  "source": "// SPDX-License-Identifier: MIT\npragma solidity >=0.8.0;\n\nimport './ERC721.sol';\n\ncontract ERC721Enumerable is ERC721 {\n      \n      uint256[] private _allTokens;\n\n      mapping(address => uint256[]) private _ownedTokens;\n      mapping(uint256 => uint256) private _ownedTokensIndex;\n      mapping(uint256 => uint256) private _allTokensIndex;\n\n      function totalSupply() public view returns (uint256) {\n            return _allTokens.length;\n      }\n\n      function tokenByIndex(uint256 index) public view returns (uint256) {\n            require(index < totalSupply(), 'global index is out of bounds');\n            return _allTokens[index];\n      }\n\n      function tokenOfOwnerByIndex(address owner, uint256 index) public view returns (uint256) {\n            require(index < balanceOf(owner), 'owner index is out of bounds');\n            return _ownedTokens[owner][index];\n      }\n\n      function _mint(address to, uint256 tokenId) internal override(ERC721) {\n            // _mint\n            super._mint(to, tokenId);\n            // \n            _addTokensToAllTokenEnumeration(tokenId);\n            _addTokensToOwnerEnumeration(to, tokenId);\n      }\n\n      function _addTokensToAllTokenEnumeration(uint256 tokenId) private {\n            _allTokensIndex[tokenId] = _allTokens.length;\n            _allTokens.push(tokenId);\n      }\n\n      function _addTokensToOwnerEnumeration(address to, uint256 tokenId) private {\n            // NFT\n            _ownedTokensIndex[tokenId] = _ownedTokens[to].length;\n            _ownedTokens[to].push(tokenId);\n      }\n}",
  "sourcePath": "/Users/harukikondo/git/NFT-MarketplaceApp/src/contracts/ERC721Enumerable.sol",
  "compiler": {
    "name": "solc",
    "version": "0.8.0+commit.c7dfd78e.Emscripten.clang"
  },
  "schemaVersion": "3.4.3",
  "updatedAt": "2022-04-23T05:32:06.153Z",
  "devdoc": {
    "kind": "dev",
    "methods": {},
    "version": 1
  },
  "userdoc": {
    "kind": "user",
    "methods": {},
    "version": 1
  }
}