{
  "contractName": "ERC721Enumerable",
  "abi": [
    {
      "inputs": [],
      "stateMutability": "nonpayable",
      "type": "constructor"
    },
    {
      "anonymous": false,
      "inputs": [
        {
          "indexed": true,
          "internalType": "address",
          "name": "_owner",
          "type": "address"
        },
        {
          "indexed": true,
          "internalType": "address",
          "name": "_approved",
          "type": "address"
        },
        {
          "indexed": true,
          "internalType": "uint256",
          "name": "_tokenId",
          "type": "uint256"
        }
      ],
      "name": "Approval",
      "type": "event"
    },
    {
      "anonymous": false,
      "inputs": [
        {
          "indexed": true,
          "internalType": "address",
          "name": "_from",
          "type": "address"
        },
        {
          "indexed": true,
          "internalType": "address",
          "name": "_to",
          "type": "address"
        },
        {
          "indexed": true,
          "internalType": "uint256",
          "name": "_tokenId",
          "type": "uint256"
        }
      ],
      "name": "Transfer",
      "type": "event"
    },
    {
      "inputs": [
        {
          "internalType": "address",
          "name": "_to",
          "type": "address"
        },
        {
          "internalType": "uint256",
          "name": "_tokenId",
          "type": "uint256"
        }
      ],
      "name": "approve",
      "outputs": [],
      "stateMutability": "nonpayable",
      "type": "function"
    },
    {
      "inputs": [
        {
          "internalType": "address",
          "name": "owner",
          "type": "address"
        }
      ],
      "name": "balanceOf",
      "outputs": [
        {
          "internalType": "uint256",
          "name": "",
          "type": "uint256"
        }
      ],
      "stateMutability": "view",
      "type": "function"
    },
    {
      "inputs": [],
      "name": "calcFngerPrint",
      "outputs": [
        {
          "internalType": "bytes4",
          "name": "",
          "type": "bytes4"
        }
      ],
      "stateMutability": "view",
      "type": "function"
    },
    {
      "inputs": [
        {
          "internalType": "uint256",
          "name": "tokenId",
          "type": "uint256"
        }
      ],
      "name": "getApproved",
      "outputs": [
        {
          "internalType": "address",
          "name": "",
          "type": "address"
        }
      ],
      "stateMutability": "view",
      "type": "function"
    },
    {
      "inputs": [
        {
          "internalType": "uint256",
          "name": "_tokenId",
          "type": "uint256"
        }
      ],
      "name": "ownerOf",
      "outputs": [
        {
          "internalType": "address",
          "name": "",
          "type": "address"
        }
      ],
      "stateMutability": "view",
      "type": "function"
    },
    {
      "inputs": [
        {
          "internalType": "bytes4",
          "name": "interfaceId",
          "type": "bytes4"
        }
      ],
      "name": "supportsInterface",
      "outputs": [
        {
          "internalType": "bool",
          "name": "",
          "type": "bool"
        }
      ],
      "stateMutability": "view",
      "type": "function"
    },
    {
      "inputs": [
        {
          "internalType": "address",
          "name": "_from",
          "type": "address"
        },
        {
          "internalType": "address",
          "name": "_to",
          "type": "address"
        },
        {
          "internalType": "uint256",
          "name": "_tokenId",
          "type": "uint256"
        }
      ],
      "name": "transferFrom",
      "outputs": [],
      "stateMutability": "nonpayable",
      "type": "function"
    },
    {
      "inputs": [],
      "name": "totalSupply",
      "outputs": [
        {
          "internalType": "uint256",
          "name": "",
          "type": "uint256"
        }
      ],
      "stateMutability": "view",
      "type": "function"
    },
    {
      "inputs": [
        {
          "internalType": "uint256",
          "name": "index",
          "type": "uint256"
        }
      ],
      "name": "tokenByIndex",
      "outputs": [
        {
          "internalType": "uint256",
          "name": "",
          "type": "uint256"
        }
      ],
      "stateMutability": "view",
      "type": "function"
    },
    {
      "inputs": [
        {
          "internalType": "address",
          "name": "owner",
          "type": "address"
        },
        {
          "internalType": "uint256",
          "name": "index",
          "type": "uint256"
        }
      ],
      "name": "tokenOfOwnerByIndex",
      "outputs": [
        {
          "internalType": "uint256",
          "name": "",
          "type": "uint256"
        }
      ],
      "stateMutability": "view",
      "type": "function"
    }
  ],
  "bytecode": "0x60806040523480156200001157600080fd5b50620000437f01ffc9a7a5cef8baa21ed3c5c0d7e23accb804b619e9333b597f47a0d84076e26200013360201b60201c565b620000b87f22c82707ba960a14c7592ffb6b8cfaa073fed0048a84cc7fa41f6b5bd8e7f2e47f3badcb5a85b80057802393c7c7dceb45dd1112972dd740244d4ce934995b91227f17e9ebaeee75627a247eb8aa75aa3ec44d7e3de40936ecd1d156c5fa582962b118186200013360201b60201c565b6200012d7f8230223f691b981717299fae9549350a0d894555723531f02108b1f522c1a7977f6da5e1284143cdd2d15038a59bde3be031250f00291d64494c12d967b3a4e0c37fc53637662700e6c65104059db8bba34439e0c32483ab7c34e3ccae52c739549518186200013360201b60201c565b620002a6565b63ffffffff60e01b817bffffffffffffffffffffffffffffffffffffffffffffffffffffffff191614156200019f576040517f08c379a0000000000000000000000000000000000000000000000000000000008152600401620001969062000273565b60405180910390fd5b6001600080837bffffffffffffffffffffffffffffffffffffffffffffffffffffffff19167bffffffffffffffffffffffffffffffffffffffffffffffffffffffff1916815260200190815260200160002060006101000a81548160ff02191690831515021790555050565b60006200021a60218362000295565b91507f4552524f52202d204552433136353a20496e76616c696420496e74657266616360008301527f65000000000000000000000000000000000000000000000000000000000000006020830152604082019050919050565b600060208201905081810360008301526200028e816200020b565b9050919050565b600082825260208201905092915050565b61144d80620002b66000396000f3fe608060405234801561001057600080fd5b506004361061009e5760003560e01c80632f745c59116100665780632f745c59146101595780634f6ccce7146101895780635464a4a6146101b95780636352211e146101d757806370a08231146102075761009e565b806301ffc9a7146100a3578063081812fc146100d3578063095ea7b31461010357806318160ddd1461011f57806323b872dd1461013d575b600080fd5b6100bd60048036038101906100b89190610cf6565b610237565b6040516100ca9190611103565b60405180910390f35b6100ed60048036038101906100e89190610d1f565b61029e565b6040516100fa91906110e8565b60405180910390f35b61011d60048036038101906101189190610cba565b6102db565b005b610127610477565b6040516101349190611279565b60405180910390f35b61015760048036038101906101529190610c6b565b610484565b005b610173600480360381019061016e9190610cba565b6104dd565b6040516101809190611279565b60405180910390f35b6101a3600480360381019061019e9190610d1f565b6105b3565b6040516101b09190611279565b60405180910390f35b6101c161064a565b6040516101ce919061111e565b60405180910390f35b6101f160048036038101906101ec9190610d1f565b610672565b6040516101fe91906110e8565b60405180910390f35b610221600480360381019061021c9190610c42565b610724565b60405161022e9190611279565b60405180910390f35b6000806000837bffffffffffffffffffffffffffffffffffffffffffffffffffffffff19167bffffffffffffffffffffffffffffffffffffffffffffffffffffffff1916815260200190815260200160002060009054906101000a900460ff169050919050565b60006003600083815260200190815260200160002060009054906101000a900473ffffffffffffffffffffffffffffffffffffffff169050919050565b60006102e682610672565b90508073ffffffffffffffffffffffffffffffffffffffff168373ffffffffffffffffffffffffffffffffffffffff161415610357576040517f08c379a000000000000000000000000000000000000000000000000000000000815260040161034e90611159565b60405180910390fd5b8073ffffffffffffffffffffffffffffffffffffffff163373ffffffffffffffffffffffffffffffffffffffff16146103c5576040517f08c379a00000000000000000000000000000000000000000000000000000000081526004016103bc906111f9565b60405180910390fd5b826003600084815260200190815260200160002060006101000a81548173ffffffffffffffffffffffffffffffffffffffff021916908373ffffffffffffffffffffffffffffffffffffffff160217905550818373ffffffffffffffffffffffffffffffffffffffff168273ffffffffffffffffffffffffffffffffffffffff167f8c5be1e5ebec7d5bd14f71427d1e84f3dd0314c0f7b2291e5b200ac8c7c3b92560405160405180910390a4505050565b6000600480549050905090565b61048e33826107e3565b6104cd576040517f08c379a00000000000000000000000000000000000000000000000000000000081526004016104c490611219565b60405180910390fd5b6104d88383836108b0565b505050565b60006104e883610724565b8210610529576040517f08c379a000000000000000000000000000000000000000000000000000000000815260040161052090611239565b60405180910390fd5b600560008473ffffffffffffffffffffffffffffffffffffffff1673ffffffffffffffffffffffffffffffffffffffff16815260200190815260200160002082815481106105a0577f4e487b7100000000000000000000000000000000000000000000000000000000600052603260045260246000fd5b9060005260206000200154905092915050565b60006105bd610477565b82106105fe576040517f08c379a00000000000000000000000000000000000000000000000000000000081526004016105f590611259565b60405180910390fd5b60048281548110610638577f4e487b7100000000000000000000000000000000000000000000000000000000600052603260045260246000fd5b90600052602060002001549050919050565b60007f01ffc9a7a5cef8baa21ed3c5c0d7e23accb804b619e9333b597f47a0d84076e2905090565b6000806001600084815260200190815260200160002060009054906101000a900473ffffffffffffffffffffffffffffffffffffffff169050600073ffffffffffffffffffffffffffffffffffffffff168173ffffffffffffffffffffffffffffffffffffffff16141561071b576040517f08c379a000000000000000000000000000000000000000000000000000000000815260040161071290611139565b60405180910390fd5b80915050919050565b60008073ffffffffffffffffffffffffffffffffffffffff168273ffffffffffffffffffffffffffffffffffffffff161415610795576040517f08c379a000000000000000000000000000000000000000000000000000000000815260040161078c90611139565b60405180910390fd5b6107dc600260008473ffffffffffffffffffffffffffffffffffffffff1673ffffffffffffffffffffffffffffffffffffffff168152602001908152602001600020610ad8565b9050919050565b60006107ee82610ae6565b61082d576040517f08c379a000000000000000000000000000000000000000000000000000000000815260040161082490611199565b60405180910390fd5b600061083883610672565b90508073ffffffffffffffffffffffffffffffffffffffff168473ffffffffffffffffffffffffffffffffffffffff1614806108a757508373ffffffffffffffffffffffffffffffffffffffff1661088f8461029e565b73ffffffffffffffffffffffffffffffffffffffff16145b91505092915050565b600073ffffffffffffffffffffffffffffffffffffffff168273ffffffffffffffffffffffffffffffffffffffff161415610920576040517f08c379a000000000000000000000000000000000000000000000000000000000815260040161091790611179565b60405180910390fd5b8273ffffffffffffffffffffffffffffffffffffffff1661094082610672565b73ffffffffffffffffffffffffffffffffffffffff1614610996576040517f08c379a000000000000000000000000000000000000000000000000000000000815260040161098d906111b9565b60405180910390fd5b816001600083815260200190815260200160002060006101000a81548173ffffffffffffffffffffffffffffffffffffffff021916908373ffffffffffffffffffffffffffffffffffffffff160217905550610a2f600260008573ffffffffffffffffffffffffffffffffffffffff1673ffffffffffffffffffffffffffffffffffffffff168152602001908152602001600020610b58565b50610a77600260008473ffffffffffffffffffffffffffffffffffffffff1673ffffffffffffffffffffffffffffffffffffffff168152602001908152602001600020610b80565b50808273ffffffffffffffffffffffffffffffffffffffff168473ffffffffffffffffffffffffffffffffffffffff167fddf252ad1be2c89b69c2b068fc378daa952ba7f163c4a11628f55a4df523b3ef60405160405180910390a4505050565b600081600001549050919050565b6000806001600084815260200190815260200160002060009054906101000a900473ffffffffffffffffffffffffffffffffffffffff169050600073ffffffffffffffffffffffffffffffffffffffff168173ffffffffffffffffffffffffffffffffffffffff161415915050919050565b6000610b7260018360000154610ba490919063ffffffff16565b826000018190559050919050565b60006001826000016000828254610b9791906112a5565b9250508190559050919050565b600082821115610be9576040517f08c379a0000000000000000000000000000000000000000000000000000000008152600401610be0906111d9565b60405180910390fd5b60008284610bf791906112fb565b90508091505092915050565b600081359050610c12816113d2565b92915050565b600081359050610c27816113e9565b92915050565b600081359050610c3c81611400565b92915050565b600060208284031215610c5457600080fd5b6000610c6284828501610c03565b91505092915050565b600080600060608486031215610c8057600080fd5b6000610c8e86828701610c03565b9350506020610c9f86828701610c03565b9250506040610cb086828701610c2d565b9150509250925092565b60008060408385031215610ccd57600080fd5b6000610cdb85828601610c03565b9250506020610cec85828601610c2d565b9150509250929050565b600060208284031215610d0857600080fd5b6000610d1684828501610c18565b91505092915050565b600060208284031215610d3157600080fd5b6000610d3f84828501610c2d565b91505092915050565b610d518161132f565b82525050565b610d6081611341565b82525050565b610d6f8161134d565b82525050565b6000610d82602083611294565b91507f6f776e657220717565727920666f72206e6f6e2d65786974737420746f6b656e6000830152602082019050919050565b6000610dc2602183611294565b91507f4552524f52202d20617070726f76616c20746f2063757272656e74206f776e6560008301527f72000000000000000000000000000000000000000000000000000000000000006020830152604082019050919050565b6000610e28602c83611294565b91507f4552524f52202d204552433732313a207472616e7366657220746f207468652060008301527f7a65726f206164647265737300000000000000000000000000000000000000006020830152604082019050919050565b6000610e8e601c83611294565b91507f4552433732312c20746f6b656e20646f6573206e6f74206578697374000000006000830152602082019050919050565b6000610ece604483611294565b91507f4552524f52202d204552433732313a20547279696e6720746f207472616e736660008301527f6572206120746f6b656e20746865206164647265737320646f6573206e6f742060208301527f6f776e21000000000000000000000000000000000000000000000000000000006040830152606082019050919050565b6000610f5a601f83611294565b91507f536166654d6174683a20537562737472616374696f6e204f766572666c6f77006000830152602082019050919050565b6000610f9a602783611294565b91507f4552524f52202d2043757272656e742063616c6c6572206973206e6f7420746860008301527f65206f776e6572000000000000000000000000000000000000000000000000006020830152604082019050919050565b6000611000604083611294565b91507f4552524f52202d204552433732313a20617070726f76652063616c6c6572206960008301527f73206e6f74206f776e6572206e6f7220617070726f76656420666f7220616c6c6020830152604082019050919050565b6000611066601c83611294565b91507f6f776e657220696e646578206973206f7574206f6620626f756e6473000000006000830152602082019050919050565b60006110a6601d83611294565b91507f676c6f62616c20696e646578206973206f7574206f6620626f756e64730000006000830152602082019050919050565b6110e281611399565b82525050565b60006020820190506110fd6000830184610d48565b92915050565b60006020820190506111186000830184610d57565b92915050565b60006020820190506111336000830184610d66565b92915050565b6000602082019050818103600083015261115281610d75565b9050919050565b6000602082019050818103600083015261117281610db5565b9050919050565b6000602082019050818103600083015261119281610e1b565b9050919050565b600060208201905081810360008301526111b281610e81565b9050919050565b600060208201905081810360008301526111d281610ec1565b9050919050565b600060208201905081810360008301526111f281610f4d565b9050919050565b6000602082019050818103600083015261121281610f8d565b9050919050565b6000602082019050818103600083015261123281610ff3565b9050919050565b6000602082019050818103600083015261125281611059565b9050919050565b6000602082019050818103600083015261127281611099565b9050919050565b600060208201905061128e60008301846110d9565b92915050565b600082825260208201905092915050565b60006112b082611399565b91506112bb83611399565b9250827fffffffffffffffffffffffffffffffffffffffffffffffffffffffffffffffff038211156112f0576112ef6113a3565b5b828201905092915050565b600061130682611399565b915061131183611399565b925082821015611324576113236113a3565b5b828203905092915050565b600061133a82611379565b9050919050565b60008115159050919050565b60007fffffffff0000000000000000000000000000000000000000000000000000000082169050919050565b600073ffffffffffffffffffffffffffffffffffffffff82169050919050565b6000819050919050565b7f4e487b7100000000000000000000000000000000000000000000000000000000600052601160045260246000fd5b6113db8161132f565b81146113e657600080fd5b50565b6113f28161134d565b81146113fd57600080fd5b50565b61140981611399565b811461141457600080fd5b5056fea2646970667358221220f9b9b548fc7fe1bec0c03c335189b4c67664a070f4ddaefad29fab23fb17c58a64736f6c63430008000033",
  "immutableReferences": {},
  "source": "// SPDX-License-Identifier: MIT\npragma solidity >=0.8.0;\n\nimport './ERC721.sol';\nimport './interface/IERC721Enumerable.sol';\n\ncontract ERC721Enumerable is ERC721, IERC721Enumerable {\n      \n      uint256[] private _allTokens;\n\n      mapping(address => uint256[]) private _ownedTokens;\n      mapping(uint256 => uint256) private _ownedTokensIndex;\n      mapping(uint256 => uint256) private _allTokensIndex;\n\n      // \n      constructor() {\n            _registerInterface(bytes4(keccak256(\"totalSupply(bytes4)\")^keccak256(\"tokenByIndex(bytes4)\")^keccak256(\"tokenOfOwnerByIndex(bytes4)\")));\n      }\n\n      function totalSupply() public override view returns (uint256) {\n            return _allTokens.length;\n      }\n\n      function tokenByIndex(uint256 index) public override view returns (uint256) {\n            require(index < totalSupply(), 'global index is out of bounds');\n            return _allTokens[index];\n      }\n\n      function tokenOfOwnerByIndex(address owner, uint256 index) public override view returns (uint256) {\n            require(index < balanceOf(owner), 'owner index is out of bounds');\n            return _ownedTokens[owner][index];\n      }\n\n      function _mint(address to, uint256 tokenId) internal override(ERC721) {\n            // _mint\n            super._mint(to, tokenId);\n            // \n            _addTokensToAllTokenEnumeration(tokenId);\n            _addTokensToOwnerEnumeration(to, tokenId);\n      }\n\n      function _addTokensToAllTokenEnumeration(uint256 tokenId) private {\n            _allTokensIndex[tokenId] = _allTokens.length;\n            _allTokens.push(tokenId);\n      }\n\n      function _addTokensToOwnerEnumeration(address to, uint256 tokenId) private {\n            // NFT\n            _ownedTokensIndex[tokenId] = _ownedTokens[to].length;\n            _ownedTokens[to].push(tokenId);\n      }\n}",
  "sourcePath": "/Users/harukikondo/git/NFT-MarketplaceApp/src/contracts/ERC721Enumerable.sol",
  "compiler": {
    "name": "solc",
    "version": "0.8.0+commit.c7dfd78e.Emscripten.clang"
  },
  "schemaVersion": "3.4.3",
  "updatedAt": "2022-04-25T15:19:13.552Z",
  "devdoc": {
    "kind": "dev",
    "methods": {},
    "version": 1
  },
  "userdoc": {
    "kind": "user",
    "methods": {},
    "version": 1
  }
}