{
  "contractName": "ERC721",
  "abi": [
    {
      "inputs": [],
      "stateMutability": "nonpayable",
      "type": "constructor"
    },
    {
      "anonymous": false,
      "inputs": [
        {
          "indexed": true,
          "internalType": "address",
          "name": "_owner",
          "type": "address"
        },
        {
          "indexed": true,
          "internalType": "address",
          "name": "_approved",
          "type": "address"
        },
        {
          "indexed": true,
          "internalType": "uint256",
          "name": "_tokenId",
          "type": "uint256"
        }
      ],
      "name": "Approval",
      "type": "event"
    },
    {
      "anonymous": false,
      "inputs": [
        {
          "indexed": true,
          "internalType": "address",
          "name": "_from",
          "type": "address"
        },
        {
          "indexed": true,
          "internalType": "address",
          "name": "_to",
          "type": "address"
        },
        {
          "indexed": true,
          "internalType": "uint256",
          "name": "_tokenId",
          "type": "uint256"
        }
      ],
      "name": "Transfer",
      "type": "event"
    },
    {
      "inputs": [],
      "name": "calcFngerPrint",
      "outputs": [
        {
          "internalType": "bytes4",
          "name": "",
          "type": "bytes4"
        }
      ],
      "stateMutability": "view",
      "type": "function"
    },
    {
      "inputs": [
        {
          "internalType": "bytes4",
          "name": "interfaceId",
          "type": "bytes4"
        }
      ],
      "name": "supportsInterface",
      "outputs": [
        {
          "internalType": "bool",
          "name": "",
          "type": "bool"
        }
      ],
      "stateMutability": "view",
      "type": "function"
    },
    {
      "inputs": [
        {
          "internalType": "address",
          "name": "_from",
          "type": "address"
        },
        {
          "internalType": "address",
          "name": "_to",
          "type": "address"
        },
        {
          "internalType": "uint256",
          "name": "_tokenId",
          "type": "uint256"
        }
      ],
      "name": "transferFrom",
      "outputs": [],
      "stateMutability": "nonpayable",
      "type": "function"
    },
    {
      "inputs": [
        {
          "internalType": "address",
          "name": "_to",
          "type": "address"
        },
        {
          "internalType": "uint256",
          "name": "_tokenId",
          "type": "uint256"
        }
      ],
      "name": "approve",
      "outputs": [],
      "stateMutability": "nonpayable",
      "type": "function"
    },
    {
      "inputs": [
        {
          "internalType": "uint256",
          "name": "tokenId",
          "type": "uint256"
        }
      ],
      "name": "getApproved",
      "outputs": [
        {
          "internalType": "address",
          "name": "",
          "type": "address"
        }
      ],
      "stateMutability": "view",
      "type": "function"
    },
    {
      "inputs": [
        {
          "internalType": "address",
          "name": "owner",
          "type": "address"
        }
      ],
      "name": "balanceOf",
      "outputs": [
        {
          "internalType": "uint256",
          "name": "",
          "type": "uint256"
        }
      ],
      "stateMutability": "view",
      "type": "function"
    },
    {
      "inputs": [
        {
          "internalType": "uint256",
          "name": "_tokenId",
          "type": "uint256"
        }
      ],
      "name": "ownerOf",
      "outputs": [
        {
          "internalType": "address",
          "name": "",
          "type": "address"
        }
      ],
      "stateMutability": "view",
      "type": "function"
    }
  ],
  "bytecode": "0x608060405234801561001057600080fd5b506100407f01ffc9a7a5cef8baa21ed3c5c0d7e23accb804b619e9333b597f47a0d84076e26100b860201b60201c565b6100b37f22c82707ba960a14c7592ffb6b8cfaa073fed0048a84cc7fa41f6b5bd8e7f2e47f3badcb5a85b80057802393c7c7dceb45dd1112972dd740244d4ce934995b91227f17e9ebaeee75627a247eb8aa75aa3ec44d7e3de40936ecd1d156c5fa582962b118186100b860201b60201c565b610224565b63ffffffff60e01b817bffffffffffffffffffffffffffffffffffffffffffffffffffffffff19161415610121576040517f08c379a0000000000000000000000000000000000000000000000000000000008152600401610118906101f3565b60405180910390fd5b6001600080837bffffffffffffffffffffffffffffffffffffffffffffffffffffffff19167bffffffffffffffffffffffffffffffffffffffffffffffffffffffff1916815260200190815260200160002060006101000a81548160ff02191690831515021790555050565b600061019a602183610213565b91507f4552524f52202d204552433136353a20496e76616c696420496e74657266616360008301527f65000000000000000000000000000000000000000000000000000000000000006020830152604082019050919050565b6000602082019050818103600083015261020c8161018d565b9050919050565b600082825260208201905092915050565b611072806102336000396000f3fe608060405234801561001057600080fd5b506004361061007d5760003560e01c806323b872dd1161005b57806323b872dd146100fe5780635464a4a61461011a5780636352211e1461013857806370a08231146101685761007d565b806301ffc9a714610082578063081812fc146100b2578063095ea7b3146100e2575b600080fd5b61009c60048036038101906100979190610a3b565b610198565b6040516100a99190610d88565b60405180910390f35b6100cc60048036038101906100c79190610a64565b6101ff565b6040516100d99190610d6d565b60405180910390f35b6100fc60048036038101906100f791906109ff565b61023c565b005b610118600480360381019061011391906109b0565b6103d8565b005b610122610431565b60405161012f9190610da3565b60405180910390f35b610152600480360381019061014d9190610a64565b610459565b60405161015f9190610d6d565b60405180910390f35b610182600480360381019061017d9190610987565b61050b565b60405161018f9190610e9e565b60405180910390f35b6000806000837bffffffffffffffffffffffffffffffffffffffffffffffffffffffff19167bffffffffffffffffffffffffffffffffffffffffffffffffffffffff1916815260200190815260200160002060009054906101000a900460ff169050919050565b60006003600083815260200190815260200160002060009054906101000a900473ffffffffffffffffffffffffffffffffffffffff169050919050565b600061024782610459565b90508073ffffffffffffffffffffffffffffffffffffffff168373ffffffffffffffffffffffffffffffffffffffff1614156102b8576040517f08c379a00000000000000000000000000000000000000000000000000000000081526004016102af90610dde565b60405180910390fd5b8073ffffffffffffffffffffffffffffffffffffffff163373ffffffffffffffffffffffffffffffffffffffff1614610326576040517f08c379a000000000000000000000000000000000000000000000000000000000815260040161031d90610e5e565b60405180910390fd5b826003600084815260200190815260200160002060006101000a81548173ffffffffffffffffffffffffffffffffffffffff021916908373ffffffffffffffffffffffffffffffffffffffff160217905550818373ffffffffffffffffffffffffffffffffffffffff168273ffffffffffffffffffffffffffffffffffffffff167f8c5be1e5ebec7d5bd14f71427d1e84f3dd0314c0f7b2291e5b200ac8c7c3b92560405160405180910390a4505050565b6103e233826105c3565b610421576040517f08c379a000000000000000000000000000000000000000000000000000000000815260040161041890610e7e565b60405180910390fd5b61042c838383610690565b505050565b60007f01ffc9a7a5cef8baa21ed3c5c0d7e23accb804b619e9333b597f47a0d84076e2905090565b6000806001600084815260200190815260200160002060009054906101000a900473ffffffffffffffffffffffffffffffffffffffff169050600073ffffffffffffffffffffffffffffffffffffffff168173ffffffffffffffffffffffffffffffffffffffff161415610502576040517f08c379a00000000000000000000000000000000000000000000000000000000081526004016104f990610dbe565b60405180910390fd5b80915050919050565b60008073ffffffffffffffffffffffffffffffffffffffff168273ffffffffffffffffffffffffffffffffffffffff16141561057c576040517f08c379a000000000000000000000000000000000000000000000000000000000815260040161057390610dbe565b60405180910390fd5b600260008373ffffffffffffffffffffffffffffffffffffffff1673ffffffffffffffffffffffffffffffffffffffff168152602001908152602001600020549050919050565b60006105ce826108d6565b61060d576040517f08c379a000000000000000000000000000000000000000000000000000000000815260040161060490610e1e565b60405180910390fd5b600061061883610459565b90508073ffffffffffffffffffffffffffffffffffffffff168473ffffffffffffffffffffffffffffffffffffffff16148061068757508373ffffffffffffffffffffffffffffffffffffffff1661066f846101ff565b73ffffffffffffffffffffffffffffffffffffffff16145b91505092915050565b600073ffffffffffffffffffffffffffffffffffffffff168273ffffffffffffffffffffffffffffffffffffffff161415610700576040517f08c379a00000000000000000000000000000000000000000000000000000000081526004016106f790610dfe565b60405180910390fd5b8273ffffffffffffffffffffffffffffffffffffffff1661072082610459565b73ffffffffffffffffffffffffffffffffffffffff1614610776576040517f08c379a000000000000000000000000000000000000000000000000000000000815260040161076d90610e3e565b60405180910390fd5b816001600083815260200190815260200160002060006101000a81548173ffffffffffffffffffffffffffffffffffffffff021916908373ffffffffffffffffffffffffffffffffffffffff1602179055506001600260008573ffffffffffffffffffffffffffffffffffffffff1673ffffffffffffffffffffffffffffffffffffffff16815260200190815260200160002060008282546108189190610f20565b925050819055506001600260008473ffffffffffffffffffffffffffffffffffffffff1673ffffffffffffffffffffffffffffffffffffffff168152602001908152602001600020600082825461086f9190610eca565b92505081905550808273ffffffffffffffffffffffffffffffffffffffff168473ffffffffffffffffffffffffffffffffffffffff167fddf252ad1be2c89b69c2b068fc378daa952ba7f163c4a11628f55a4df523b3ef60405160405180910390a4505050565b6000806001600084815260200190815260200160002060009054906101000a900473ffffffffffffffffffffffffffffffffffffffff169050600073ffffffffffffffffffffffffffffffffffffffff168173ffffffffffffffffffffffffffffffffffffffff161415915050919050565b60008135905061095781610ff7565b92915050565b60008135905061096c8161100e565b92915050565b60008135905061098181611025565b92915050565b60006020828403121561099957600080fd5b60006109a784828501610948565b91505092915050565b6000806000606084860312156109c557600080fd5b60006109d386828701610948565b93505060206109e486828701610948565b92505060406109f586828701610972565b9150509250925092565b60008060408385031215610a1257600080fd5b6000610a2085828601610948565b9250506020610a3185828601610972565b9150509250929050565b600060208284031215610a4d57600080fd5b6000610a5b8482850161095d565b91505092915050565b600060208284031215610a7657600080fd5b6000610a8484828501610972565b91505092915050565b610a9681610f54565b82525050565b610aa581610f66565b82525050565b610ab481610f72565b82525050565b6000610ac7602083610eb9565b91507f6f776e657220717565727920666f72206e6f6e2d65786974737420746f6b656e6000830152602082019050919050565b6000610b07602183610eb9565b91507f4552524f52202d20617070726f76616c20746f2063757272656e74206f776e6560008301527f72000000000000000000000000000000000000000000000000000000000000006020830152604082019050919050565b6000610b6d602c83610eb9565b91507f4552524f52202d204552433732313a207472616e7366657220746f207468652060008301527f7a65726f206164647265737300000000000000000000000000000000000000006020830152604082019050919050565b6000610bd3601c83610eb9565b91507f4552433732312c20746f6b656e20646f6573206e6f74206578697374000000006000830152602082019050919050565b6000610c13604483610eb9565b91507f4552524f52202d204552433732313a20547279696e6720746f207472616e736660008301527f6572206120746f6b656e20746865206164647265737320646f6573206e6f742060208301527f6f776e21000000000000000000000000000000000000000000000000000000006040830152606082019050919050565b6000610c9f602783610eb9565b91507f4552524f52202d2043757272656e742063616c6c6572206973206e6f7420746860008301527f65206f776e6572000000000000000000000000000000000000000000000000006020830152604082019050919050565b6000610d05604083610eb9565b91507f4552524f52202d204552433732313a20617070726f76652063616c6c6572206960008301527f73206e6f74206f776e6572206e6f7220617070726f76656420666f7220616c6c6020830152604082019050919050565b610d6781610fbe565b82525050565b6000602082019050610d826000830184610a8d565b92915050565b6000602082019050610d9d6000830184610a9c565b92915050565b6000602082019050610db86000830184610aab565b92915050565b60006020820190508181036000830152610dd781610aba565b9050919050565b60006020820190508181036000830152610df781610afa565b9050919050565b60006020820190508181036000830152610e1781610b60565b9050919050565b60006020820190508181036000830152610e3781610bc6565b9050919050565b60006020820190508181036000830152610e5781610c06565b9050919050565b60006020820190508181036000830152610e7781610c92565b9050919050565b60006020820190508181036000830152610e9781610cf8565b9050919050565b6000602082019050610eb36000830184610d5e565b92915050565b600082825260208201905092915050565b6000610ed582610fbe565b9150610ee083610fbe565b9250827fffffffffffffffffffffffffffffffffffffffffffffffffffffffffffffffff03821115610f1557610f14610fc8565b5b828201905092915050565b6000610f2b82610fbe565b9150610f3683610fbe565b925082821015610f4957610f48610fc8565b5b828203905092915050565b6000610f5f82610f9e565b9050919050565b60008115159050919050565b60007fffffffff0000000000000000000000000000000000000000000000000000000082169050919050565b600073ffffffffffffffffffffffffffffffffffffffff82169050919050565b6000819050919050565b7f4e487b7100000000000000000000000000000000000000000000000000000000600052601160045260246000fd5b61100081610f54565b811461100b57600080fd5b50565b61101781610f72565b811461102257600080fd5b50565b61102e81610fbe565b811461103957600080fd5b5056fea2646970667358221220a7b10d9ae6d03bc815d25881509f374c9b84758efeca76ff2b68dc4ad586c81764736f6c63430008000033",
  "immutableReferences": {},
  "source": "// SPDX-License-Identifier: MIT\npragma solidity >=0.8.0;\n\nimport './ERC165.sol';\nimport './interface/IERC721.sol';\n\ncontract ERC721 is ERC165, IERC721 {\n\n      // ID\n      mapping(uint256 => address) private _tokenOwner;\n      // NFT\n      mapping(address => uint256) private _OwnedTokensCount;\n      // ID\n      mapping(uint256 => address) private _tokenApprovals;\n\n      // \n      constructor() {\n            // \n            _registerInterface(bytes4(keccak256(\"balanceOf(bytea4)\")^keccak256(\"townerOf(bytes4)\")^keccak256(\"transferFrom(bytes4)\")));\n      }\n\n      function _mint(address to, uint256 tokenId) internal virtual {\n            require( to != address(0), 'ERC721: minting to the zero address');\n            require(!_exists(tokenId), 'ERC721, token aleady minted');\n\n            _tokenOwner[tokenId] = to;\n            _OwnedTokensCount[to] += 1;\n            \n            emit Transfer(address(0), to, tokenId);\n      }\n\n      // NFT()\n      function _transferFrom(address _from, address _to, uint256 _tokenId) internal {\n            require( _to != address(0), 'ERROR - ERC721: transfer to the zero address');\n            require(ownerOf(_tokenId) == _from, 'ERROR - ERC721: Trying to transfer a token the address does not own!');\n\n            _tokenOwner[_tokenId] = _to;\n            _OwnedTokensCount[_from] -= 1;\n            _OwnedTokensCount[_to] += 1;\n\n            emit Transfer(_from, _to, _tokenId);\n      }\n\n      function transferFrom(address _from, address _to, uint256 _tokenId) override public {\n            require(isApprovedOrOwner(msg.sender, _tokenId), 'ERROR - ERC721: approve caller is not owner nor approved for all');\n            _transferFrom(_from, _to, _tokenId);\n      }\n\n      function approve(address _to, uint256 _tokenId) public {\n            address owner = ownerOf(_tokenId);\n            require(_to != owner, 'ERROR - approval to current owner');\n            require(msg.sender == owner, 'ERROR - Current caller is not the owner');\n\n            _tokenApprovals[_tokenId] = _to;\n            emit Approval(owner, _to, _tokenId);\n      }\n\n      // NFT\n      function isApprovedOrOwner(address spender, uint256 tokenId) internal view returns(bool) {\n            require(_exists(tokenId), 'ERC721, token does not exist');\n            address owner = ownerOf(tokenId);\n            return (spender == owner || getApproved(tokenId) == spender);\n      }\n\n      // ID\n      function getApproved(uint256 tokenId) public view returns (address) {\n            return _tokenApprovals[tokenId];\n      }\n\n      function balanceOf(address owner) public override view returns(uint256) {\n            require( owner != address(0), 'owner query for non-exitst token');\n            return _OwnedTokensCount[owner];\n      }\n\n      function ownerOf(uint256 _tokenId) public override view returns (address) {\n            address owner = _tokenOwner[_tokenId];\n            require( owner != address(0), 'owner query for non-exitst token');\n            return owner;\n      }\n\n      function _exists(uint256 tokenId) internal view returns(bool) {\n            address owner = _tokenOwner[tokenId];\n            return owner != address(0);\n      }\n}",
  "sourcePath": "/Users/harukikondo/git/NFT-MarketplaceApp/src/contracts/ERC721.sol",
  "compiler": {
    "name": "solc",
    "version": "0.8.0+commit.c7dfd78e.Emscripten.clang"
  },
  "schemaVersion": "3.4.3",
  "updatedAt": "2022-04-23T07:46:36.310Z",
  "devdoc": {
    "kind": "dev",
    "methods": {},
    "version": 1
  },
  "userdoc": {
    "kind": "user",
    "methods": {},
    "version": 1
  }
}