{
  "contractName": "ERC721Connector",
  "abi": [
    {
      "inputs": [
        {
          "internalType": "string",
          "name": "name",
          "type": "string"
        },
        {
          "internalType": "string",
          "name": "symbol",
          "type": "string"
        }
      ],
      "stateMutability": "nonpayable",
      "type": "constructor"
    },
    {
      "anonymous": false,
      "inputs": [
        {
          "indexed": true,
          "internalType": "address",
          "name": "_owner",
          "type": "address"
        },
        {
          "indexed": true,
          "internalType": "address",
          "name": "_approved",
          "type": "address"
        },
        {
          "indexed": true,
          "internalType": "uint256",
          "name": "_tokenId",
          "type": "uint256"
        }
      ],
      "name": "Approval",
      "type": "event"
    },
    {
      "anonymous": false,
      "inputs": [
        {
          "indexed": true,
          "internalType": "address",
          "name": "_from",
          "type": "address"
        },
        {
          "indexed": true,
          "internalType": "address",
          "name": "_to",
          "type": "address"
        },
        {
          "indexed": true,
          "internalType": "uint256",
          "name": "_tokenId",
          "type": "uint256"
        }
      ],
      "name": "Transfer",
      "type": "event"
    },
    {
      "inputs": [
        {
          "internalType": "address",
          "name": "_to",
          "type": "address"
        },
        {
          "internalType": "uint256",
          "name": "_tokenId",
          "type": "uint256"
        }
      ],
      "name": "approve",
      "outputs": [],
      "stateMutability": "nonpayable",
      "type": "function"
    },
    {
      "inputs": [
        {
          "internalType": "address",
          "name": "owner",
          "type": "address"
        }
      ],
      "name": "balanceOf",
      "outputs": [
        {
          "internalType": "uint256",
          "name": "",
          "type": "uint256"
        }
      ],
      "stateMutability": "view",
      "type": "function"
    },
    {
      "inputs": [],
      "name": "calcFngerPrint",
      "outputs": [
        {
          "internalType": "bytes4",
          "name": "",
          "type": "bytes4"
        }
      ],
      "stateMutability": "view",
      "type": "function"
    },
    {
      "inputs": [
        {
          "internalType": "uint256",
          "name": "tokenId",
          "type": "uint256"
        }
      ],
      "name": "getApproved",
      "outputs": [
        {
          "internalType": "address",
          "name": "",
          "type": "address"
        }
      ],
      "stateMutability": "view",
      "type": "function"
    },
    {
      "inputs": [],
      "name": "name",
      "outputs": [
        {
          "internalType": "string",
          "name": "",
          "type": "string"
        }
      ],
      "stateMutability": "view",
      "type": "function"
    },
    {
      "inputs": [
        {
          "internalType": "uint256",
          "name": "_tokenId",
          "type": "uint256"
        }
      ],
      "name": "ownerOf",
      "outputs": [
        {
          "internalType": "address",
          "name": "",
          "type": "address"
        }
      ],
      "stateMutability": "view",
      "type": "function"
    },
    {
      "inputs": [
        {
          "internalType": "bytes4",
          "name": "interfaceId",
          "type": "bytes4"
        }
      ],
      "name": "supportsInterface",
      "outputs": [
        {
          "internalType": "bool",
          "name": "",
          "type": "bool"
        }
      ],
      "stateMutability": "view",
      "type": "function"
    },
    {
      "inputs": [],
      "name": "symbol",
      "outputs": [
        {
          "internalType": "string",
          "name": "",
          "type": "string"
        }
      ],
      "stateMutability": "view",
      "type": "function"
    },
    {
      "inputs": [
        {
          "internalType": "uint256",
          "name": "index",
          "type": "uint256"
        }
      ],
      "name": "tokenByIndex",
      "outputs": [
        {
          "internalType": "uint256",
          "name": "",
          "type": "uint256"
        }
      ],
      "stateMutability": "view",
      "type": "function"
    },
    {
      "inputs": [
        {
          "internalType": "address",
          "name": "owner",
          "type": "address"
        },
        {
          "internalType": "uint256",
          "name": "index",
          "type": "uint256"
        }
      ],
      "name": "tokenOfOwnerByIndex",
      "outputs": [
        {
          "internalType": "uint256",
          "name": "",
          "type": "uint256"
        }
      ],
      "stateMutability": "view",
      "type": "function"
    },
    {
      "inputs": [],
      "name": "totalSupply",
      "outputs": [
        {
          "internalType": "uint256",
          "name": "",
          "type": "uint256"
        }
      ],
      "stateMutability": "view",
      "type": "function"
    },
    {
      "inputs": [
        {
          "internalType": "address",
          "name": "_from",
          "type": "address"
        },
        {
          "internalType": "address",
          "name": "_to",
          "type": "address"
        },
        {
          "internalType": "uint256",
          "name": "_tokenId",
          "type": "uint256"
        }
      ],
      "name": "transferFrom",
      "outputs": [],
      "stateMutability": "nonpayable",
      "type": "function"
    }
  ],
  "bytecode": "0x60806040523480156200001157600080fd5b5060405162001abd38038062001abd8339818101604052810190620000379190620002a1565b81818160009080519060200190620000519291906200017f565b5080600190805190602001906200006a9291906200017f565b5050506200009e7f01ffc9a7a5cef8baa21ed3c5c0d7e23accb804b619e9333b597f47a0d84076e2620000a660201b60201c565b5050620004e0565b63ffffffff60e01b817bffffffffffffffffffffffffffffffffffffffffffffffffffffffff1916141562000112576040517f08c379a000000000000000000000000000000000000000000000000000000000815260040162000109906200037c565b60405180910390fd5b600160026000837bffffffffffffffffffffffffffffffffffffffffffffffffffffffff19167bffffffffffffffffffffffffffffffffffffffffffffffffffffffff1916815260200190815260200160002060006101000a81548160ff02191690831515021790555050565b8280546200018d906200044c565b90600052602060002090601f016020900481019282620001b15760008555620001fd565b82601f10620001cc57805160ff1916838001178555620001fd565b82800160010185558215620001fd579182015b82811115620001fc578251825591602001919060010190620001df565b5b5090506200020c919062000210565b5090565b5b808211156200022b57600081600090555060010162000211565b5090565b6000620002466200024084620003d2565b6200039e565b9050828152602081018484840111156200025f57600080fd5b6200026c84828562000416565b509392505050565b600082601f8301126200028657600080fd5b8151620002988482602086016200022f565b91505092915050565b60008060408385031215620002b557600080fd5b600083015167ffffffffffffffff811115620002d057600080fd5b620002de8582860162000274565b925050602083015167ffffffffffffffff811115620002fc57600080fd5b6200030a8582860162000274565b9150509250929050565b60006200032360218362000405565b91507f4552524f52202d204552433136353a20496e76616c696420496e74657266616360008301527f65000000000000000000000000000000000000000000000000000000000000006020830152604082019050919050565b60006020820190508181036000830152620003978162000314565b9050919050565b6000604051905081810181811067ffffffffffffffff82111715620003c857620003c7620004b1565b5b8060405250919050565b600067ffffffffffffffff821115620003f057620003ef620004b1565b5b601f19601f8301169050602081019050919050565b600082825260208201905092915050565b60005b838110156200043657808201518184015260208101905062000419565b8381111562000446576000848401525b50505050565b600060028204905060018216806200046557607f821691505b602082108114156200047c576200047b62000482565b5b50919050565b7f4e487b7100000000000000000000000000000000000000000000000000000000600052602260045260246000fd5b7f4e487b7100000000000000000000000000000000000000000000000000000000600052604160045260246000fd5b6115cd80620004f06000396000f3fe608060405234801561001057600080fd5b50600436106100b45760003560e01c80632f745c59116100715780632f745c591461018d5780634f6ccce7146101bd5780635464a4a6146101ed5780636352211e1461020b57806370a082311461023b57806395d89b411461026b576100b4565b806301ffc9a7146100b957806306fdde03146100e9578063081812fc14610107578063095ea7b31461013757806318160ddd1461015357806323b872dd14610171575b600080fd5b6100d360048036038101906100ce9190610dcb565b610289565b6040516100e091906111d1565b60405180910390f35b6100f16102f1565b6040516100fe9190611207565b60405180910390f35b610121600480360381019061011c9190610df4565b610383565b60405161012e91906111b6565b60405180910390f35b610151600480360381019061014c9190610d8f565b6103c0565b005b61015b61055c565b6040516101689190611349565b60405180910390f35b61018b60048036038101906101869190610d40565b610569565b005b6101a760048036038101906101a29190610d8f565b6105c2565b6040516101b49190611349565b60405180910390f35b6101d760048036038101906101d29190610df4565b610698565b6040516101e49190611349565b60405180910390f35b6101f561072f565b60405161020291906111ec565b60405180910390f35b61022560048036038101906102209190610df4565b610757565b60405161023291906111b6565b60405180910390f35b61025560048036038101906102509190610d17565b610809565b6040516102629190611349565b60405180910390f35b6102736108c1565b6040516102809190611207565b60405180910390f35b600060026000837bffffffffffffffffffffffffffffffffffffffffffffffffffffffff19167bffffffffffffffffffffffffffffffffffffffffffffffffffffffff1916815260200190815260200160002060009054906101000a900460ff169050919050565b606060008054610300906114b1565b80601f016020809104026020016040519081016040528092919081815260200182805461032c906114b1565b80156103795780601f1061034e57610100808354040283529160200191610379565b820191906000526020600020905b81548152906001019060200180831161035c57829003601f168201915b5050505050905090565b60006005600083815260200190815260200160002060009054906101000a900473ffffffffffffffffffffffffffffffffffffffff169050919050565b60006103cb82610757565b90508073ffffffffffffffffffffffffffffffffffffffff168373ffffffffffffffffffffffffffffffffffffffff16141561043c576040517f08c379a000000000000000000000000000000000000000000000000000000000815260040161043390611249565b60405180910390fd5b8073ffffffffffffffffffffffffffffffffffffffff163373ffffffffffffffffffffffffffffffffffffffff16146104aa576040517f08c379a00000000000000000000000000000000000000000000000000000000081526004016104a1906112c9565b60405180910390fd5b826005600084815260200190815260200160002060006101000a81548173ffffffffffffffffffffffffffffffffffffffff021916908373ffffffffffffffffffffffffffffffffffffffff160217905550818373ffffffffffffffffffffffffffffffffffffffff168273ffffffffffffffffffffffffffffffffffffffff167f8c5be1e5ebec7d5bd14f71427d1e84f3dd0314c0f7b2291e5b200ac8c7c3b92560405160405180910390a4505050565b6000600680549050905090565b6105733382610953565b6105b2576040517f08c379a00000000000000000000000000000000000000000000000000000000081526004016105a9906112e9565b60405180910390fd5b6105bd838383610a20565b505050565b60006105cd83610809565b821061060e576040517f08c379a000000000000000000000000000000000000000000000000000000000815260040161060590611309565b60405180910390fd5b600760008473ffffffffffffffffffffffffffffffffffffffff1673ffffffffffffffffffffffffffffffffffffffff1681526020019081526020016000208281548110610685577f4e487b7100000000000000000000000000000000000000000000000000000000600052603260045260246000fd5b9060005260206000200154905092915050565b60006106a261055c565b82106106e3576040517f08c379a00000000000000000000000000000000000000000000000000000000081526004016106da90611329565b60405180910390fd5b6006828154811061071d577f4e487b7100000000000000000000000000000000000000000000000000000000600052603260045260246000fd5b90600052602060002001549050919050565b60007f01ffc9a7a5cef8baa21ed3c5c0d7e23accb804b619e9333b597f47a0d84076e2905090565b6000806003600084815260200190815260200160002060009054906101000a900473ffffffffffffffffffffffffffffffffffffffff169050600073ffffffffffffffffffffffffffffffffffffffff168173ffffffffffffffffffffffffffffffffffffffff161415610800576040517f08c379a00000000000000000000000000000000000000000000000000000000081526004016107f790611229565b60405180910390fd5b80915050919050565b60008073ffffffffffffffffffffffffffffffffffffffff168273ffffffffffffffffffffffffffffffffffffffff16141561087a576040517f08c379a000000000000000000000000000000000000000000000000000000000815260040161087190611229565b60405180910390fd5b600460008373ffffffffffffffffffffffffffffffffffffffff1673ffffffffffffffffffffffffffffffffffffffff168152602001908152602001600020549050919050565b6060600180546108d0906114b1565b80601f01602080910402602001604051908101604052809291908181526020018280546108fc906114b1565b80156109495780601f1061091e57610100808354040283529160200191610949565b820191906000526020600020905b81548152906001019060200180831161092c57829003601f168201915b5050505050905090565b600061095e82610c66565b61099d576040517f08c379a000000000000000000000000000000000000000000000000000000000815260040161099490611289565b60405180910390fd5b60006109a883610757565b90508073ffffffffffffffffffffffffffffffffffffffff168473ffffffffffffffffffffffffffffffffffffffff161480610a1757508373ffffffffffffffffffffffffffffffffffffffff166109ff84610383565b73ffffffffffffffffffffffffffffffffffffffff16145b91505092915050565b600073ffffffffffffffffffffffffffffffffffffffff168273ffffffffffffffffffffffffffffffffffffffff161415610a90576040517f08c379a0000000000000000000000000000000000000000000000000000000008152600401610a8790611269565b60405180910390fd5b8273ffffffffffffffffffffffffffffffffffffffff16610ab082610757565b73ffffffffffffffffffffffffffffffffffffffff1614610b06576040517f08c379a0000000000000000000000000000000000000000000000000000000008152600401610afd906112a9565b60405180910390fd5b816003600083815260200190815260200160002060006101000a81548173ffffffffffffffffffffffffffffffffffffffff021916908373ffffffffffffffffffffffffffffffffffffffff1602179055506001600460008573ffffffffffffffffffffffffffffffffffffffff1673ffffffffffffffffffffffffffffffffffffffff1681526020019081526020016000206000828254610ba891906113d6565b925050819055506001600460008473ffffffffffffffffffffffffffffffffffffffff1673ffffffffffffffffffffffffffffffffffffffff1681526020019081526020016000206000828254610bff9190611380565b92505081905550808273ffffffffffffffffffffffffffffffffffffffff168473ffffffffffffffffffffffffffffffffffffffff167fddf252ad1be2c89b69c2b068fc378daa952ba7f163c4a11628f55a4df523b3ef60405160405180910390a4505050565b6000806003600084815260200190815260200160002060009054906101000a900473ffffffffffffffffffffffffffffffffffffffff169050600073ffffffffffffffffffffffffffffffffffffffff168173ffffffffffffffffffffffffffffffffffffffff161415915050919050565b600081359050610ce781611552565b92915050565b600081359050610cfc81611569565b92915050565b600081359050610d1181611580565b92915050565b600060208284031215610d2957600080fd5b6000610d3784828501610cd8565b91505092915050565b600080600060608486031215610d5557600080fd5b6000610d6386828701610cd8565b9350506020610d7486828701610cd8565b9250506040610d8586828701610d02565b9150509250925092565b60008060408385031215610da257600080fd5b6000610db085828601610cd8565b9250506020610dc185828601610d02565b9150509250929050565b600060208284031215610ddd57600080fd5b6000610deb84828501610ced565b91505092915050565b600060208284031215610e0657600080fd5b6000610e1484828501610d02565b91505092915050565b610e268161140a565b82525050565b610e358161141c565b82525050565b610e4481611428565b82525050565b6000610e5582611364565b610e5f818561136f565b9350610e6f81856020860161147e565b610e7881611541565b840191505092915050565b6000610e9060208361136f565b91507f6f776e657220717565727920666f72206e6f6e2d65786974737420746f6b656e6000830152602082019050919050565b6000610ed060218361136f565b91507f4552524f52202d20617070726f76616c20746f2063757272656e74206f776e6560008301527f72000000000000000000000000000000000000000000000000000000000000006020830152604082019050919050565b6000610f36602c8361136f565b91507f4552524f52202d204552433732313a207472616e7366657220746f207468652060008301527f7a65726f206164647265737300000000000000000000000000000000000000006020830152604082019050919050565b6000610f9c601c8361136f565b91507f4552433732312c20746f6b656e20646f6573206e6f74206578697374000000006000830152602082019050919050565b6000610fdc60448361136f565b91507f4552524f52202d204552433732313a20547279696e6720746f207472616e736660008301527f6572206120746f6b656e20746865206164647265737320646f6573206e6f742060208301527f6f776e21000000000000000000000000000000000000000000000000000000006040830152606082019050919050565b600061106860278361136f565b91507f4552524f52202d2043757272656e742063616c6c6572206973206e6f7420746860008301527f65206f776e6572000000000000000000000000000000000000000000000000006020830152604082019050919050565b60006110ce60408361136f565b91507f4552524f52202d204552433732313a20617070726f76652063616c6c6572206960008301527f73206e6f74206f776e6572206e6f7220617070726f76656420666f7220616c6c6020830152604082019050919050565b6000611134601c8361136f565b91507f6f776e657220696e646578206973206f7574206f6620626f756e6473000000006000830152602082019050919050565b6000611174601d8361136f565b91507f676c6f62616c20696e646578206973206f7574206f6620626f756e64730000006000830152602082019050919050565b6111b081611474565b82525050565b60006020820190506111cb6000830184610e1d565b92915050565b60006020820190506111e66000830184610e2c565b92915050565b60006020820190506112016000830184610e3b565b92915050565b600060208201905081810360008301526112218184610e4a565b905092915050565b6000602082019050818103600083015261124281610e83565b9050919050565b6000602082019050818103600083015261126281610ec3565b9050919050565b6000602082019050818103600083015261128281610f29565b9050919050565b600060208201905081810360008301526112a281610f8f565b9050919050565b600060208201905081810360008301526112c281610fcf565b9050919050565b600060208201905081810360008301526112e28161105b565b9050919050565b60006020820190508181036000830152611302816110c1565b9050919050565b6000602082019050818103600083015261132281611127565b9050919050565b6000602082019050818103600083015261134281611167565b9050919050565b600060208201905061135e60008301846111a7565b92915050565b600081519050919050565b600082825260208201905092915050565b600061138b82611474565b915061139683611474565b9250827fffffffffffffffffffffffffffffffffffffffffffffffffffffffffffffffff038211156113cb576113ca6114e3565b5b828201905092915050565b60006113e182611474565b91506113ec83611474565b9250828210156113ff576113fe6114e3565b5b828203905092915050565b600061141582611454565b9050919050565b60008115159050919050565b60007fffffffff0000000000000000000000000000000000000000000000000000000082169050919050565b600073ffffffffffffffffffffffffffffffffffffffff82169050919050565b6000819050919050565b60005b8381101561149c578082015181840152602081019050611481565b838111156114ab576000848401525b50505050565b600060028204905060018216806114c957607f821691505b602082108114156114dd576114dc611512565b5b50919050565b7f4e487b7100000000000000000000000000000000000000000000000000000000600052601160045260246000fd5b7f4e487b7100000000000000000000000000000000000000000000000000000000600052602260045260246000fd5b6000601f19601f8301169050919050565b61155b8161140a565b811461156657600080fd5b50565b61157281611428565b811461157d57600080fd5b50565b61158981611474565b811461159457600080fd5b5056fea264697066735822122070b49bfb553c07865795fe27e9ade55ba6d651d357aaeaee5fc5f2507e44ecc164736f6c63430008000033",
  "immutableReferences": {},
  "source": "// SPDX-License-Identifier: MIT\npragma solidity >=0.8.0;\n\nimport './ERC721Metadata.sol';\nimport './ERC721Enumerable.sol';\n\ncontract ERC721Connector is ERC721Metadata, ERC721Enumerable {\n\n      constructor (string memory name, string memory symbol) ERC721Metadata (name, symbol) {\n\n      }\n}",
  "sourcePath": "/Users/harukikondo/git/NFT-MarketplaceApp/src/contracts/ERC721Connector.sol",
  "compiler": {
    "name": "solc",
    "version": "0.8.0+commit.c7dfd78e.Emscripten.clang"
  },
  "schemaVersion": "3.4.3",
  "updatedAt": "2022-04-23T07:15:32.232Z",
  "devdoc": {
    "kind": "dev",
    "methods": {},
    "version": 1
  },
  "userdoc": {
    "kind": "user",
    "methods": {},
    "version": 1
  }
}