{
  "contractName": "ERC721Metadata",
  "abi": [
    {
      "inputs": [
        {
          "internalType": "string",
          "name": "named",
          "type": "string"
        },
        {
          "internalType": "string",
          "name": "symbolified",
          "type": "string"
        }
      ],
      "stateMutability": "nonpayable",
      "type": "constructor"
    },
    {
      "inputs": [],
      "name": "calcFngerPrint",
      "outputs": [
        {
          "internalType": "bytes4",
          "name": "",
          "type": "bytes4"
        }
      ],
      "stateMutability": "view",
      "type": "function"
    },
    {
      "inputs": [
        {
          "internalType": "bytes4",
          "name": "interfaceId",
          "type": "bytes4"
        }
      ],
      "name": "supportsInterface",
      "outputs": [
        {
          "internalType": "bool",
          "name": "",
          "type": "bool"
        }
      ],
      "stateMutability": "view",
      "type": "function"
    },
    {
      "inputs": [],
      "name": "name",
      "outputs": [
        {
          "internalType": "string",
          "name": "",
          "type": "string"
        }
      ],
      "stateMutability": "view",
      "type": "function"
    },
    {
      "inputs": [],
      "name": "symbol",
      "outputs": [
        {
          "internalType": "string",
          "name": "",
          "type": "string"
        }
      ],
      "stateMutability": "view",
      "type": "function"
    }
  ],
  "bytecode": "0x60806040523480156200001157600080fd5b50604051620009ff380380620009ff8339818101604052810190620000379190620002ef565b620000687f01ffc9a7a5cef8baa21ed3c5c0d7e23accb804b619e9333b597f47a0d84076e2620000f560201b60201c565b620000bb7f13b182f4c0e5b2efbac0efe6cf6d756c8b89f4b79c5707a043ed9ea740574ee97f7feaf19471f34a12a7eaf32d5f3090aa2260ea8624dc8a138e74e0bf0f62307618620000f560201b60201c565b8160019080519060200190620000d3929190620001cd565b508060029080519060200190620000ec929190620001cd565b5050506200052e565b63ffffffff60e01b817bffffffffffffffffffffffffffffffffffffffffffffffffffffffff1916141562000161576040517f08c379a00000000000000000000000000000000000000000000000000000000081526004016200015890620003ca565b60405180910390fd5b6001600080837bffffffffffffffffffffffffffffffffffffffffffffffffffffffff19167bffffffffffffffffffffffffffffffffffffffffffffffffffffffff1916815260200190815260200160002060006101000a81548160ff02191690831515021790555050565b828054620001db906200049a565b90600052602060002090601f016020900481019282620001ff57600085556200024b565b82601f106200021a57805160ff19168380011785556200024b565b828001600101855582156200024b579182015b828111156200024a5782518255916020019190600101906200022d565b5b5090506200025a91906200025e565b5090565b5b80821115620002795760008160009055506001016200025f565b5090565b6000620002946200028e8462000420565b620003ec565b905082815260208101848484011115620002ad57600080fd5b620002ba84828562000464565b509392505050565b600082601f830112620002d457600080fd5b8151620002e68482602086016200027d565b91505092915050565b600080604083850312156200030357600080fd5b600083015167ffffffffffffffff8111156200031e57600080fd5b6200032c85828601620002c2565b925050602083015167ffffffffffffffff8111156200034a57600080fd5b6200035885828601620002c2565b9150509250929050565b60006200037160218362000453565b91507f4552524f52202d204552433136353a20496e76616c696420496e74657266616360008301527f65000000000000000000000000000000000000000000000000000000000000006020830152604082019050919050565b60006020820190508181036000830152620003e58162000362565b9050919050565b6000604051905081810181811067ffffffffffffffff82111715620004165762000415620004ff565b5b8060405250919050565b600067ffffffffffffffff8211156200043e576200043d620004ff565b5b601f19601f8301169050602081019050919050565b600082825260208201905092915050565b60005b838110156200048457808201518184015260208101905062000467565b8381111562000494576000848401525b50505050565b60006002820490506001821680620004b357607f821691505b60208210811415620004ca57620004c9620004d0565b5b50919050565b7f4e487b7100000000000000000000000000000000000000000000000000000000600052602260045260246000fd5b7f4e487b7100000000000000000000000000000000000000000000000000000000600052604160045260246000fd5b6104c1806200053e6000396000f3fe608060405234801561001057600080fd5b506004361061004c5760003560e01c806301ffc9a71461005157806306fdde03146100815780635464a4a61461009f57806395d89b41146100bd575b600080fd5b61006b600480360381019061006691906102a3565b6100db565b6040516100789190610323565b60405180910390f35b610089610142565b6040516100969190610359565b60405180910390f35b6100a76101d4565b6040516100b4919061033e565b60405180910390f35b6100c56101fc565b6040516100d29190610359565b60405180910390f35b6000806000837bffffffffffffffffffffffffffffffffffffffffffffffffffffffff19167bffffffffffffffffffffffffffffffffffffffffffffffffffffffff1916815260200190815260200160002060009054906101000a900460ff169050919050565b60606001805461015190610402565b80601f016020809104026020016040519081016040528092919081815260200182805461017d90610402565b80156101ca5780601f1061019f576101008083540402835291602001916101ca565b820191906000526020600020905b8154815290600101906020018083116101ad57829003601f168201915b5050505050905090565b60007f01ffc9a7a5cef8baa21ed3c5c0d7e23accb804b619e9333b597f47a0d84076e2905090565b60606002805461020b90610402565b80601f016020809104026020016040519081016040528092919081815260200182805461023790610402565b80156102845780601f1061025957610100808354040283529160200191610284565b820191906000526020600020905b81548152906001019060200180831161026757829003601f168201915b5050505050905090565b60008135905061029d81610474565b92915050565b6000602082840312156102b557600080fd5b60006102c38482850161028e565b91505092915050565b6102d581610397565b82525050565b6102e4816103a3565b82525050565b60006102f58261037b565b6102ff8185610386565b935061030f8185602086016103cf565b61031881610463565b840191505092915050565b600060208201905061033860008301846102cc565b92915050565b600060208201905061035360008301846102db565b92915050565b6000602082019050818103600083015261037381846102ea565b905092915050565b600081519050919050565b600082825260208201905092915050565b60008115159050919050565b60007fffffffff0000000000000000000000000000000000000000000000000000000082169050919050565b60005b838110156103ed5780820151818401526020810190506103d2565b838111156103fc576000848401525b50505050565b6000600282049050600182168061041a57607f821691505b6020821081141561042e5761042d610434565b5b50919050565b7f4e487b7100000000000000000000000000000000000000000000000000000000600052602260045260246000fd5b6000601f19601f8301169050919050565b61047d816103a3565b811461048857600080fd5b5056fea264697066735822122058ec46c8e66865ae9d4cdaeff5e5a16d552fbe7aae3452c16145e39ab1e832a464736f6c63430008000033",
  "immutableReferences": {},
  "source": "// SPDX-License-Identifier: MIT\npragma solidity >=0.8.0;\n\nimport './interface/IERC721Metadata.sol';\nimport './ERC165.sol';\n\ncontract ERC721Metadata is IERC721Metadata, ERC165 {\n\n      string private _name;\n      string private _symbol;\n\n      constructor(string memory named, string memory symbolified) {\n            \n            _registerInterface(bytes4(keccak256(\"name(bytes4)\")^keccak256(\"symbol(bytes4)\")));\n\n            _name = named;\n            _symbol = symbolified;\n      }\n\n      function name() external override view returns (string memory) {\n            return _name;\n      }\n\n      function symbol() external override view returns (string memory) {\n            return _symbol;\n      }\n}",
  "sourcePath": "/Users/harukikondo/git/NFT-MarketplaceApp/src/contracts/ERC721Metadata.sol",
  "compiler": {
    "name": "solc",
    "version": "0.8.0+commit.c7dfd78e.Emscripten.clang"
  },
  "schemaVersion": "3.4.3",
  "updatedAt": "2022-04-23T07:46:36.321Z",
  "devdoc": {
    "kind": "dev",
    "methods": {},
    "version": 1
  },
  "userdoc": {
    "kind": "user",
    "methods": {},
    "version": 1
  }
}