{
  "contractName": "ERC721Enumerable",
  "abi": [
    {
      "anonymous": false,
      "inputs": [
        {
          "indexed": true,
          "internalType": "address",
          "name": "_owner",
          "type": "address"
        },
        {
          "indexed": true,
          "internalType": "address",
          "name": "_approved",
          "type": "address"
        },
        {
          "indexed": true,
          "internalType": "uint256",
          "name": "_tokenId",
          "type": "uint256"
        }
      ],
      "name": "Approval",
      "type": "event"
    },
    {
      "anonymous": false,
      "inputs": [
        {
          "indexed": true,
          "internalType": "address",
          "name": "_from",
          "type": "address"
        },
        {
          "indexed": true,
          "internalType": "address",
          "name": "_to",
          "type": "address"
        },
        {
          "indexed": true,
          "internalType": "uint256",
          "name": "_tokenId",
          "type": "uint256"
        }
      ],
      "name": "Transfer",
      "type": "event"
    },
    {
      "inputs": [
        {
          "internalType": "address",
          "name": "_to",
          "type": "address"
        },
        {
          "internalType": "uint256",
          "name": "_tokenId",
          "type": "uint256"
        }
      ],
      "name": "approve",
      "outputs": [],
      "stateMutability": "nonpayable",
      "type": "function"
    },
    {
      "inputs": [
        {
          "internalType": "address",
          "name": "owner",
          "type": "address"
        }
      ],
      "name": "balanceOf",
      "outputs": [
        {
          "internalType": "uint256",
          "name": "",
          "type": "uint256"
        }
      ],
      "stateMutability": "view",
      "type": "function"
    },
    {
      "inputs": [],
      "name": "calcFngerPrint",
      "outputs": [
        {
          "internalType": "bytes4",
          "name": "",
          "type": "bytes4"
        }
      ],
      "stateMutability": "view",
      "type": "function"
    },
    {
      "inputs": [
        {
          "internalType": "uint256",
          "name": "tokenId",
          "type": "uint256"
        }
      ],
      "name": "getApproved",
      "outputs": [
        {
          "internalType": "address",
          "name": "",
          "type": "address"
        }
      ],
      "stateMutability": "view",
      "type": "function"
    },
    {
      "inputs": [
        {
          "internalType": "uint256",
          "name": "_tokenId",
          "type": "uint256"
        }
      ],
      "name": "ownerOf",
      "outputs": [
        {
          "internalType": "address",
          "name": "",
          "type": "address"
        }
      ],
      "stateMutability": "view",
      "type": "function"
    },
    {
      "inputs": [
        {
          "internalType": "bytes4",
          "name": "interfaceId",
          "type": "bytes4"
        }
      ],
      "name": "supportsInterface",
      "outputs": [
        {
          "internalType": "bool",
          "name": "",
          "type": "bool"
        }
      ],
      "stateMutability": "view",
      "type": "function"
    },
    {
      "inputs": [
        {
          "internalType": "address",
          "name": "_from",
          "type": "address"
        },
        {
          "internalType": "address",
          "name": "_to",
          "type": "address"
        },
        {
          "internalType": "uint256",
          "name": "_tokenId",
          "type": "uint256"
        }
      ],
      "name": "transferFrom",
      "outputs": [],
      "stateMutability": "nonpayable",
      "type": "function"
    },
    {
      "inputs": [],
      "name": "totalSupply",
      "outputs": [
        {
          "internalType": "uint256",
          "name": "",
          "type": "uint256"
        }
      ],
      "stateMutability": "view",
      "type": "function"
    },
    {
      "inputs": [
        {
          "internalType": "uint256",
          "name": "index",
          "type": "uint256"
        }
      ],
      "name": "tokenByIndex",
      "outputs": [
        {
          "internalType": "uint256",
          "name": "",
          "type": "uint256"
        }
      ],
      "stateMutability": "view",
      "type": "function"
    },
    {
      "inputs": [
        {
          "internalType": "address",
          "name": "owner",
          "type": "address"
        },
        {
          "internalType": "uint256",
          "name": "index",
          "type": "uint256"
        }
      ],
      "name": "tokenOfOwnerByIndex",
      "outputs": [
        {
          "internalType": "uint256",
          "name": "",
          "type": "uint256"
        }
      ],
      "stateMutability": "view",
      "type": "function"
    }
  ],
  "bytecode": "0x608060405234801561001057600080fd5b506100407f01ffc9a7a5cef8baa21ed3c5c0d7e23accb804b619e9333b597f47a0d84076e261004560201b60201c565b6101b1565b63ffffffff60e01b817bffffffffffffffffffffffffffffffffffffffffffffffffffffffff191614156100ae576040517f08c379a00000000000000000000000000000000000000000000000000000000081526004016100a590610180565b60405180910390fd5b6001600080837bffffffffffffffffffffffffffffffffffffffffffffffffffffffff19167bffffffffffffffffffffffffffffffffffffffffffffffffffffffff1916815260200190815260200160002060006101000a81548160ff02191690831515021790555050565b60006101276021836101a0565b91507f4552524f52202d204552433136353a20496e76616c696420496e74657266616360008301527f65000000000000000000000000000000000000000000000000000000000000006020830152604082019050919050565b600060208201905081810360008301526101998161011a565b9050919050565b600082825260208201905092915050565b61134b806101c06000396000f3fe608060405234801561001057600080fd5b506004361061009e5760003560e01c80632f745c59116100665780632f745c59146101595780634f6ccce7146101895780635464a4a6146101b95780636352211e146101d757806370a08231146102075761009e565b806301ffc9a7146100a3578063081812fc146100d3578063095ea7b31461010357806318160ddd1461011f57806323b872dd1461013d575b600080fd5b6100bd60048036038101906100b89190610c54565b610237565b6040516100ca9190611021565b60405180910390f35b6100ed60048036038101906100e89190610c7d565b61029e565b6040516100fa9190611006565b60405180910390f35b61011d60048036038101906101189190610c18565b6102db565b005b610127610477565b6040516101349190611177565b60405180910390f35b61015760048036038101906101529190610bc9565b610484565b005b610173600480360381019061016e9190610c18565b6104dd565b6040516101809190611177565b60405180910390f35b6101a3600480360381019061019e9190610c7d565b6105b3565b6040516101b09190611177565b60405180910390f35b6101c161064a565b6040516101ce919061103c565b60405180910390f35b6101f160048036038101906101ec9190610c7d565b610672565b6040516101fe9190611006565b60405180910390f35b610221600480360381019061021c9190610ba0565b610724565b60405161022e9190611177565b60405180910390f35b6000806000837bffffffffffffffffffffffffffffffffffffffffffffffffffffffff19167bffffffffffffffffffffffffffffffffffffffffffffffffffffffff1916815260200190815260200160002060009054906101000a900460ff169050919050565b60006003600083815260200190815260200160002060009054906101000a900473ffffffffffffffffffffffffffffffffffffffff169050919050565b60006102e682610672565b90508073ffffffffffffffffffffffffffffffffffffffff168373ffffffffffffffffffffffffffffffffffffffff161415610357576040517f08c379a000000000000000000000000000000000000000000000000000000000815260040161034e90611077565b60405180910390fd5b8073ffffffffffffffffffffffffffffffffffffffff163373ffffffffffffffffffffffffffffffffffffffff16146103c5576040517f08c379a00000000000000000000000000000000000000000000000000000000081526004016103bc906110f7565b60405180910390fd5b826003600084815260200190815260200160002060006101000a81548173ffffffffffffffffffffffffffffffffffffffff021916908373ffffffffffffffffffffffffffffffffffffffff160217905550818373ffffffffffffffffffffffffffffffffffffffff168273ffffffffffffffffffffffffffffffffffffffff167f8c5be1e5ebec7d5bd14f71427d1e84f3dd0314c0f7b2291e5b200ac8c7c3b92560405160405180910390a4505050565b6000600480549050905090565b61048e33826107dc565b6104cd576040517f08c379a00000000000000000000000000000000000000000000000000000000081526004016104c490611117565b60405180910390fd5b6104d88383836108a9565b505050565b60006104e883610724565b8210610529576040517f08c379a000000000000000000000000000000000000000000000000000000000815260040161052090611137565b60405180910390fd5b600560008473ffffffffffffffffffffffffffffffffffffffff1673ffffffffffffffffffffffffffffffffffffffff16815260200190815260200160002082815481106105a0577f4e487b7100000000000000000000000000000000000000000000000000000000600052603260045260246000fd5b9060005260206000200154905092915050565b60006105bd610477565b82106105fe576040517f08c379a00000000000000000000000000000000000000000000000000000000081526004016105f590611157565b60405180910390fd5b60048281548110610638577f4e487b7100000000000000000000000000000000000000000000000000000000600052603260045260246000fd5b90600052602060002001549050919050565b60007f01ffc9a7a5cef8baa21ed3c5c0d7e23accb804b619e9333b597f47a0d84076e2905090565b6000806001600084815260200190815260200160002060009054906101000a900473ffffffffffffffffffffffffffffffffffffffff169050600073ffffffffffffffffffffffffffffffffffffffff168173ffffffffffffffffffffffffffffffffffffffff16141561071b576040517f08c379a000000000000000000000000000000000000000000000000000000000815260040161071290611057565b60405180910390fd5b80915050919050565b60008073ffffffffffffffffffffffffffffffffffffffff168273ffffffffffffffffffffffffffffffffffffffff161415610795576040517f08c379a000000000000000000000000000000000000000000000000000000000815260040161078c90611057565b60405180910390fd5b600260008373ffffffffffffffffffffffffffffffffffffffff1673ffffffffffffffffffffffffffffffffffffffff168152602001908152602001600020549050919050565b60006107e782610aef565b610826576040517f08c379a000000000000000000000000000000000000000000000000000000000815260040161081d906110b7565b60405180910390fd5b600061083183610672565b90508073ffffffffffffffffffffffffffffffffffffffff168473ffffffffffffffffffffffffffffffffffffffff1614806108a057508373ffffffffffffffffffffffffffffffffffffffff166108888461029e565b73ffffffffffffffffffffffffffffffffffffffff16145b91505092915050565b600073ffffffffffffffffffffffffffffffffffffffff168273ffffffffffffffffffffffffffffffffffffffff161415610919576040517f08c379a000000000000000000000000000000000000000000000000000000000815260040161091090611097565b60405180910390fd5b8273ffffffffffffffffffffffffffffffffffffffff1661093982610672565b73ffffffffffffffffffffffffffffffffffffffff161461098f576040517f08c379a0000000000000000000000000000000000000000000000000000000008152600401610986906110d7565b60405180910390fd5b816001600083815260200190815260200160002060006101000a81548173ffffffffffffffffffffffffffffffffffffffff021916908373ffffffffffffffffffffffffffffffffffffffff1602179055506001600260008573ffffffffffffffffffffffffffffffffffffffff1673ffffffffffffffffffffffffffffffffffffffff1681526020019081526020016000206000828254610a3191906111f9565b925050819055506001600260008473ffffffffffffffffffffffffffffffffffffffff1673ffffffffffffffffffffffffffffffffffffffff1681526020019081526020016000206000828254610a8891906111a3565b92505081905550808273ffffffffffffffffffffffffffffffffffffffff168473ffffffffffffffffffffffffffffffffffffffff167fddf252ad1be2c89b69c2b068fc378daa952ba7f163c4a11628f55a4df523b3ef60405160405180910390a4505050565b6000806001600084815260200190815260200160002060009054906101000a900473ffffffffffffffffffffffffffffffffffffffff169050600073ffffffffffffffffffffffffffffffffffffffff168173ffffffffffffffffffffffffffffffffffffffff161415915050919050565b600081359050610b70816112d0565b92915050565b600081359050610b85816112e7565b92915050565b600081359050610b9a816112fe565b92915050565b600060208284031215610bb257600080fd5b6000610bc084828501610b61565b91505092915050565b600080600060608486031215610bde57600080fd5b6000610bec86828701610b61565b9350506020610bfd86828701610b61565b9250506040610c0e86828701610b8b565b9150509250925092565b60008060408385031215610c2b57600080fd5b6000610c3985828601610b61565b9250506020610c4a85828601610b8b565b9150509250929050565b600060208284031215610c6657600080fd5b6000610c7484828501610b76565b91505092915050565b600060208284031215610c8f57600080fd5b6000610c9d84828501610b8b565b91505092915050565b610caf8161122d565b82525050565b610cbe8161123f565b82525050565b610ccd8161124b565b82525050565b6000610ce0602083611192565b91507f6f776e657220717565727920666f72206e6f6e2d65786974737420746f6b656e6000830152602082019050919050565b6000610d20602183611192565b91507f4552524f52202d20617070726f76616c20746f2063757272656e74206f776e6560008301527f72000000000000000000000000000000000000000000000000000000000000006020830152604082019050919050565b6000610d86602c83611192565b91507f4552524f52202d204552433732313a207472616e7366657220746f207468652060008301527f7a65726f206164647265737300000000000000000000000000000000000000006020830152604082019050919050565b6000610dec601c83611192565b91507f4552433732312c20746f6b656e20646f6573206e6f74206578697374000000006000830152602082019050919050565b6000610e2c604483611192565b91507f4552524f52202d204552433732313a20547279696e6720746f207472616e736660008301527f6572206120746f6b656e20746865206164647265737320646f6573206e6f742060208301527f6f776e21000000000000000000000000000000000000000000000000000000006040830152606082019050919050565b6000610eb8602783611192565b91507f4552524f52202d2043757272656e742063616c6c6572206973206e6f7420746860008301527f65206f776e6572000000000000000000000000000000000000000000000000006020830152604082019050919050565b6000610f1e604083611192565b91507f4552524f52202d204552433732313a20617070726f76652063616c6c6572206960008301527f73206e6f74206f776e6572206e6f7220617070726f76656420666f7220616c6c6020830152604082019050919050565b6000610f84601c83611192565b91507f6f776e657220696e646578206973206f7574206f6620626f756e6473000000006000830152602082019050919050565b6000610fc4601d83611192565b91507f676c6f62616c20696e646578206973206f7574206f6620626f756e64730000006000830152602082019050919050565b61100081611297565b82525050565b600060208201905061101b6000830184610ca6565b92915050565b60006020820190506110366000830184610cb5565b92915050565b60006020820190506110516000830184610cc4565b92915050565b6000602082019050818103600083015261107081610cd3565b9050919050565b6000602082019050818103600083015261109081610d13565b9050919050565b600060208201905081810360008301526110b081610d79565b9050919050565b600060208201905081810360008301526110d081610ddf565b9050919050565b600060208201905081810360008301526110f081610e1f565b9050919050565b6000602082019050818103600083015261111081610eab565b9050919050565b6000602082019050818103600083015261113081610f11565b9050919050565b6000602082019050818103600083015261115081610f77565b9050919050565b6000602082019050818103600083015261117081610fb7565b9050919050565b600060208201905061118c6000830184610ff7565b92915050565b600082825260208201905092915050565b60006111ae82611297565b91506111b983611297565b9250827fffffffffffffffffffffffffffffffffffffffffffffffffffffffffffffffff038211156111ee576111ed6112a1565b5b828201905092915050565b600061120482611297565b915061120f83611297565b925082821015611222576112216112a1565b5b828203905092915050565b600061123882611277565b9050919050565b60008115159050919050565b60007fffffffff0000000000000000000000000000000000000000000000000000000082169050919050565b600073ffffffffffffffffffffffffffffffffffffffff82169050919050565b6000819050919050565b7f4e487b7100000000000000000000000000000000000000000000000000000000600052601160045260246000fd5b6112d98161122d565b81146112e457600080fd5b50565b6112f08161124b565b81146112fb57600080fd5b50565b61130781611297565b811461131257600080fd5b5056fea2646970667358221220497a4fee8ad3e5155178b6b3a01be76dfb1484ad72c7b6a4eb998c4ba2f2609264736f6c63430008000033",
  "immutableReferences": {},
  "source": "// SPDX-License-Identifier: MIT\npragma solidity >=0.8.0;\n\nimport './ERC721.sol';\nimport './interface/IERC721Enumerable.sol';\n\ncontract ERC721Enumerable is ERC721, IERC721Enumerable {\n      \n      uint256[] private _allTokens;\n\n      mapping(address => uint256[]) private _ownedTokens;\n      mapping(uint256 => uint256) private _ownedTokensIndex;\n      mapping(uint256 => uint256) private _allTokensIndex;\n\n      function totalSupply() public override view returns (uint256) {\n            return _allTokens.length;\n      }\n\n      function tokenByIndex(uint256 index) public override view returns (uint256) {\n            require(index < totalSupply(), 'global index is out of bounds');\n            return _allTokens[index];\n      }\n\n      function tokenOfOwnerByIndex(address owner, uint256 index) public override view returns (uint256) {\n            require(index < balanceOf(owner), 'owner index is out of bounds');\n            return _ownedTokens[owner][index];\n      }\n\n      function _mint(address to, uint256 tokenId) internal override(ERC721) {\n            // _mint\n            super._mint(to, tokenId);\n            // \n            _addTokensToAllTokenEnumeration(tokenId);\n            _addTokensToOwnerEnumeration(to, tokenId);\n      }\n\n      function _addTokensToAllTokenEnumeration(uint256 tokenId) private {\n            _allTokensIndex[tokenId] = _allTokens.length;\n            _allTokens.push(tokenId);\n      }\n\n      function _addTokensToOwnerEnumeration(address to, uint256 tokenId) private {\n            // NFT\n            _ownedTokensIndex[tokenId] = _ownedTokens[to].length;\n            _ownedTokens[to].push(tokenId);\n      }\n}",
  "sourcePath": "/Users/harukikondo/git/NFT-MarketplaceApp/src/contracts/ERC721Enumerable.sol",
  "compiler": {
    "name": "solc",
    "version": "0.8.0+commit.c7dfd78e.Emscripten.clang"
  },
  "schemaVersion": "3.4.3",
  "updatedAt": "2022-04-23T07:24:48.941Z",
  "devdoc": {
    "kind": "dev",
    "methods": {},
    "version": 1
  },
  "userdoc": {
    "kind": "user",
    "methods": {},
    "version": 1
  }
}