{
  "contractName": "Kryptobirdz",
  "abi": [
    {
      "inputs": [],
      "stateMutability": "nonpayable",
      "type": "constructor"
    },
    {
      "anonymous": false,
      "inputs": [
        {
          "indexed": true,
          "internalType": "address",
          "name": "_owner",
          "type": "address"
        },
        {
          "indexed": true,
          "internalType": "address",
          "name": "_approved",
          "type": "address"
        },
        {
          "indexed": true,
          "internalType": "uint256",
          "name": "_tokenId",
          "type": "uint256"
        }
      ],
      "name": "Approval",
      "type": "event"
    },
    {
      "anonymous": false,
      "inputs": [
        {
          "indexed": true,
          "internalType": "address",
          "name": "_from",
          "type": "address"
        },
        {
          "indexed": true,
          "internalType": "address",
          "name": "_to",
          "type": "address"
        },
        {
          "indexed": true,
          "internalType": "uint256",
          "name": "_tokenId",
          "type": "uint256"
        }
      ],
      "name": "Transfer",
      "type": "event"
    },
    {
      "inputs": [
        {
          "internalType": "uint256",
          "name": "",
          "type": "uint256"
        }
      ],
      "name": "KryptoBirdz",
      "outputs": [
        {
          "internalType": "string",
          "name": "",
          "type": "string"
        }
      ],
      "stateMutability": "view",
      "type": "function",
      "constant": true
    },
    {
      "inputs": [
        {
          "internalType": "address",
          "name": "_to",
          "type": "address"
        },
        {
          "internalType": "uint256",
          "name": "_tokenId",
          "type": "uint256"
        }
      ],
      "name": "approve",
      "outputs": [],
      "stateMutability": "nonpayable",
      "type": "function"
    },
    {
      "inputs": [
        {
          "internalType": "address",
          "name": "owner",
          "type": "address"
        }
      ],
      "name": "balanceOf",
      "outputs": [
        {
          "internalType": "uint256",
          "name": "",
          "type": "uint256"
        }
      ],
      "stateMutability": "view",
      "type": "function",
      "constant": true
    },
    {
      "inputs": [],
      "name": "calcFngerPrint",
      "outputs": [
        {
          "internalType": "bytes4",
          "name": "",
          "type": "bytes4"
        }
      ],
      "stateMutability": "view",
      "type": "function",
      "constant": true
    },
    {
      "inputs": [
        {
          "internalType": "uint256",
          "name": "tokenId",
          "type": "uint256"
        }
      ],
      "name": "getApproved",
      "outputs": [
        {
          "internalType": "address",
          "name": "",
          "type": "address"
        }
      ],
      "stateMutability": "view",
      "type": "function",
      "constant": true
    },
    {
      "inputs": [],
      "name": "name",
      "outputs": [
        {
          "internalType": "string",
          "name": "",
          "type": "string"
        }
      ],
      "stateMutability": "view",
      "type": "function",
      "constant": true
    },
    {
      "inputs": [
        {
          "internalType": "uint256",
          "name": "_tokenId",
          "type": "uint256"
        }
      ],
      "name": "ownerOf",
      "outputs": [
        {
          "internalType": "address",
          "name": "",
          "type": "address"
        }
      ],
      "stateMutability": "view",
      "type": "function",
      "constant": true
    },
    {
      "inputs": [
        {
          "internalType": "bytes4",
          "name": "interfaceId",
          "type": "bytes4"
        }
      ],
      "name": "supportsInterface",
      "outputs": [
        {
          "internalType": "bool",
          "name": "",
          "type": "bool"
        }
      ],
      "stateMutability": "view",
      "type": "function",
      "constant": true
    },
    {
      "inputs": [],
      "name": "symbol",
      "outputs": [
        {
          "internalType": "string",
          "name": "",
          "type": "string"
        }
      ],
      "stateMutability": "view",
      "type": "function",
      "constant": true
    },
    {
      "inputs": [
        {
          "internalType": "uint256",
          "name": "index",
          "type": "uint256"
        }
      ],
      "name": "tokenByIndex",
      "outputs": [
        {
          "internalType": "uint256",
          "name": "",
          "type": "uint256"
        }
      ],
      "stateMutability": "view",
      "type": "function",
      "constant": true
    },
    {
      "inputs": [
        {
          "internalType": "address",
          "name": "owner",
          "type": "address"
        },
        {
          "internalType": "uint256",
          "name": "index",
          "type": "uint256"
        }
      ],
      "name": "tokenOfOwnerByIndex",
      "outputs": [
        {
          "internalType": "uint256",
          "name": "",
          "type": "uint256"
        }
      ],
      "stateMutability": "view",
      "type": "function",
      "constant": true
    },
    {
      "inputs": [],
      "name": "totalSupply",
      "outputs": [
        {
          "internalType": "uint256",
          "name": "",
          "type": "uint256"
        }
      ],
      "stateMutability": "view",
      "type": "function",
      "constant": true
    },
    {
      "inputs": [
        {
          "internalType": "address",
          "name": "_from",
          "type": "address"
        },
        {
          "internalType": "address",
          "name": "_to",
          "type": "address"
        },
        {
          "internalType": "uint256",
          "name": "_tokenId",
          "type": "uint256"
        }
      ],
      "name": "transferFrom",
      "outputs": [],
      "stateMutability": "nonpayable",
      "type": "function"
    },
    {
      "inputs": [
        {
          "internalType": "string",
          "name": "_kryptoBird",
          "type": "string"
        }
      ],
      "name": "mint",
      "outputs": [],
      "stateMutability": "nonpayable",
      "type": "function"
    }
  ],
  "bytecode": "0x60806040523480156200001157600080fd5b506040518060400160405280600a81526020017f4b727970746f42697264000000000000000000000000000000000000000000008152506040518060400160405280600681526020017f4b424952445a00000000000000000000000000000000000000000000000000008152508181816000908051906020019062000098929190620001c6565b508060019080519060200190620000b1929190620001c6565b505050620000e57f01ffc9a7a5cef8baa21ed3c5c0d7e23accb804b619e9333b597f47a0d84076e2620000ed60201b60201c565b505062000376565b63ffffffff60e01b817bffffffffffffffffffffffffffffffffffffffffffffffffffffffff1916141562000159576040517f08c379a00000000000000000000000000000000000000000000000000000000081526004016200015090620002de565b60405180910390fd5b600160026000837bffffffffffffffffffffffffffffffffffffffffffffffffffffffff19167bffffffffffffffffffffffffffffffffffffffffffffffffffffffff1916815260200190815260200160002060006101000a81548160ff02191690831515021790555050565b828054620001d49062000311565b90600052602060002090601f016020900481019282620001f8576000855562000244565b82601f106200021357805160ff191683800117855562000244565b8280016001018555821562000244579182015b828111156200024357825182559160200191906001019062000226565b5b50905062000253919062000257565b5090565b5b808211156200027257600081600090555060010162000258565b5090565b60006200028560218362000300565b91507f4552524f52202d204552433136353a20496e76616c696420496e74657266616360008301527f65000000000000000000000000000000000000000000000000000000000000006020830152604082019050919050565b60006020820190508181036000830152620002f98162000276565b9050919050565b600082825260208201905092915050565b600060028204905060018216806200032a57607f821691505b6020821081141562000341576200034062000347565b5b50919050565b7f4e487b7100000000000000000000000000000000000000000000000000000000600052602260045260246000fd5b611e9880620003866000396000f3fe608060405234801561001057600080fd5b50600436106100ea5760003560e01c80634f6ccce71161008c57806370a082311161006657806370a082311461027157806395d89b41146102a1578063a3a1ff58146102bf578063d85d3d27146102ef576100ea565b80634f6ccce7146101f35780635464a4a6146102235780636352211e14610241576100ea565b8063095ea7b3116100c8578063095ea7b31461016d57806318160ddd1461018957806323b872dd146101a75780632f745c59146101c3576100ea565b806301ffc9a7146100ef57806306fdde031461011f578063081812fc1461013d575b600080fd5b610109600480360381019061010491906113f7565b61030b565b6040516101169190611992565b60405180910390f35b610127610373565b60405161013491906119c8565b60405180910390f35b61015760048036038101906101529190611461565b610405565b6040516101649190611977565b60405180910390f35b610187600480360381019061018291906113bb565b610442565b005b6101916105de565b60405161019e9190611b6a565b60405180910390f35b6101c160048036038101906101bc919061136c565b6105eb565b005b6101dd60048036038101906101d891906113bb565b610644565b6040516101ea9190611b6a565b60405180910390f35b61020d60048036038101906102089190611461565b61071a565b60405161021a9190611b6a565b60405180910390f35b61022b6107b1565b60405161023891906119ad565b60405180910390f35b61025b60048036038101906102569190611461565b6107d9565b6040516102689190611977565b60405180910390f35b61028b60048036038101906102869190611343565b61088b565b6040516102989190611b6a565b60405180910390f35b6102a9610943565b6040516102b691906119c8565b60405180910390f35b6102d960048036038101906102d49190611461565b6109d5565b6040516102e691906119c8565b60405180910390f35b61030960048036038101906103049190611420565b610a81565b005b600060026000837bffffffffffffffffffffffffffffffffffffffffffffffffffffffff19167bffffffffffffffffffffffffffffffffffffffffffffffffffffffff1916815260200190815260200160002060009054906101000a900460ff169050919050565b60606000805461038290611d4d565b80601f01602080910402602001604051908101604052809291908181526020018280546103ae90611d4d565b80156103fb5780601f106103d0576101008083540402835291602001916103fb565b820191906000526020600020905b8154815290600101906020018083116103de57829003601f168201915b5050505050905090565b60006005600083815260200190815260200160002060009054906101000a900473ffffffffffffffffffffffffffffffffffffffff169050919050565b600061044d826107d9565b90508073ffffffffffffffffffffffffffffffffffffffff168373ffffffffffffffffffffffffffffffffffffffff1614156104be576040517f08c379a00000000000000000000000000000000000000000000000000000000081526004016104b590611a0a565b60405180910390fd5b8073ffffffffffffffffffffffffffffffffffffffff163373ffffffffffffffffffffffffffffffffffffffff161461052c576040517f08c379a000000000000000000000000000000000000000000000000000000000815260040161052390611aca565b60405180910390fd5b826005600084815260200190815260200160002060006101000a81548173ffffffffffffffffffffffffffffffffffffffff021916908373ffffffffffffffffffffffffffffffffffffffff160217905550818373ffffffffffffffffffffffffffffffffffffffff168273ffffffffffffffffffffffffffffffffffffffff167f8c5be1e5ebec7d5bd14f71427d1e84f3dd0314c0f7b2291e5b200ac8c7c3b92560405160405180910390a4505050565b6000600680549050905090565b6105f53382610b84565b610634576040517f08c379a000000000000000000000000000000000000000000000000000000000815260040161062b90611aea565b60405180910390fd5b61063f838383610c51565b505050565b600061064f8361088b565b8210610690576040517f08c379a000000000000000000000000000000000000000000000000000000000815260040161068790611b0a565b60405180910390fd5b600760008473ffffffffffffffffffffffffffffffffffffffff1673ffffffffffffffffffffffffffffffffffffffff1681526020019081526020016000208281548110610707577f4e487b7100000000000000000000000000000000000000000000000000000000600052603260045260246000fd5b9060005260206000200154905092915050565b60006107246105de565b8210610765576040517f08c379a000000000000000000000000000000000000000000000000000000000815260040161075c90611b2a565b60405180910390fd5b6006828154811061079f577f4e487b7100000000000000000000000000000000000000000000000000000000600052603260045260246000fd5b90600052602060002001549050919050565b60007f01ffc9a7a5cef8baa21ed3c5c0d7e23accb804b619e9333b597f47a0d84076e2905090565b6000806003600084815260200190815260200160002060009054906101000a900473ffffffffffffffffffffffffffffffffffffffff169050600073ffffffffffffffffffffffffffffffffffffffff168173ffffffffffffffffffffffffffffffffffffffff161415610882576040517f08c379a0000000000000000000000000000000000000000000000000000000008152600401610879906119ea565b60405180910390fd5b80915050919050565b60008073ffffffffffffffffffffffffffffffffffffffff168273ffffffffffffffffffffffffffffffffffffffff1614156108fc576040517f08c379a00000000000000000000000000000000000000000000000000000000081526004016108f3906119ea565b60405180910390fd5b600460008373ffffffffffffffffffffffffffffffffffffffff1673ffffffffffffffffffffffffffffffffffffffff168152602001908152602001600020549050919050565b60606001805461095290611d4d565b80601f016020809104026020016040519081016040528092919081815260200182805461097e90611d4d565b80156109cb5780601f106109a0576101008083540402835291602001916109cb565b820191906000526020600020905b8154815290600101906020018083116109ae57829003601f168201915b5050505050905090565b600a81815481106109e557600080fd5b906000526020600020016000915090508054610a0090611d4d565b80601f0160208091040260200160405190810160405280929190818152602001828054610a2c90611d4d565b8015610a795780601f10610a4e57610100808354040283529160200191610a79565b820191906000526020600020905b815481529060010190602001808311610a5c57829003601f168201915b505050505081565b600b81604051610a919190611960565b908152602001604051809103902060009054906101000a900460ff1615610aed576040517f08c379a0000000000000000000000000000000000000000000000000000000008152600401610ae490611a8a565b60405180910390fd5b600a81908060018154018082558091505060019003906000526020600020016000909190919091509080519060200190610b289291906111f9565b5060006001600a80549050610b3d9190611c63565b9050610b493382610e97565b6001600b83604051610b5b9190611960565b908152602001604051809103902060006101000a81548160ff0219169083151502179055505050565b6000610b8f82610eb8565b610bce576040517f08c379a0000000000000000000000000000000000000000000000000000000008152600401610bc590611a6a565b60405180910390fd5b6000610bd9836107d9565b90508073ffffffffffffffffffffffffffffffffffffffff168473ffffffffffffffffffffffffffffffffffffffff161480610c4857508373ffffffffffffffffffffffffffffffffffffffff16610c3084610405565b73ffffffffffffffffffffffffffffffffffffffff16145b91505092915050565b600073ffffffffffffffffffffffffffffffffffffffff168273ffffffffffffffffffffffffffffffffffffffff161415610cc1576040517f08c379a0000000000000000000000000000000000000000000000000000000008152600401610cb890611a4a565b60405180910390fd5b8273ffffffffffffffffffffffffffffffffffffffff16610ce1826107d9565b73ffffffffffffffffffffffffffffffffffffffff1614610d37576040517f08c379a0000000000000000000000000000000000000000000000000000000008152600401610d2e90611aaa565b60405180910390fd5b816003600083815260200190815260200160002060006101000a81548173ffffffffffffffffffffffffffffffffffffffff021916908373ffffffffffffffffffffffffffffffffffffffff1602179055506001600460008573ffffffffffffffffffffffffffffffffffffffff1673ffffffffffffffffffffffffffffffffffffffff1681526020019081526020016000206000828254610dd99190611c63565b925050819055506001600460008473ffffffffffffffffffffffffffffffffffffffff1673ffffffffffffffffffffffffffffffffffffffff1681526020019081526020016000206000828254610e309190611c0d565b92505081905550808273ffffffffffffffffffffffffffffffffffffffff168473ffffffffffffffffffffffffffffffffffffffff167fddf252ad1be2c89b69c2b068fc378daa952ba7f163c4a11628f55a4df523b3ef60405160405180910390a4505050565b610ea18282610f2a565b610eaa816110ec565b610eb48282611135565b5050565b6000806003600084815260200190815260200160002060009054906101000a900473ffffffffffffffffffffffffffffffffffffffff169050600073ffffffffffffffffffffffffffffffffffffffff168173ffffffffffffffffffffffffffffffffffffffff161415915050919050565b600073ffffffffffffffffffffffffffffffffffffffff168273ffffffffffffffffffffffffffffffffffffffff161415610f9a576040517f08c379a0000000000000000000000000000000000000000000000000000000008152600401610f9190611b4a565b60405180910390fd5b610fa381610eb8565b15610fe3576040517f08c379a0000000000000000000000000000000000000000000000000000000008152600401610fda90611a2a565b60405180910390fd5b816003600083815260200190815260200160002060006101000a81548173ffffffffffffffffffffffffffffffffffffffff021916908373ffffffffffffffffffffffffffffffffffffffff1602179055506001600460008473ffffffffffffffffffffffffffffffffffffffff1673ffffffffffffffffffffffffffffffffffffffff16815260200190815260200160002060008282546110859190611c0d565b92505081905550808273ffffffffffffffffffffffffffffffffffffffff16600073ffffffffffffffffffffffffffffffffffffffff167fddf252ad1be2c89b69c2b068fc378daa952ba7f163c4a11628f55a4df523b3ef60405160405180910390a45050565b6006805490506009600083815260200190815260200160002081905550600681908060018154018082558091505060019003906000526020600020016000909190919091505550565b600760008373ffffffffffffffffffffffffffffffffffffffff1673ffffffffffffffffffffffffffffffffffffffff168152602001908152602001600020805490506008600083815260200190815260200160002081905550600760008373ffffffffffffffffffffffffffffffffffffffff1673ffffffffffffffffffffffffffffffffffffffff1681526020019081526020016000208190806001815401808255809150506001900390600052602060002001600090919091909150555050565b82805461120590611d4d565b90600052602060002090601f016020900481019282611227576000855561126e565b82601f1061124057805160ff191683800117855561126e565b8280016001018555821561126e579182015b8281111561126d578251825591602001919060010190611252565b5b50905061127b919061127f565b5090565b5b80821115611298576000816000905550600101611280565b5090565b60006112af6112aa84611bb6565b611b85565b9050828152602081018484840111156112c757600080fd5b6112d2848285611d0b565b509392505050565b6000813590506112e981611e1d565b92915050565b6000813590506112fe81611e34565b92915050565b600082601f83011261131557600080fd5b813561132584826020860161129c565b91505092915050565b60008135905061133d81611e4b565b92915050565b60006020828403121561135557600080fd5b6000611363848285016112da565b91505092915050565b60008060006060848603121561138157600080fd5b600061138f868287016112da565b93505060206113a0868287016112da565b92505060406113b18682870161132e565b9150509250925092565b600080604083850312156113ce57600080fd5b60006113dc858286016112da565b92505060206113ed8582860161132e565b9150509250929050565b60006020828403121561140957600080fd5b6000611417848285016112ef565b91505092915050565b60006020828403121561143257600080fd5b600082013567ffffffffffffffff81111561144c57600080fd5b61145884828501611304565b91505092915050565b60006020828403121561147357600080fd5b60006114818482850161132e565b91505092915050565b61149381611c97565b82525050565b6114a281611ca9565b82525050565b6114b181611cb5565b82525050565b60006114c282611be6565b6114cc8185611bf1565b93506114dc818560208601611d1a565b6114e581611e0c565b840191505092915050565b60006114fb82611be6565b6115058185611c02565b9350611515818560208601611d1a565b80840191505092915050565b600061152e602083611bf1565b91507f6f776e657220717565727920666f72206e6f6e2d65786974737420746f6b656e6000830152602082019050919050565b600061156e602183611bf1565b91507f4552524f52202d20617070726f76616c20746f2063757272656e74206f776e6560008301527f72000000000000000000000000000000000000000000000000000000000000006020830152604082019050919050565b60006115d4601b83611bf1565b91507f4552433732312c20746f6b656e20616c65616479206d696e74656400000000006000830152602082019050919050565b6000611614602c83611bf1565b91507f4552524f52202d204552433732313a207472616e7366657220746f207468652060008301527f7a65726f206164647265737300000000000000000000000000000000000000006020830152604082019050919050565b600061167a601c83611bf1565b91507f4552433732312c20746f6b656e20646f6573206e6f74206578697374000000006000830152602082019050919050565b60006116ba602483611bf1565b91507f4552524f52202d206b727970746f426972642068617320616c6561647920657860008301527f69737473000000000000000000000000000000000000000000000000000000006020830152604082019050919050565b6000611720604483611bf1565b91507f4552524f52202d204552433732313a20547279696e6720746f207472616e736660008301527f6572206120746f6b656e20746865206164647265737320646f6573206e6f742060208301527f6f776e21000000000000000000000000000000000000000000000000000000006040830152606082019050919050565b60006117ac602783611bf1565b91507f4552524f52202d2043757272656e742063616c6c6572206973206e6f7420746860008301527f65206f776e6572000000000000000000000000000000000000000000000000006020830152604082019050919050565b6000611812604083611bf1565b91507f4552524f52202d204552433732313a20617070726f76652063616c6c6572206960008301527f73206e6f74206f776e6572206e6f7220617070726f76656420666f7220616c6c6020830152604082019050919050565b6000611878601c83611bf1565b91507f6f776e657220696e646578206973206f7574206f6620626f756e6473000000006000830152602082019050919050565b60006118b8601d83611bf1565b91507f676c6f62616c20696e646578206973206f7574206f6620626f756e64730000006000830152602082019050919050565b60006118f8602383611bf1565b91507f4552433732313a206d696e74696e6720746f20746865207a65726f206164647260008301527f65737300000000000000000000000000000000000000000000000000000000006020830152604082019050919050565b61195a81611d01565b82525050565b600061196c82846114f0565b915081905092915050565b600060208201905061198c600083018461148a565b92915050565b60006020820190506119a76000830184611499565b92915050565b60006020820190506119c260008301846114a8565b92915050565b600060208201905081810360008301526119e281846114b7565b905092915050565b60006020820190508181036000830152611a0381611521565b9050919050565b60006020820190508181036000830152611a2381611561565b9050919050565b60006020820190508181036000830152611a43816115c7565b9050919050565b60006020820190508181036000830152611a6381611607565b9050919050565b60006020820190508181036000830152611a838161166d565b9050919050565b60006020820190508181036000830152611aa3816116ad565b9050919050565b60006020820190508181036000830152611ac381611713565b9050919050565b60006020820190508181036000830152611ae38161179f565b9050919050565b60006020820190508181036000830152611b0381611805565b9050919050565b60006020820190508181036000830152611b238161186b565b9050919050565b60006020820190508181036000830152611b43816118ab565b9050919050565b60006020820190508181036000830152611b63816118eb565b9050919050565b6000602082019050611b7f6000830184611951565b92915050565b6000604051905081810181811067ffffffffffffffff82111715611bac57611bab611ddd565b5b8060405250919050565b600067ffffffffffffffff821115611bd157611bd0611ddd565b5b601f19601f8301169050602081019050919050565b600081519050919050565b600082825260208201905092915050565b600081905092915050565b6000611c1882611d01565b9150611c2383611d01565b9250827fffffffffffffffffffffffffffffffffffffffffffffffffffffffffffffffff03821115611c5857611c57611d7f565b5b828201905092915050565b6000611c6e82611d01565b9150611c7983611d01565b925082821015611c8c57611c8b611d7f565b5b828203905092915050565b6000611ca282611ce1565b9050919050565b60008115159050919050565b60007fffffffff0000000000000000000000000000000000000000000000000000000082169050919050565b600073ffffffffffffffffffffffffffffffffffffffff82169050919050565b6000819050919050565b82818337600083830152505050565b60005b83811015611d38578082015181840152602081019050611d1d565b83811115611d47576000848401525b50505050565b60006002820490506001821680611d6557607f821691505b60208210811415611d7957611d78611dae565b5b50919050565b7f4e487b7100000000000000000000000000000000000000000000000000000000600052601160045260246000fd5b7f4e487b7100000000000000000000000000000000000000000000000000000000600052602260045260246000fd5b7f4e487b7100000000000000000000000000000000000000000000000000000000600052604160045260246000fd5b6000601f19601f8301169050919050565b611e2681611c97565b8114611e3157600080fd5b50565b611e3d81611cb5565b8114611e4857600080fd5b50565b611e5481611d01565b8114611e5f57600080fd5b5056fea264697066735822122062203449e0e69cbf4bd0f31cfafe836474c040442599e34b8ed0a3243ae3f71b64736f6c63430008000033",
  "immutableReferences": {},
  "source": "// SPDX-License-Identifier: MIT\npragma solidity >=0.8.0;\n\nimport './ERC721Connector.sol';\n\ncontract Kryptobirdz is ERC721Connector {\n\n      // NFT\n      string[] public KryptoBirdz;\n\n      mapping(string => bool) _kryptoBirdzExists;\n\n      constructor() ERC721Connector('KryptoBird', 'KBIRDZ') {\n            \n      }\n\n      function mint(string memory _kryptoBird) public {\n            require(!_kryptoBirdzExists[_kryptoBird], 'ERROR - kryptoBird has aleady exists');\n\n            KryptoBirdz.push(_kryptoBird);\n            uint _id  = KryptoBirdz.length - 1;\n\n            _mint(msg.sender, _id);\n            _kryptoBirdzExists[_kryptoBird] = true;\n      }\n}",
  "sourcePath": "/Users/harukikondo/git/NFT-MarketplaceApp/src/contracts/KryptoBirdz.sol",
  "compiler": {
    "name": "solc",
    "version": "0.8.0+commit.c7dfd78e.Emscripten.clang"
  },
  "schemaVersion": "3.4.3",
  "updatedAt": "2022-04-23T07:15:46.497Z",
  "networkType": "ethereum",
  "devdoc": {
    "kind": "dev",
    "methods": {},
    "version": 1
  },
  "userdoc": {
    "kind": "user",
    "methods": {},
    "version": 1
  }
}