{
  "contractName": "Kryptobirdz",
  "abi": [
    {
      "inputs": [],
      "stateMutability": "nonpayable",
      "type": "constructor"
    },
    {
      "anonymous": false,
      "inputs": [
        {
          "indexed": true,
          "internalType": "address",
          "name": "_owner",
          "type": "address"
        },
        {
          "indexed": true,
          "internalType": "address",
          "name": "_approved",
          "type": "address"
        },
        {
          "indexed": true,
          "internalType": "uint256",
          "name": "_tokenId",
          "type": "uint256"
        }
      ],
      "name": "Approval",
      "type": "event"
    },
    {
      "anonymous": false,
      "inputs": [
        {
          "indexed": true,
          "internalType": "address",
          "name": "_from",
          "type": "address"
        },
        {
          "indexed": true,
          "internalType": "address",
          "name": "_to",
          "type": "address"
        },
        {
          "indexed": true,
          "internalType": "uint256",
          "name": "_tokenId",
          "type": "uint256"
        }
      ],
      "name": "Transfer",
      "type": "event"
    },
    {
      "inputs": [
        {
          "internalType": "uint256",
          "name": "",
          "type": "uint256"
        }
      ],
      "name": "KryptoBirdz",
      "outputs": [
        {
          "internalType": "string",
          "name": "",
          "type": "string"
        }
      ],
      "stateMutability": "view",
      "type": "function",
      "constant": true
    },
    {
      "inputs": [
        {
          "internalType": "address",
          "name": "_to",
          "type": "address"
        },
        {
          "internalType": "uint256",
          "name": "_tokenId",
          "type": "uint256"
        }
      ],
      "name": "approve",
      "outputs": [],
      "stateMutability": "nonpayable",
      "type": "function"
    },
    {
      "inputs": [
        {
          "internalType": "address",
          "name": "owner",
          "type": "address"
        }
      ],
      "name": "balanceOf",
      "outputs": [
        {
          "internalType": "uint256",
          "name": "",
          "type": "uint256"
        }
      ],
      "stateMutability": "view",
      "type": "function",
      "constant": true
    },
    {
      "inputs": [],
      "name": "calcFngerPrint",
      "outputs": [
        {
          "internalType": "bytes4",
          "name": "",
          "type": "bytes4"
        }
      ],
      "stateMutability": "view",
      "type": "function",
      "constant": true
    },
    {
      "inputs": [
        {
          "internalType": "uint256",
          "name": "tokenId",
          "type": "uint256"
        }
      ],
      "name": "getApproved",
      "outputs": [
        {
          "internalType": "address",
          "name": "",
          "type": "address"
        }
      ],
      "stateMutability": "view",
      "type": "function",
      "constant": true
    },
    {
      "inputs": [],
      "name": "name",
      "outputs": [
        {
          "internalType": "string",
          "name": "",
          "type": "string"
        }
      ],
      "stateMutability": "view",
      "type": "function",
      "constant": true
    },
    {
      "inputs": [
        {
          "internalType": "uint256",
          "name": "_tokenId",
          "type": "uint256"
        }
      ],
      "name": "ownerOf",
      "outputs": [
        {
          "internalType": "address",
          "name": "",
          "type": "address"
        }
      ],
      "stateMutability": "view",
      "type": "function",
      "constant": true
    },
    {
      "inputs": [
        {
          "internalType": "bytes4",
          "name": "interfaceId",
          "type": "bytes4"
        }
      ],
      "name": "supportsInterface",
      "outputs": [
        {
          "internalType": "bool",
          "name": "",
          "type": "bool"
        }
      ],
      "stateMutability": "view",
      "type": "function",
      "constant": true
    },
    {
      "inputs": [],
      "name": "symbol",
      "outputs": [
        {
          "internalType": "string",
          "name": "",
          "type": "string"
        }
      ],
      "stateMutability": "view",
      "type": "function",
      "constant": true
    },
    {
      "inputs": [
        {
          "internalType": "uint256",
          "name": "index",
          "type": "uint256"
        }
      ],
      "name": "tokenByIndex",
      "outputs": [
        {
          "internalType": "uint256",
          "name": "",
          "type": "uint256"
        }
      ],
      "stateMutability": "view",
      "type": "function",
      "constant": true
    },
    {
      "inputs": [
        {
          "internalType": "address",
          "name": "owner",
          "type": "address"
        },
        {
          "internalType": "uint256",
          "name": "index",
          "type": "uint256"
        }
      ],
      "name": "tokenOfOwnerByIndex",
      "outputs": [
        {
          "internalType": "uint256",
          "name": "",
          "type": "uint256"
        }
      ],
      "stateMutability": "view",
      "type": "function",
      "constant": true
    },
    {
      "inputs": [],
      "name": "totalSupply",
      "outputs": [
        {
          "internalType": "uint256",
          "name": "",
          "type": "uint256"
        }
      ],
      "stateMutability": "view",
      "type": "function",
      "constant": true
    },
    {
      "inputs": [
        {
          "internalType": "address",
          "name": "_from",
          "type": "address"
        },
        {
          "internalType": "address",
          "name": "_to",
          "type": "address"
        },
        {
          "internalType": "uint256",
          "name": "_tokenId",
          "type": "uint256"
        }
      ],
      "name": "transferFrom",
      "outputs": [],
      "stateMutability": "nonpayable",
      "type": "function"
    },
    {
      "inputs": [
        {
          "internalType": "string",
          "name": "_kryptoBird",
          "type": "string"
        }
      ],
      "name": "mint",
      "outputs": [],
      "stateMutability": "nonpayable",
      "type": "function"
    }
  ],
  "bytecode": "0x60806040523480156200001157600080fd5b506040518060400160405280600a81526020017f4b727970746f42697264000000000000000000000000000000000000000000008152506040518060400160405280600681526020017f4b424952445a00000000000000000000000000000000000000000000000000008152508181620000b17f01ffc9a7a5cef8baa21ed3c5c0d7e23accb804b619e9333b597f47a0d84076e26200022a60201b60201c565b620001047f13b182f4c0e5b2efbac0efe6cf6d756c8b89f4b79c5707a043ed9ea740574ee97f7feaf19471f34a12a7eaf32d5f3090aa2260ea8624dc8a138e74e0bf0f623076186200022a60201b60201c565b81600190805190602001906200011c92919062000302565b5080600290805190602001906200013592919062000302565b505050620001ad7f22c82707ba960a14c7592ffb6b8cfaa073fed0048a84cc7fa41f6b5bd8e7f2e47f3badcb5a85b80057802393c7c7dceb45dd1112972dd740244d4ce934995b91227f17e9ebaeee75627a247eb8aa75aa3ec44d7e3de40936ecd1d156c5fa582962b118186200022a60201b60201c565b620002227f8230223f691b981717299fae9549350a0d894555723531f02108b1f522c1a7977f6da5e1284143cdd2d15038a59bde3be031250f00291d64494c12d967b3a4e0c37fc53637662700e6c65104059db8bba34439e0c32483ab7c34e3ccae52c739549518186200022a60201b60201c565b5050620004b2565b63ffffffff60e01b817bffffffffffffffffffffffffffffffffffffffffffffffffffffffff1916141562000296576040517f08c379a00000000000000000000000000000000000000000000000000000000081526004016200028d906200041a565b60405180910390fd5b6001600080837bffffffffffffffffffffffffffffffffffffffffffffffffffffffff19167bffffffffffffffffffffffffffffffffffffffffffffffffffffffff1916815260200190815260200160002060006101000a81548160ff02191690831515021790555050565b82805462000310906200044d565b90600052602060002090601f01602090048101928262000334576000855562000380565b82601f106200034f57805160ff191683800117855562000380565b8280016001018555821562000380579182015b828111156200037f57825182559160200191906001019062000362565b5b5090506200038f919062000393565b5090565b5b80821115620003ae57600081600090555060010162000394565b5090565b6000620003c16021836200043c565b91507f4552524f52202d204552433136353a20496e76616c696420496e74657266616360008301527f65000000000000000000000000000000000000000000000000000000000000006020830152604082019050919050565b600060208201905081810360008301526200043581620003b2565b9050919050565b600082825260208201905092915050565b600060028204905060018216806200046657607f821691505b602082108114156200047d576200047c62000483565b5b50919050565b7f4e487b7100000000000000000000000000000000000000000000000000000000600052602260045260246000fd5b611e9780620004c26000396000f3fe608060405234801561001057600080fd5b50600436106100ea5760003560e01c80634f6ccce71161008c57806370a082311161006657806370a082311461027157806395d89b41146102a1578063a3a1ff58146102bf578063d85d3d27146102ef576100ea565b80634f6ccce7146101f35780635464a4a6146102235780636352211e14610241576100ea565b8063095ea7b3116100c8578063095ea7b31461016d57806318160ddd1461018957806323b872dd146101a75780632f745c59146101c3576100ea565b806301ffc9a7146100ef57806306fdde031461011f578063081812fc1461013d575b600080fd5b610109600480360381019061010491906113f6565b61030b565b6040516101169190611991565b60405180910390f35b610127610372565b60405161013491906119c7565b60405180910390f35b61015760048036038101906101529190611460565b610404565b6040516101649190611976565b60405180910390f35b610187600480360381019061018291906113ba565b610441565b005b6101916105dd565b60405161019e9190611b69565b60405180910390f35b6101c160048036038101906101bc919061136b565b6105ea565b005b6101dd60048036038101906101d891906113ba565b610643565b6040516101ea9190611b69565b60405180910390f35b61020d60048036038101906102089190611460565b610719565b60405161021a9190611b69565b60405180910390f35b61022b6107b0565b60405161023891906119ac565b60405180910390f35b61025b60048036038101906102569190611460565b6107d8565b6040516102689190611976565b60405180910390f35b61028b60048036038101906102869190611342565b61088a565b6040516102989190611b69565b60405180910390f35b6102a9610942565b6040516102b691906119c7565b60405180910390f35b6102d960048036038101906102d49190611460565b6109d4565b6040516102e691906119c7565b60405180910390f35b6103096004803603810190610304919061141f565b610a80565b005b6000806000837bffffffffffffffffffffffffffffffffffffffffffffffffffffffff19167bffffffffffffffffffffffffffffffffffffffffffffffffffffffff1916815260200190815260200160002060009054906101000a900460ff169050919050565b60606001805461038190611d4c565b80601f01602080910402602001604051908101604052809291908181526020018280546103ad90611d4c565b80156103fa5780601f106103cf576101008083540402835291602001916103fa565b820191906000526020600020905b8154815290600101906020018083116103dd57829003601f168201915b5050505050905090565b60006005600083815260200190815260200160002060009054906101000a900473ffffffffffffffffffffffffffffffffffffffff169050919050565b600061044c826107d8565b90508073ffffffffffffffffffffffffffffffffffffffff168373ffffffffffffffffffffffffffffffffffffffff1614156104bd576040517f08c379a00000000000000000000000000000000000000000000000000000000081526004016104b490611a09565b60405180910390fd5b8073ffffffffffffffffffffffffffffffffffffffff163373ffffffffffffffffffffffffffffffffffffffff161461052b576040517f08c379a000000000000000000000000000000000000000000000000000000000815260040161052290611ac9565b60405180910390fd5b826005600084815260200190815260200160002060006101000a81548173ffffffffffffffffffffffffffffffffffffffff021916908373ffffffffffffffffffffffffffffffffffffffff160217905550818373ffffffffffffffffffffffffffffffffffffffff168273ffffffffffffffffffffffffffffffffffffffff167f8c5be1e5ebec7d5bd14f71427d1e84f3dd0314c0f7b2291e5b200ac8c7c3b92560405160405180910390a4505050565b6000600680549050905090565b6105f43382610b83565b610633576040517f08c379a000000000000000000000000000000000000000000000000000000000815260040161062a90611ae9565b60405180910390fd5b61063e838383610c50565b505050565b600061064e8361088a565b821061068f576040517f08c379a000000000000000000000000000000000000000000000000000000000815260040161068690611b09565b60405180910390fd5b600760008473ffffffffffffffffffffffffffffffffffffffff1673ffffffffffffffffffffffffffffffffffffffff1681526020019081526020016000208281548110610706577f4e487b7100000000000000000000000000000000000000000000000000000000600052603260045260246000fd5b9060005260206000200154905092915050565b60006107236105dd565b8210610764576040517f08c379a000000000000000000000000000000000000000000000000000000000815260040161075b90611b29565b60405180910390fd5b6006828154811061079e577f4e487b7100000000000000000000000000000000000000000000000000000000600052603260045260246000fd5b90600052602060002001549050919050565b60007f01ffc9a7a5cef8baa21ed3c5c0d7e23accb804b619e9333b597f47a0d84076e2905090565b6000806003600084815260200190815260200160002060009054906101000a900473ffffffffffffffffffffffffffffffffffffffff169050600073ffffffffffffffffffffffffffffffffffffffff168173ffffffffffffffffffffffffffffffffffffffff161415610881576040517f08c379a0000000000000000000000000000000000000000000000000000000008152600401610878906119e9565b60405180910390fd5b80915050919050565b60008073ffffffffffffffffffffffffffffffffffffffff168273ffffffffffffffffffffffffffffffffffffffff1614156108fb576040517f08c379a00000000000000000000000000000000000000000000000000000000081526004016108f2906119e9565b60405180910390fd5b600460008373ffffffffffffffffffffffffffffffffffffffff1673ffffffffffffffffffffffffffffffffffffffff168152602001908152602001600020549050919050565b60606002805461095190611d4c565b80601f016020809104026020016040519081016040528092919081815260200182805461097d90611d4c565b80156109ca5780601f1061099f576101008083540402835291602001916109ca565b820191906000526020600020905b8154815290600101906020018083116109ad57829003601f168201915b5050505050905090565b600a81815481106109e457600080fd5b9060005260206000200160009150905080546109ff90611d4c565b80601f0160208091040260200160405190810160405280929190818152602001828054610a2b90611d4c565b8015610a785780601f10610a4d57610100808354040283529160200191610a78565b820191906000526020600020905b815481529060010190602001808311610a5b57829003601f168201915b505050505081565b600b81604051610a90919061195f565b908152602001604051809103902060009054906101000a900460ff1615610aec576040517f08c379a0000000000000000000000000000000000000000000000000000000008152600401610ae390611a89565b60405180910390fd5b600a81908060018154018082558091505060019003906000526020600020016000909190919091509080519060200190610b279291906111f8565b5060006001600a80549050610b3c9190611c62565b9050610b483382610e96565b6001600b83604051610b5a919061195f565b908152602001604051809103902060006101000a81548160ff0219169083151502179055505050565b6000610b8e82610eb7565b610bcd576040517f08c379a0000000000000000000000000000000000000000000000000000000008152600401610bc490611a69565b60405180910390fd5b6000610bd8836107d8565b90508073ffffffffffffffffffffffffffffffffffffffff168473ffffffffffffffffffffffffffffffffffffffff161480610c4757508373ffffffffffffffffffffffffffffffffffffffff16610c2f84610404565b73ffffffffffffffffffffffffffffffffffffffff16145b91505092915050565b600073ffffffffffffffffffffffffffffffffffffffff168273ffffffffffffffffffffffffffffffffffffffff161415610cc0576040517f08c379a0000000000000000000000000000000000000000000000000000000008152600401610cb790611a49565b60405180910390fd5b8273ffffffffffffffffffffffffffffffffffffffff16610ce0826107d8565b73ffffffffffffffffffffffffffffffffffffffff1614610d36576040517f08c379a0000000000000000000000000000000000000000000000000000000008152600401610d2d90611aa9565b60405180910390fd5b816003600083815260200190815260200160002060006101000a81548173ffffffffffffffffffffffffffffffffffffffff021916908373ffffffffffffffffffffffffffffffffffffffff1602179055506001600460008573ffffffffffffffffffffffffffffffffffffffff1673ffffffffffffffffffffffffffffffffffffffff1681526020019081526020016000206000828254610dd89190611c62565b925050819055506001600460008473ffffffffffffffffffffffffffffffffffffffff1673ffffffffffffffffffffffffffffffffffffffff1681526020019081526020016000206000828254610e2f9190611c0c565b92505081905550808273ffffffffffffffffffffffffffffffffffffffff168473ffffffffffffffffffffffffffffffffffffffff167fddf252ad1be2c89b69c2b068fc378daa952ba7f163c4a11628f55a4df523b3ef60405160405180910390a4505050565b610ea08282610f29565b610ea9816110eb565b610eb38282611134565b5050565b6000806003600084815260200190815260200160002060009054906101000a900473ffffffffffffffffffffffffffffffffffffffff169050600073ffffffffffffffffffffffffffffffffffffffff168173ffffffffffffffffffffffffffffffffffffffff161415915050919050565b600073ffffffffffffffffffffffffffffffffffffffff168273ffffffffffffffffffffffffffffffffffffffff161415610f99576040517f08c379a0000000000000000000000000000000000000000000000000000000008152600401610f9090611b49565b60405180910390fd5b610fa281610eb7565b15610fe2576040517f08c379a0000000000000000000000000000000000000000000000000000000008152600401610fd990611a29565b60405180910390fd5b816003600083815260200190815260200160002060006101000a81548173ffffffffffffffffffffffffffffffffffffffff021916908373ffffffffffffffffffffffffffffffffffffffff1602179055506001600460008473ffffffffffffffffffffffffffffffffffffffff1673ffffffffffffffffffffffffffffffffffffffff16815260200190815260200160002060008282546110849190611c0c565b92505081905550808273ffffffffffffffffffffffffffffffffffffffff16600073ffffffffffffffffffffffffffffffffffffffff167fddf252ad1be2c89b69c2b068fc378daa952ba7f163c4a11628f55a4df523b3ef60405160405180910390a45050565b6006805490506009600083815260200190815260200160002081905550600681908060018154018082558091505060019003906000526020600020016000909190919091505550565b600760008373ffffffffffffffffffffffffffffffffffffffff1673ffffffffffffffffffffffffffffffffffffffff168152602001908152602001600020805490506008600083815260200190815260200160002081905550600760008373ffffffffffffffffffffffffffffffffffffffff1673ffffffffffffffffffffffffffffffffffffffff1681526020019081526020016000208190806001815401808255809150506001900390600052602060002001600090919091909150555050565b82805461120490611d4c565b90600052602060002090601f016020900481019282611226576000855561126d565b82601f1061123f57805160ff191683800117855561126d565b8280016001018555821561126d579182015b8281111561126c578251825591602001919060010190611251565b5b50905061127a919061127e565b5090565b5b8082111561129757600081600090555060010161127f565b5090565b60006112ae6112a984611bb5565b611b84565b9050828152602081018484840111156112c657600080fd5b6112d1848285611d0a565b509392505050565b6000813590506112e881611e1c565b92915050565b6000813590506112fd81611e33565b92915050565b600082601f83011261131457600080fd5b813561132484826020860161129b565b91505092915050565b60008135905061133c81611e4a565b92915050565b60006020828403121561135457600080fd5b6000611362848285016112d9565b91505092915050565b60008060006060848603121561138057600080fd5b600061138e868287016112d9565b935050602061139f868287016112d9565b92505060406113b08682870161132d565b9150509250925092565b600080604083850312156113cd57600080fd5b60006113db858286016112d9565b92505060206113ec8582860161132d565b9150509250929050565b60006020828403121561140857600080fd5b6000611416848285016112ee565b91505092915050565b60006020828403121561143157600080fd5b600082013567ffffffffffffffff81111561144b57600080fd5b61145784828501611303565b91505092915050565b60006020828403121561147257600080fd5b60006114808482850161132d565b91505092915050565b61149281611c96565b82525050565b6114a181611ca8565b82525050565b6114b081611cb4565b82525050565b60006114c182611be5565b6114cb8185611bf0565b93506114db818560208601611d19565b6114e481611e0b565b840191505092915050565b60006114fa82611be5565b6115048185611c01565b9350611514818560208601611d19565b80840191505092915050565b600061152d602083611bf0565b91507f6f776e657220717565727920666f72206e6f6e2d65786974737420746f6b656e6000830152602082019050919050565b600061156d602183611bf0565b91507f4552524f52202d20617070726f76616c20746f2063757272656e74206f776e6560008301527f72000000000000000000000000000000000000000000000000000000000000006020830152604082019050919050565b60006115d3601b83611bf0565b91507f4552433732312c20746f6b656e20616c65616479206d696e74656400000000006000830152602082019050919050565b6000611613602c83611bf0565b91507f4552524f52202d204552433732313a207472616e7366657220746f207468652060008301527f7a65726f206164647265737300000000000000000000000000000000000000006020830152604082019050919050565b6000611679601c83611bf0565b91507f4552433732312c20746f6b656e20646f6573206e6f74206578697374000000006000830152602082019050919050565b60006116b9602483611bf0565b91507f4552524f52202d206b727970746f426972642068617320616c6561647920657860008301527f69737473000000000000000000000000000000000000000000000000000000006020830152604082019050919050565b600061171f604483611bf0565b91507f4552524f52202d204552433732313a20547279696e6720746f207472616e736660008301527f6572206120746f6b656e20746865206164647265737320646f6573206e6f742060208301527f6f776e21000000000000000000000000000000000000000000000000000000006040830152606082019050919050565b60006117ab602783611bf0565b91507f4552524f52202d2043757272656e742063616c6c6572206973206e6f7420746860008301527f65206f776e6572000000000000000000000000000000000000000000000000006020830152604082019050919050565b6000611811604083611bf0565b91507f4552524f52202d204552433732313a20617070726f76652063616c6c6572206960008301527f73206e6f74206f776e6572206e6f7220617070726f76656420666f7220616c6c6020830152604082019050919050565b6000611877601c83611bf0565b91507f6f776e657220696e646578206973206f7574206f6620626f756e6473000000006000830152602082019050919050565b60006118b7601d83611bf0565b91507f676c6f62616c20696e646578206973206f7574206f6620626f756e64730000006000830152602082019050919050565b60006118f7602383611bf0565b91507f4552433732313a206d696e74696e6720746f20746865207a65726f206164647260008301527f65737300000000000000000000000000000000000000000000000000000000006020830152604082019050919050565b61195981611d00565b82525050565b600061196b82846114ef565b915081905092915050565b600060208201905061198b6000830184611489565b92915050565b60006020820190506119a66000830184611498565b92915050565b60006020820190506119c160008301846114a7565b92915050565b600060208201905081810360008301526119e181846114b6565b905092915050565b60006020820190508181036000830152611a0281611520565b9050919050565b60006020820190508181036000830152611a2281611560565b9050919050565b60006020820190508181036000830152611a42816115c6565b9050919050565b60006020820190508181036000830152611a6281611606565b9050919050565b60006020820190508181036000830152611a828161166c565b9050919050565b60006020820190508181036000830152611aa2816116ac565b9050919050565b60006020820190508181036000830152611ac281611712565b9050919050565b60006020820190508181036000830152611ae28161179e565b9050919050565b60006020820190508181036000830152611b0281611804565b9050919050565b60006020820190508181036000830152611b228161186a565b9050919050565b60006020820190508181036000830152611b42816118aa565b9050919050565b60006020820190508181036000830152611b62816118ea565b9050919050565b6000602082019050611b7e6000830184611950565b92915050565b6000604051905081810181811067ffffffffffffffff82111715611bab57611baa611ddc565b5b8060405250919050565b600067ffffffffffffffff821115611bd057611bcf611ddc565b5b601f19601f8301169050602081019050919050565b600081519050919050565b600082825260208201905092915050565b600081905092915050565b6000611c1782611d00565b9150611c2283611d00565b9250827fffffffffffffffffffffffffffffffffffffffffffffffffffffffffffffffff03821115611c5757611c56611d7e565b5b828201905092915050565b6000611c6d82611d00565b9150611c7883611d00565b925082821015611c8b57611c8a611d7e565b5b828203905092915050565b6000611ca182611ce0565b9050919050565b60008115159050919050565b60007fffffffff0000000000000000000000000000000000000000000000000000000082169050919050565b600073ffffffffffffffffffffffffffffffffffffffff82169050919050565b6000819050919050565b82818337600083830152505050565b60005b83811015611d37578082015181840152602081019050611d1c565b83811115611d46576000848401525b50505050565b60006002820490506001821680611d6457607f821691505b60208210811415611d7857611d77611dad565b5b50919050565b7f4e487b7100000000000000000000000000000000000000000000000000000000600052601160045260246000fd5b7f4e487b7100000000000000000000000000000000000000000000000000000000600052602260045260246000fd5b7f4e487b7100000000000000000000000000000000000000000000000000000000600052604160045260246000fd5b6000601f19601f8301169050919050565b611e2581611c96565b8114611e3057600080fd5b50565b611e3c81611cb4565b8114611e4757600080fd5b50565b611e5381611d00565b8114611e5e57600080fd5b5056fea26469706673582212204413e39d871abc37a00c646b92b9115da66b669008c9fef03a7bb2da56cf9d5464736f6c63430008000033",
  "immutableReferences": {},
  "source": "// SPDX-License-Identifier: MIT\npragma solidity >=0.8.0;\n\nimport './ERC721Connector.sol';\n\ncontract Kryptobirdz is ERC721Connector {\n\n      // NFT\n      string[] public KryptoBirdz;\n\n      mapping(string => bool) _kryptoBirdzExists;\n\n      constructor() ERC721Connector('KryptoBird', 'KBIRDZ') {\n            \n      }\n\n      function mint(string memory _kryptoBird) public {\n            require(!_kryptoBirdzExists[_kryptoBird], 'ERROR - kryptoBird has aleady exists');\n\n            KryptoBirdz.push(_kryptoBird);\n            uint _id  = KryptoBirdz.length - 1;\n\n            _mint(msg.sender, _id);\n            _kryptoBirdzExists[_kryptoBird] = true;\n      }\n}",
  "sourcePath": "/Users/harukikondo/git/NFT-MarketplaceApp/src/contracts/KryptoBirdz.sol",
  "compiler": {
    "name": "solc",
    "version": "0.8.0+commit.c7dfd78e.Emscripten.clang"
  },
  "schemaVersion": "3.4.3",
  "updatedAt": "2022-04-23T13:02:57.088Z",
  "networkType": "ethereum",
  "devdoc": {
    "kind": "dev",
    "methods": {},
    "version": 1
  },
  "userdoc": {
    "kind": "user",
    "methods": {},
    "version": 1
  }
}