{
  "contractName": "Kryptobirdz",
  "abi": [
    {
      "inputs": [],
      "stateMutability": "nonpayable",
      "type": "constructor"
    },
    {
      "anonymous": false,
      "inputs": [
        {
          "indexed": true,
          "internalType": "address",
          "name": "from",
          "type": "address"
        },
        {
          "indexed": true,
          "internalType": "address",
          "name": "to",
          "type": "address"
        },
        {
          "indexed": true,
          "internalType": "uint256",
          "name": "tokenId",
          "type": "uint256"
        }
      ],
      "name": "Transfer",
      "type": "event"
    },
    {
      "inputs": [
        {
          "internalType": "uint256",
          "name": "",
          "type": "uint256"
        }
      ],
      "name": "KryptoBirdz",
      "outputs": [
        {
          "internalType": "string",
          "name": "",
          "type": "string"
        }
      ],
      "stateMutability": "view",
      "type": "function"
    },
    {
      "inputs": [
        {
          "internalType": "address",
          "name": "owner",
          "type": "address"
        }
      ],
      "name": "balanceOf",
      "outputs": [
        {
          "internalType": "uint256",
          "name": "",
          "type": "uint256"
        }
      ],
      "stateMutability": "view",
      "type": "function"
    },
    {
      "inputs": [],
      "name": "name",
      "outputs": [
        {
          "internalType": "string",
          "name": "",
          "type": "string"
        }
      ],
      "stateMutability": "view",
      "type": "function"
    },
    {
      "inputs": [
        {
          "internalType": "uint256",
          "name": "_tokenId",
          "type": "uint256"
        }
      ],
      "name": "ownerOf",
      "outputs": [
        {
          "internalType": "address",
          "name": "",
          "type": "address"
        }
      ],
      "stateMutability": "view",
      "type": "function"
    },
    {
      "inputs": [],
      "name": "symbol",
      "outputs": [
        {
          "internalType": "string",
          "name": "",
          "type": "string"
        }
      ],
      "stateMutability": "view",
      "type": "function"
    },
    {
      "inputs": [
        {
          "internalType": "uint256",
          "name": "index",
          "type": "uint256"
        }
      ],
      "name": "tokenByIndex",
      "outputs": [
        {
          "internalType": "uint256",
          "name": "",
          "type": "uint256"
        }
      ],
      "stateMutability": "view",
      "type": "function"
    },
    {
      "inputs": [
        {
          "internalType": "address",
          "name": "owner",
          "type": "address"
        },
        {
          "internalType": "uint256",
          "name": "index",
          "type": "uint256"
        }
      ],
      "name": "tokenOfOwnerByIndex",
      "outputs": [
        {
          "internalType": "uint256",
          "name": "",
          "type": "uint256"
        }
      ],
      "stateMutability": "view",
      "type": "function"
    },
    {
      "inputs": [],
      "name": "totalSupply",
      "outputs": [
        {
          "internalType": "uint256",
          "name": "",
          "type": "uint256"
        }
      ],
      "stateMutability": "view",
      "type": "function"
    },
    {
      "inputs": [
        {
          "internalType": "string",
          "name": "_kryptoBird",
          "type": "string"
        }
      ],
      "name": "mint",
      "outputs": [],
      "stateMutability": "nonpayable",
      "type": "function"
    }
  ],
  "bytecode": "0x60806040523480156200001157600080fd5b506040518060400160405280600a81526020017f4b727970746f42697264000000000000000000000000000000000000000000008152506040518060400160405280600681526020017f4b424952445a00000000000000000000000000000000000000000000000000008152508181816000908051906020019062000098929190620000bc565b508060019080519060200190620000b1929190620000bc565b5050505050620001d1565b828054620000ca906200016c565b90600052602060002090601f016020900481019282620000ee57600085556200013a565b82601f106200010957805160ff19168380011785556200013a565b828001600101855582156200013a579182015b82811115620001395782518255916020019190600101906200011c565b5b5090506200014991906200014d565b5090565b5b80821115620001685760008160009055506001016200014e565b5090565b600060028204905060018216806200018557607f821691505b602082108114156200019c576200019b620001a2565b5b50919050565b7f4e487b7100000000000000000000000000000000000000000000000000000000600052602260045260246000fd5b61136280620001e16000396000f3fe608060405234801561001057600080fd5b50600436106100935760003560e01c80636352211e116100665780636352211e1461013457806370a082311461016457806395d89b4114610194578063a3a1ff58146101b2578063d85d3d27146101e257610093565b806306fdde031461009857806318160ddd146100b65780632f745c59146100d45780634f6ccce714610104575b600080fd5b6100a06101fe565b6040516100ad9190610fa1565b60405180910390f35b6100be610290565b6040516100cb9190611083565b60405180910390f35b6100ee60048036038101906100e99190610c75565b61029d565b6040516100fb9190611083565b60405180910390f35b61011e60048036038101906101199190610cf2565b610373565b60405161012b9190611083565b60405180910390f35b61014e60048036038101906101499190610cf2565b61040a565b60405161015b9190610f86565b60405180910390f35b61017e60048036038101906101799190610c4c565b6104bc565b60405161018b9190611083565b60405180910390f35b61019c610574565b6040516101a99190610fa1565b60405180910390f35b6101cc60048036038101906101c79190610cf2565b610606565b6040516101d99190610fa1565b60405180910390f35b6101fc60048036038101906101f79190610cb1565b6106b2565b005b60606000805461020d9061122e565b80601f01602080910402602001604051908101604052809291908181526020018280546102399061122e565b80156102865780601f1061025b57610100808354040283529160200191610286565b820191906000526020600020905b81548152906001019060200180831161026957829003601f168201915b5050505050905090565b6000600480549050905090565b60006102a8836104bc565b82106102e9576040517f08c379a00000000000000000000000000000000000000000000000000000000081526004016102e090611023565b60405180910390fd5b600560008473ffffffffffffffffffffffffffffffffffffffff1673ffffffffffffffffffffffffffffffffffffffff1681526020019081526020016000208281548110610360577f4e487b7100000000000000000000000000000000000000000000000000000000600052603260045260246000fd5b9060005260206000200154905092915050565b600061037d610290565b82106103be576040517f08c379a00000000000000000000000000000000000000000000000000000000081526004016103b590611043565b60405180910390fd5b600482815481106103f8577f4e487b7100000000000000000000000000000000000000000000000000000000600052603260045260246000fd5b90600052602060002001549050919050565b6000806002600084815260200190815260200160002060009054906101000a900473ffffffffffffffffffffffffffffffffffffffff169050600073ffffffffffffffffffffffffffffffffffffffff168173ffffffffffffffffffffffffffffffffffffffff1614156104b3576040517f08c379a00000000000000000000000000000000000000000000000000000000081526004016104aa90610fc3565b60405180910390fd5b80915050919050565b60008073ffffffffffffffffffffffffffffffffffffffff168273ffffffffffffffffffffffffffffffffffffffff16141561052d576040517f08c379a000000000000000000000000000000000000000000000000000000000815260040161052490610fc3565b60405180910390fd5b600360008373ffffffffffffffffffffffffffffffffffffffff1673ffffffffffffffffffffffffffffffffffffffff168152602001908152602001600020549050919050565b6060600180546105839061122e565b80601f01602080910402602001604051908101604052809291908181526020018280546105af9061122e565b80156105fc5780601f106105d1576101008083540402835291602001916105fc565b820191906000526020600020905b8154815290600101906020018083116105df57829003601f168201915b5050505050905090565b6008818154811061061657600080fd5b9060005260206000200160009150905080546106319061122e565b80601f016020809104026020016040519081016040528092919081815260200182805461065d9061122e565b80156106aa5780601f1061067f576101008083540402835291602001916106aa565b820191906000526020600020905b81548152906001019060200180831161068d57829003601f168201915b505050505081565b6009816040516106c29190610f6f565b908152602001604051809103902060009054906101000a900460ff161561071e576040517f08c379a000000000000000000000000000000000000000000000000000000000815260040161071590611003565b60405180910390fd5b600881908060018154018082558091505060019003906000526020600020016000909190919091509080519060200190610759929190610b17565b506000600160088054905061076e919061117c565b905061077a33826107b5565b600160098360405161078c9190610f6f565b908152602001604051809103902060006101000a81548160ff0219169083151502179055505050565b6107bf82826107d6565b6107c881610998565b6107d282826109e1565b5050565b600073ffffffffffffffffffffffffffffffffffffffff168273ffffffffffffffffffffffffffffffffffffffff161415610846576040517f08c379a000000000000000000000000000000000000000000000000000000000815260040161083d90611063565b60405180910390fd5b61084f81610aa5565b1561088f576040517f08c379a000000000000000000000000000000000000000000000000000000000815260040161088690610fe3565b60405180910390fd5b816002600083815260200190815260200160002060006101000a81548173ffffffffffffffffffffffffffffffffffffffff021916908373ffffffffffffffffffffffffffffffffffffffff1602179055506001600360008473ffffffffffffffffffffffffffffffffffffffff1673ffffffffffffffffffffffffffffffffffffffff16815260200190815260200160002060008282546109319190611126565b92505081905550808273ffffffffffffffffffffffffffffffffffffffff16600073ffffffffffffffffffffffffffffffffffffffff167fddf252ad1be2c89b69c2b068fc378daa952ba7f163c4a11628f55a4df523b3ef60405160405180910390a45050565b6004805490506007600083815260200190815260200160002081905550600481908060018154018082558091505060019003906000526020600020016000909190919091505550565b600560008373ffffffffffffffffffffffffffffffffffffffff1673ffffffffffffffffffffffffffffffffffffffff168152602001908152602001600020805490506006600083815260200190815260200160002081905550600560008373ffffffffffffffffffffffffffffffffffffffff1673ffffffffffffffffffffffffffffffffffffffff1681526020019081526020016000208190806001815401808255809150506001900390600052602060002001600090919091909150555050565b6000806002600084815260200190815260200160002060009054906101000a900473ffffffffffffffffffffffffffffffffffffffff169050600073ffffffffffffffffffffffffffffffffffffffff168173ffffffffffffffffffffffffffffffffffffffff161415915050919050565b828054610b239061122e565b90600052602060002090601f016020900481019282610b455760008555610b8c565b82601f10610b5e57805160ff1916838001178555610b8c565b82800160010185558215610b8c579182015b82811115610b8b578251825591602001919060010190610b70565b5b509050610b999190610b9d565b5090565b5b80821115610bb6576000816000905550600101610b9e565b5090565b6000610bcd610bc8846110cf565b61109e565b905082815260208101848484011115610be557600080fd5b610bf08482856111ec565b509392505050565b600081359050610c07816112fe565b92915050565b600082601f830112610c1e57600080fd5b8135610c2e848260208601610bba565b91505092915050565b600081359050610c4681611315565b92915050565b600060208284031215610c5e57600080fd5b6000610c6c84828501610bf8565b91505092915050565b60008060408385031215610c8857600080fd5b6000610c9685828601610bf8565b9250506020610ca785828601610c37565b9150509250929050565b600060208284031215610cc357600080fd5b600082013567ffffffffffffffff811115610cdd57600080fd5b610ce984828501610c0d565b91505092915050565b600060208284031215610d0457600080fd5b6000610d1284828501610c37565b91505092915050565b610d24816111b0565b82525050565b6000610d35826110ff565b610d3f818561110a565b9350610d4f8185602086016111fb565b610d58816112ed565b840191505092915050565b6000610d6e826110ff565b610d78818561111b565b9350610d888185602086016111fb565b80840191505092915050565b6000610da160208361110a565b91507f6f776e657220717565727920666f72206e6f6e2d65786974737420746f6b656e6000830152602082019050919050565b6000610de1601b8361110a565b91507f4552433732312c20746f6b656e20616c65616479206d696e74656400000000006000830152602082019050919050565b6000610e2160248361110a565b91507f4552524f52202d206b727970746f426972642068617320616c6561647920657860008301527f69737473000000000000000000000000000000000000000000000000000000006020830152604082019050919050565b6000610e87601c8361110a565b91507f6f776e657220696e646578206973206f7574206f6620626f756e6473000000006000830152602082019050919050565b6000610ec7601d8361110a565b91507f676c6f62616c20696e646578206973206f7574206f6620626f756e64730000006000830152602082019050919050565b6000610f0760238361110a565b91507f4552433732313a206d696e74696e6720746f20746865207a65726f206164647260008301527f65737300000000000000000000000000000000000000000000000000000000006020830152604082019050919050565b610f69816111e2565b82525050565b6000610f7b8284610d63565b915081905092915050565b6000602082019050610f9b6000830184610d1b565b92915050565b60006020820190508181036000830152610fbb8184610d2a565b905092915050565b60006020820190508181036000830152610fdc81610d94565b9050919050565b60006020820190508181036000830152610ffc81610dd4565b9050919050565b6000602082019050818103600083015261101c81610e14565b9050919050565b6000602082019050818103600083015261103c81610e7a565b9050919050565b6000602082019050818103600083015261105c81610eba565b9050919050565b6000602082019050818103600083015261107c81610efa565b9050919050565b60006020820190506110986000830184610f60565b92915050565b6000604051905081810181811067ffffffffffffffff821117156110c5576110c46112be565b5b8060405250919050565b600067ffffffffffffffff8211156110ea576110e96112be565b5b601f19601f8301169050602081019050919050565b600081519050919050565b600082825260208201905092915050565b600081905092915050565b6000611131826111e2565b915061113c836111e2565b9250827fffffffffffffffffffffffffffffffffffffffffffffffffffffffffffffffff0382111561117157611170611260565b5b828201905092915050565b6000611187826111e2565b9150611192836111e2565b9250828210156111a5576111a4611260565b5b828203905092915050565b60006111bb826111c2565b9050919050565b600073ffffffffffffffffffffffffffffffffffffffff82169050919050565b6000819050919050565b82818337600083830152505050565b60005b838110156112195780820151818401526020810190506111fe565b83811115611228576000848401525b50505050565b6000600282049050600182168061124657607f821691505b6020821081141561125a5761125961128f565b5b50919050565b7f4e487b7100000000000000000000000000000000000000000000000000000000600052601160045260246000fd5b7f4e487b7100000000000000000000000000000000000000000000000000000000600052602260045260246000fd5b7f4e487b7100000000000000000000000000000000000000000000000000000000600052604160045260246000fd5b6000601f19601f8301169050919050565b611307816111b0565b811461131257600080fd5b50565b61131e816111e2565b811461132957600080fd5b5056fea2646970667358221220e442133677a1b8034ba94d108a529b98e1c84f2c62a0ee534c9bb50a25cf61a564736f6c63430008000033",
  "immutableReferences": {},
  "source": "// SPDX-License-Identifier: MIT\npragma solidity >=0.8.0;\n\nimport './ERC721Connector.sol';\n\ncontract Kryptobirdz is ERC721Connector {\n\n      // NFT\n      string[] public KryptoBirdz;\n\n      mapping(string => bool) _kryptoBirdzExists;\n\n      constructor() ERC721Connector('KryptoBird', 'KBIRDZ') {\n            \n      }\n\n      function mint(string memory _kryptoBird) public {\n            require(!_kryptoBirdzExists[_kryptoBird], 'ERROR - kryptoBird has aleady exists');\n\n            KryptoBirdz.push(_kryptoBird);\n            uint _id  = KryptoBirdz.length - 1;\n\n            _mint(msg.sender, _id);\n            _kryptoBirdzExists[_kryptoBird] = true;\n      }\n}",
  "sourcePath": "/Users/harukikondo/git/NFT-MarketplaceApp/src/contracts/KryptoBirdz.sol",
  "compiler": {
    "name": "solc",
    "version": "0.8.0+commit.c7dfd78e.Emscripten.clang"
  },
  "schemaVersion": "3.4.3",
  "updatedAt": "2022-04-23T04:59:05.895Z",
  "devdoc": {
    "kind": "dev",
    "methods": {},
    "version": 1
  },
  "userdoc": {
    "kind": "user",
    "methods": {},
    "version": 1
  }
}