{
  "contractName": "Kryptobirdz",
  "abi": [
    {
      "inputs": [],
      "stateMutability": "nonpayable",
      "type": "constructor"
    },
    {
      "anonymous": false,
      "inputs": [
        {
          "indexed": true,
          "internalType": "address",
          "name": "from",
          "type": "address"
        },
        {
          "indexed": true,
          "internalType": "address",
          "name": "to",
          "type": "address"
        },
        {
          "indexed": true,
          "internalType": "uint256",
          "name": "tokenId",
          "type": "uint256"
        }
      ],
      "name": "Transfer",
      "type": "event"
    },
    {
      "inputs": [
        {
          "internalType": "uint256",
          "name": "",
          "type": "uint256"
        }
      ],
      "name": "KryptoBirdz",
      "outputs": [
        {
          "internalType": "string",
          "name": "",
          "type": "string"
        }
      ],
      "stateMutability": "view",
      "type": "function"
    },
    {
      "inputs": [
        {
          "internalType": "address",
          "name": "owner",
          "type": "address"
        }
      ],
      "name": "balanceOf",
      "outputs": [
        {
          "internalType": "uint256",
          "name": "",
          "type": "uint256"
        }
      ],
      "stateMutability": "view",
      "type": "function"
    },
    {
      "inputs": [],
      "name": "name",
      "outputs": [
        {
          "internalType": "string",
          "name": "",
          "type": "string"
        }
      ],
      "stateMutability": "view",
      "type": "function"
    },
    {
      "inputs": [
        {
          "internalType": "uint256",
          "name": "_tokenId",
          "type": "uint256"
        }
      ],
      "name": "ownerOf",
      "outputs": [
        {
          "internalType": "address",
          "name": "",
          "type": "address"
        }
      ],
      "stateMutability": "view",
      "type": "function"
    },
    {
      "inputs": [],
      "name": "symbol",
      "outputs": [
        {
          "internalType": "string",
          "name": "",
          "type": "string"
        }
      ],
      "stateMutability": "view",
      "type": "function"
    },
    {
      "inputs": [
        {
          "internalType": "uint256",
          "name": "index",
          "type": "uint256"
        }
      ],
      "name": "tokenByIndex",
      "outputs": [
        {
          "internalType": "uint256",
          "name": "",
          "type": "uint256"
        }
      ],
      "stateMutability": "view",
      "type": "function"
    },
    {
      "inputs": [
        {
          "internalType": "address",
          "name": "owner",
          "type": "address"
        },
        {
          "internalType": "uint256",
          "name": "index",
          "type": "uint256"
        }
      ],
      "name": "tokenOfOwnerByIndex",
      "outputs": [
        {
          "internalType": "uint256",
          "name": "",
          "type": "uint256"
        }
      ],
      "stateMutability": "view",
      "type": "function"
    },
    {
      "inputs": [],
      "name": "totalSupply",
      "outputs": [
        {
          "internalType": "uint256",
          "name": "",
          "type": "uint256"
        }
      ],
      "stateMutability": "view",
      "type": "function"
    },
    {
      "inputs": [
        {
          "internalType": "address",
          "name": "_from",
          "type": "address"
        },
        {
          "internalType": "address",
          "name": "_to",
          "type": "address"
        },
        {
          "internalType": "uint256",
          "name": "_tokenId",
          "type": "uint256"
        }
      ],
      "name": "transferFrom",
      "outputs": [],
      "stateMutability": "nonpayable",
      "type": "function"
    },
    {
      "inputs": [
        {
          "internalType": "string",
          "name": "_kryptoBird",
          "type": "string"
        }
      ],
      "name": "mint",
      "outputs": [],
      "stateMutability": "nonpayable",
      "type": "function"
    }
  ],
  "bytecode": "0x60806040523480156200001157600080fd5b506040518060400160405280600a81526020017f4b727970746f42697264000000000000000000000000000000000000000000008152506040518060400160405280600681526020017f4b424952445a00000000000000000000000000000000000000000000000000008152508181816000908051906020019062000098929190620000bc565b508060019080519060200190620000b1929190620000bc565b5050505050620001d1565b828054620000ca906200016c565b90600052602060002090601f016020900481019282620000ee57600085556200013a565b82601f106200010957805160ff19168380011785556200013a565b828001600101855582156200013a579182015b82811115620001395782518255916020019190600101906200011c565b5b5090506200014991906200014d565b5090565b5b80821115620001685760008160009055506001016200014e565b5090565b600060028204905060018216806200018557607f821691505b602082108114156200019c576200019b620001a2565b5b50919050565b7f4e487b7100000000000000000000000000000000000000000000000000000000600052602260045260246000fd5b61176080620001e16000396000f3fe608060405234801561001057600080fd5b506004361061009e5760003560e01c80636352211e116100665780636352211e1461015b57806370a082311461018b57806395d89b41146101bb578063a3a1ff58146101d9578063d85d3d27146102095761009e565b806306fdde03146100a357806318160ddd146100c157806323b872dd146100df5780632f745c59146100fb5780634f6ccce71461012b575b600080fd5b6100ab610225565b6040516100b8919061135f565b60405180910390f35b6100c96102b7565b6040516100d69190611481565b60405180910390f35b6100f960048036038101906100f49190610ef2565b6102c4565b005b61011560048036038101906101109190610f41565b6102d4565b6040516101229190611481565b60405180910390f35b61014560048036038101906101409190610fbe565b6103aa565b6040516101529190611481565b60405180910390f35b61017560048036038101906101709190610fbe565b610441565b6040516101829190611344565b60405180910390f35b6101a560048036038101906101a09190610ec9565b6104f3565b6040516101b29190611481565b60405180910390f35b6101c36105ab565b6040516101d0919061135f565b60405180910390f35b6101f360048036038101906101ee9190610fbe565b61063d565b604051610200919061135f565b60405180910390f35b610223600480360381019061021e9190610f7d565b6106e9565b005b6060600080546102349061162c565b80601f01602080910402602001604051908101604052809291908181526020018280546102609061162c565b80156102ad5780601f10610282576101008083540402835291602001916102ad565b820191906000526020600020905b81548152906001019060200180831161029057829003601f168201915b5050505050905090565b6000600580549050905090565b6102cf8383836107ec565b505050565b60006102df836104f3565b8210610320576040517f08c379a000000000000000000000000000000000000000000000000000000000815260040161031790611421565b60405180910390fd5b600660008473ffffffffffffffffffffffffffffffffffffffff1673ffffffffffffffffffffffffffffffffffffffff1681526020019081526020016000208281548110610397577f4e487b7100000000000000000000000000000000000000000000000000000000600052603260045260246000fd5b9060005260206000200154905092915050565b60006103b46102b7565b82106103f5576040517f08c379a00000000000000000000000000000000000000000000000000000000081526004016103ec90611441565b60405180910390fd5b6005828154811061042f577f4e487b7100000000000000000000000000000000000000000000000000000000600052603260045260246000fd5b90600052602060002001549050919050565b6000806002600084815260200190815260200160002060009054906101000a900473ffffffffffffffffffffffffffffffffffffffff169050600073ffffffffffffffffffffffffffffffffffffffff168173ffffffffffffffffffffffffffffffffffffffff1614156104ea576040517f08c379a00000000000000000000000000000000000000000000000000000000081526004016104e190611381565b60405180910390fd5b80915050919050565b60008073ffffffffffffffffffffffffffffffffffffffff168273ffffffffffffffffffffffffffffffffffffffff161415610564576040517f08c379a000000000000000000000000000000000000000000000000000000000815260040161055b90611381565b60405180910390fd5b600360008373ffffffffffffffffffffffffffffffffffffffff1673ffffffffffffffffffffffffffffffffffffffff168152602001908152602001600020549050919050565b6060600180546105ba9061162c565b80601f01602080910402602001604051908101604052809291908181526020018280546105e69061162c565b80156106335780601f1061060857610100808354040283529160200191610633565b820191906000526020600020905b81548152906001019060200180831161061657829003601f168201915b5050505050905090565b6009818154811061064d57600080fd5b9060005260206000200160009150905080546106689061162c565b80601f01602080910402602001604051908101604052809291908181526020018280546106949061162c565b80156106e15780601f106106b6576101008083540402835291602001916106e1565b820191906000526020600020905b8154815290600101906020018083116106c457829003601f168201915b505050505081565b600a816040516106f9919061132d565b908152602001604051809103902060009054906101000a900460ff1615610755576040517f08c379a000000000000000000000000000000000000000000000000000000000815260040161074c906113e1565b60405180910390fd5b600981908060018154018082558091505060019003906000526020600020016000909190919091509080519060200190610790929190610d94565b50600060016009805490506107a5919061157a565b90506107b13382610a32565b6001600a836040516107c3919061132d565b908152602001604051809103902060006101000a81548160ff0219169083151502179055505050565b600073ffffffffffffffffffffffffffffffffffffffff168273ffffffffffffffffffffffffffffffffffffffff16141561085c576040517f08c379a0000000000000000000000000000000000000000000000000000000008152600401610853906113c1565b60405180910390fd5b8273ffffffffffffffffffffffffffffffffffffffff1661087c82610441565b73ffffffffffffffffffffffffffffffffffffffff16146108d2576040517f08c379a00000000000000000000000000000000000000000000000000000000081526004016108c990611401565b60405180910390fd5b816002600083815260200190815260200160002060006101000a81548173ffffffffffffffffffffffffffffffffffffffff021916908373ffffffffffffffffffffffffffffffffffffffff1602179055506001600360008573ffffffffffffffffffffffffffffffffffffffff1673ffffffffffffffffffffffffffffffffffffffff1681526020019081526020016000206000828254610974919061157a565b925050819055506001600360008473ffffffffffffffffffffffffffffffffffffffff1673ffffffffffffffffffffffffffffffffffffffff16815260200190815260200160002060008282546109cb9190611524565b92505081905550808273ffffffffffffffffffffffffffffffffffffffff168473ffffffffffffffffffffffffffffffffffffffff167fddf252ad1be2c89b69c2b068fc378daa952ba7f163c4a11628f55a4df523b3ef60405160405180910390a4505050565b610a3c8282610a53565b610a4581610c15565b610a4f8282610c5e565b5050565b600073ffffffffffffffffffffffffffffffffffffffff168273ffffffffffffffffffffffffffffffffffffffff161415610ac3576040517f08c379a0000000000000000000000000000000000000000000000000000000008152600401610aba90611461565b60405180910390fd5b610acc81610d22565b15610b0c576040517f08c379a0000000000000000000000000000000000000000000000000000000008152600401610b03906113a1565b60405180910390fd5b816002600083815260200190815260200160002060006101000a81548173ffffffffffffffffffffffffffffffffffffffff021916908373ffffffffffffffffffffffffffffffffffffffff1602179055506001600360008473ffffffffffffffffffffffffffffffffffffffff1673ffffffffffffffffffffffffffffffffffffffff1681526020019081526020016000206000828254610bae9190611524565b92505081905550808273ffffffffffffffffffffffffffffffffffffffff16600073ffffffffffffffffffffffffffffffffffffffff167fddf252ad1be2c89b69c2b068fc378daa952ba7f163c4a11628f55a4df523b3ef60405160405180910390a45050565b6005805490506008600083815260200190815260200160002081905550600581908060018154018082558091505060019003906000526020600020016000909190919091505550565b600660008373ffffffffffffffffffffffffffffffffffffffff1673ffffffffffffffffffffffffffffffffffffffff168152602001908152602001600020805490506007600083815260200190815260200160002081905550600660008373ffffffffffffffffffffffffffffffffffffffff1673ffffffffffffffffffffffffffffffffffffffff1681526020019081526020016000208190806001815401808255809150506001900390600052602060002001600090919091909150555050565b6000806002600084815260200190815260200160002060009054906101000a900473ffffffffffffffffffffffffffffffffffffffff169050600073ffffffffffffffffffffffffffffffffffffffff168173ffffffffffffffffffffffffffffffffffffffff161415915050919050565b828054610da09061162c565b90600052602060002090601f016020900481019282610dc25760008555610e09565b82601f10610ddb57805160ff1916838001178555610e09565b82800160010185558215610e09579182015b82811115610e08578251825591602001919060010190610ded565b5b509050610e169190610e1a565b5090565b5b80821115610e33576000816000905550600101610e1b565b5090565b6000610e4a610e45846114cd565b61149c565b905082815260208101848484011115610e6257600080fd5b610e6d8482856115ea565b509392505050565b600081359050610e84816116fc565b92915050565b600082601f830112610e9b57600080fd5b8135610eab848260208601610e37565b91505092915050565b600081359050610ec381611713565b92915050565b600060208284031215610edb57600080fd5b6000610ee984828501610e75565b91505092915050565b600080600060608486031215610f0757600080fd5b6000610f1586828701610e75565b9350506020610f2686828701610e75565b9250506040610f3786828701610eb4565b9150509250925092565b60008060408385031215610f5457600080fd5b6000610f6285828601610e75565b9250506020610f7385828601610eb4565b9150509250929050565b600060208284031215610f8f57600080fd5b600082013567ffffffffffffffff811115610fa957600080fd5b610fb584828501610e8a565b91505092915050565b600060208284031215610fd057600080fd5b6000610fde84828501610eb4565b91505092915050565b610ff0816115ae565b82525050565b6000611001826114fd565b61100b8185611508565b935061101b8185602086016115f9565b611024816116eb565b840191505092915050565b600061103a826114fd565b6110448185611519565b93506110548185602086016115f9565b80840191505092915050565b600061106d602083611508565b91507f6f776e657220717565727920666f72206e6f6e2d65786974737420746f6b656e6000830152602082019050919050565b60006110ad601b83611508565b91507f4552433732312c20746f6b656e20616c65616479206d696e74656400000000006000830152602082019050919050565b60006110ed602c83611508565b91507f4552524f52202d204552433732313a207472616e7366657220746f207468652060008301527f7a65726f206164647265737300000000000000000000000000000000000000006020830152604082019050919050565b6000611153602483611508565b91507f4552524f52202d206b727970746f426972642068617320616c6561647920657860008301527f69737473000000000000000000000000000000000000000000000000000000006020830152604082019050919050565b60006111b9604483611508565b91507f4552524f52202d204552433732313a20547279696e6720746f207472616e736660008301527f6572206120746f6b656e20746865206164647265737320646f6573206e6f742060208301527f6f776e21000000000000000000000000000000000000000000000000000000006040830152606082019050919050565b6000611245601c83611508565b91507f6f776e657220696e646578206973206f7574206f6620626f756e6473000000006000830152602082019050919050565b6000611285601d83611508565b91507f676c6f62616c20696e646578206973206f7574206f6620626f756e64730000006000830152602082019050919050565b60006112c5602383611508565b91507f4552433732313a206d696e74696e6720746f20746865207a65726f206164647260008301527f65737300000000000000000000000000000000000000000000000000000000006020830152604082019050919050565b611327816115e0565b82525050565b6000611339828461102f565b915081905092915050565b60006020820190506113596000830184610fe7565b92915050565b600060208201905081810360008301526113798184610ff6565b905092915050565b6000602082019050818103600083015261139a81611060565b9050919050565b600060208201905081810360008301526113ba816110a0565b9050919050565b600060208201905081810360008301526113da816110e0565b9050919050565b600060208201905081810360008301526113fa81611146565b9050919050565b6000602082019050818103600083015261141a816111ac565b9050919050565b6000602082019050818103600083015261143a81611238565b9050919050565b6000602082019050818103600083015261145a81611278565b9050919050565b6000602082019050818103600083015261147a816112b8565b9050919050565b6000602082019050611496600083018461131e565b92915050565b6000604051905081810181811067ffffffffffffffff821117156114c3576114c26116bc565b5b8060405250919050565b600067ffffffffffffffff8211156114e8576114e76116bc565b5b601f19601f8301169050602081019050919050565b600081519050919050565b600082825260208201905092915050565b600081905092915050565b600061152f826115e0565b915061153a836115e0565b9250827fffffffffffffffffffffffffffffffffffffffffffffffffffffffffffffffff0382111561156f5761156e61165e565b5b828201905092915050565b6000611585826115e0565b9150611590836115e0565b9250828210156115a3576115a261165e565b5b828203905092915050565b60006115b9826115c0565b9050919050565b600073ffffffffffffffffffffffffffffffffffffffff82169050919050565b6000819050919050565b82818337600083830152505050565b60005b838110156116175780820151818401526020810190506115fc565b83811115611626576000848401525b50505050565b6000600282049050600182168061164457607f821691505b602082108114156116585761165761168d565b5b50919050565b7f4e487b7100000000000000000000000000000000000000000000000000000000600052601160045260246000fd5b7f4e487b7100000000000000000000000000000000000000000000000000000000600052602260045260246000fd5b7f4e487b7100000000000000000000000000000000000000000000000000000000600052604160045260246000fd5b6000601f19601f8301169050919050565b611705816115ae565b811461171057600080fd5b50565b61171c816115e0565b811461172757600080fd5b5056fea264697066735822122021b2c918932f6670b308ace7da6995e6477022af26e0621e4b370f19ccd4e0f264736f6c63430008000033",
  "immutableReferences": {},
  "source": "// SPDX-License-Identifier: MIT\npragma solidity >=0.8.0;\n\nimport './ERC721Connector.sol';\n\ncontract Kryptobirdz is ERC721Connector {\n\n      // NFT\n      string[] public KryptoBirdz;\n\n      mapping(string => bool) _kryptoBirdzExists;\n\n      constructor() ERC721Connector('KryptoBird', 'KBIRDZ') {\n            \n      }\n\n      function mint(string memory _kryptoBird) public {\n            require(!_kryptoBirdzExists[_kryptoBird], 'ERROR - kryptoBird has aleady exists');\n\n            KryptoBirdz.push(_kryptoBird);\n            uint _id  = KryptoBirdz.length - 1;\n\n            _mint(msg.sender, _id);\n            _kryptoBirdzExists[_kryptoBird] = true;\n      }\n}",
  "sourcePath": "/Users/harukikondo/git/NFT-MarketplaceApp/src/contracts/KryptoBirdz.sol",
  "compiler": {
    "name": "solc",
    "version": "0.8.0+commit.c7dfd78e.Emscripten.clang"
  },
  "schemaVersion": "3.4.3",
  "updatedAt": "2022-04-23T05:32:06.156Z",
  "devdoc": {
    "kind": "dev",
    "methods": {},
    "version": 1
  },
  "userdoc": {
    "kind": "user",
    "methods": {},
    "version": 1
  }
}