{
  "contractName": "Kryptobirdz",
  "abi": [
    {
      "inputs": [],
      "stateMutability": "nonpayable",
      "type": "constructor"
    },
    {
      "anonymous": false,
      "inputs": [
        {
          "indexed": true,
          "internalType": "address",
          "name": "from",
          "type": "address"
        },
        {
          "indexed": true,
          "internalType": "address",
          "name": "to",
          "type": "address"
        },
        {
          "indexed": true,
          "internalType": "uint256",
          "name": "tokenId",
          "type": "uint256"
        }
      ],
      "name": "Transfer",
      "type": "event"
    },
    {
      "inputs": [
        {
          "internalType": "uint256",
          "name": "",
          "type": "uint256"
        }
      ],
      "name": "KryptoBirdz",
      "outputs": [
        {
          "internalType": "string",
          "name": "",
          "type": "string"
        }
      ],
      "stateMutability": "view",
      "type": "function",
      "constant": true
    },
    {
      "inputs": [],
      "name": "name",
      "outputs": [
        {
          "internalType": "string",
          "name": "",
          "type": "string"
        }
      ],
      "stateMutability": "view",
      "type": "function",
      "constant": true
    },
    {
      "inputs": [],
      "name": "symbol",
      "outputs": [
        {
          "internalType": "string",
          "name": "",
          "type": "string"
        }
      ],
      "stateMutability": "view",
      "type": "function",
      "constant": true
    },
    {
      "inputs": [
        {
          "internalType": "string",
          "name": "_kryptoBird",
          "type": "string"
        }
      ],
      "name": "mint",
      "outputs": [],
      "stateMutability": "nonpayable",
      "type": "function"
    }
  ],
  "bytecode": "0x60806040523480156200001157600080fd5b506040518060400160405280600a81526020017f4b727970746f42697264000000000000000000000000000000000000000000008152506040518060400160405280600681526020017f4b424952445a00000000000000000000000000000000000000000000000000008152508181816000908051906020019062000098929190620000bc565b508060019080519060200190620000b1929190620000bc565b5050505050620001d1565b828054620000ca906200016c565b90600052602060002090601f016020900481019282620000ee57600085556200013a565b82601f106200010957805160ff19168380011785556200013a565b828001600101855582156200013a579182015b82811115620001395782518255916020019190600101906200011c565b5b5090506200014991906200014d565b5090565b5b80821115620001685760008160009055506001016200014e565b5090565b600060028204905060018216806200018557607f821691505b602082108114156200019c576200019b620001a2565b5b50919050565b7f4e487b7100000000000000000000000000000000000000000000000000000000600052602260045260246000fd5b610bf480620001e16000396000f3fe608060405234801561001057600080fd5b506004361061004c5760003560e01c806306fdde031461005157806395d89b411461006f578063a3a1ff581461008d578063d85d3d27146100bd575b600080fd5b6100596100d9565b60405161006691906108f7565b60405180910390f35b61007761016b565b60405161008491906108f7565b60405180910390f35b6100a760048036038101906100a29190610741565b6101fd565b6040516100b491906108f7565b60405180910390f35b6100d760048036038101906100d29190610700565b6102a9565b005b6060600080546100e890610ad7565b80601f016020809104026020016040519081016040528092919081815260200182805461011490610ad7565b80156101615780601f1061013657610100808354040283529160200191610161565b820191906000526020600020905b81548152906001019060200180831161014457829003601f168201915b5050505050905090565b60606001805461017a90610ad7565b80601f01602080910402602001604051908101604052809291908181526020018280546101a690610ad7565b80156101f35780601f106101c8576101008083540402835291602001916101f3565b820191906000526020600020905b8154815290600101906020018083116101d657829003601f168201915b5050505050905090565b6004818154811061020d57600080fd5b90600052602060002001600091509050805461022890610ad7565b80601f016020809104026020016040519081016040528092919081815260200182805461025490610ad7565b80156102a15780601f10610276576101008083540402835291602001916102a1565b820191906000526020600020905b81548152906001019060200180831161028457829003601f168201915b505050505081565b6005816040516102b991906108e0565b908152602001604051809103902060009054906101000a900460ff1615610315576040517f08c379a000000000000000000000000000000000000000000000000000000000815260040161030c90610939565b60405180910390fd5b6004819080600181540180825580915050600190039060005260206000200160009091909190915090805190602001906103509291906105e0565b50600060016004805490506103659190610a57565b905061037133826103ac565b600160058360405161038391906108e0565b908152602001604051809103902060006101000a81548160ff0219169083151502179055505050565b600073ffffffffffffffffffffffffffffffffffffffff168273ffffffffffffffffffffffffffffffffffffffff16141561041c576040517f08c379a000000000000000000000000000000000000000000000000000000000815260040161041390610959565b60405180910390fd5b6104258161056e565b15610465576040517f08c379a000000000000000000000000000000000000000000000000000000000815260040161045c90610919565b60405180910390fd5b816002600083815260200190815260200160002060006101000a81548173ffffffffffffffffffffffffffffffffffffffff021916908373ffffffffffffffffffffffffffffffffffffffff1602179055506001600360008473ffffffffffffffffffffffffffffffffffffffff1673ffffffffffffffffffffffffffffffffffffffff16815260200190815260200160002060008282546105079190610a01565b92505081905550808273ffffffffffffffffffffffffffffffffffffffff16600073ffffffffffffffffffffffffffffffffffffffff167fddf252ad1be2c89b69c2b068fc378daa952ba7f163c4a11628f55a4df523b3ef60405160405180910390a45050565b6000806002600084815260200190815260200160002060009054906101000a900473ffffffffffffffffffffffffffffffffffffffff169050600073ffffffffffffffffffffffffffffffffffffffff168173ffffffffffffffffffffffffffffffffffffffff161415915050919050565b8280546105ec90610ad7565b90600052602060002090601f01602090048101928261060e5760008555610655565b82601f1061062757805160ff1916838001178555610655565b82800160010185558215610655579182015b82811115610654578251825591602001919060010190610639565b5b5090506106629190610666565b5090565b5b8082111561067f576000816000905550600101610667565b5090565b6000610696610691846109aa565b610979565b9050828152602081018484840111156106ae57600080fd5b6106b9848285610a95565b509392505050565b600082601f8301126106d257600080fd5b81356106e2848260208601610683565b91505092915050565b6000813590506106fa81610ba7565b92915050565b60006020828403121561071257600080fd5b600082013567ffffffffffffffff81111561072c57600080fd5b610738848285016106c1565b91505092915050565b60006020828403121561075357600080fd5b6000610761848285016106eb565b91505092915050565b6000610775826109da565b61077f81856109e5565b935061078f818560208601610aa4565b61079881610b96565b840191505092915050565b60006107ae826109da565b6107b881856109f6565b93506107c8818560208601610aa4565b80840191505092915050565b60006107e1601b836109e5565b91507f4552433732312c20746f6b656e20616c65616479206d696e74656400000000006000830152602082019050919050565b60006108216024836109e5565b91507f4552524f52202d206b727970746f426972642068617320616c6561647920657860008301527f69737473000000000000000000000000000000000000000000000000000000006020830152604082019050919050565b60006108876023836109e5565b91507f4552433732313a206d696e74696e6720746f20746865207a65726f206164647260008301527f65737300000000000000000000000000000000000000000000000000000000006020830152604082019050919050565b60006108ec82846107a3565b915081905092915050565b60006020820190508181036000830152610911818461076a565b905092915050565b60006020820190508181036000830152610932816107d4565b9050919050565b6000602082019050818103600083015261095281610814565b9050919050565b600060208201905081810360008301526109728161087a565b9050919050565b6000604051905081810181811067ffffffffffffffff821117156109a05761099f610b67565b5b8060405250919050565b600067ffffffffffffffff8211156109c5576109c4610b67565b5b601f19601f8301169050602081019050919050565b600081519050919050565b600082825260208201905092915050565b600081905092915050565b6000610a0c82610a8b565b9150610a1783610a8b565b9250827fffffffffffffffffffffffffffffffffffffffffffffffffffffffffffffffff03821115610a4c57610a4b610b09565b5b828201905092915050565b6000610a6282610a8b565b9150610a6d83610a8b565b925082821015610a8057610a7f610b09565b5b828203905092915050565b6000819050919050565b82818337600083830152505050565b60005b83811015610ac2578082015181840152602081019050610aa7565b83811115610ad1576000848401525b50505050565b60006002820490506001821680610aef57607f821691505b60208210811415610b0357610b02610b38565b5b50919050565b7f4e487b7100000000000000000000000000000000000000000000000000000000600052601160045260246000fd5b7f4e487b7100000000000000000000000000000000000000000000000000000000600052602260045260246000fd5b7f4e487b7100000000000000000000000000000000000000000000000000000000600052604160045260246000fd5b6000601f19601f8301169050919050565b610bb081610a8b565b8114610bbb57600080fd5b5056fea26469706673582212207314090722415e322a5600ca2203e35633db49f2ccd8c7408cca73a69bb6239064736f6c63430008000033",
  "immutableReferences": {},
  "source": "// SPDX-License-Identifier: MIT\npragma solidity >=0.8.0;\n\nimport './ERC721Connector.sol';\n\ncontract Kryptobirdz is ERC721Connector {\n\n      // NFT\n      string[] public KryptoBirdz;\n\n      mapping(string => bool) _kryptoBirdzExists;\n\n      constructor() ERC721Connector('KryptoBird', 'KBIRDZ') {\n            \n      }\n\n      function mint(string memory _kryptoBird) public {\n            require(!_kryptoBirdzExists[_kryptoBird], 'ERROR - kryptoBird has aleady exists');\n\n            KryptoBirdz.push(_kryptoBird);\n            uint _id  = KryptoBirdz.length - 1;\n\n            _mint(msg.sender, _id);\n            _kryptoBirdzExists[_kryptoBird] = true;\n      }\n}",
  "sourcePath": "/Users/harukikondo/git/NFT-MarketplaceApp/src/contracts/KryptoBirdz.sol",
  "compiler": {
    "name": "solc",
    "version": "0.8.0+commit.c7dfd78e.Emscripten.clang"
  },
  "schemaVersion": "3.4.3",
  "updatedAt": "2022-04-22T14:31:51.239Z",
  "networkType": "ethereum",
  "devdoc": {
    "kind": "dev",
    "methods": {},
    "version": 1
  },
  "userdoc": {
    "kind": "user",
    "methods": {},
    "version": 1
  }
}